{
  "_format": "hh-sol-artifact-1",
  "contractName": "YieldOptimizerDirect",
  "sourceName": "contracts/YieldOptimizerDirect.sol",
  "abi": [
    {
      "inputs": [
        {
          "internalType": "address",
          "name": "_aavePool",
          "type": "address"
        },
        {
          "internalType": "address",
          "name": "_aaveDataProvider",
          "type": "address"
        },
        {
          "internalType": "address",
          "name": "_compoundComet",
          "type": "address"
        },
        {
          "internalType": "address",
          "name": "_usdc",
          "type": "address"
        }
      ],
      "stateMutability": "nonpayable",
      "type": "constructor"
    },
    {
      "inputs": [
        {
          "internalType": "address",
          "name": "owner",
          "type": "address"
        }
      ],
      "name": "OwnableInvalidOwner",
      "type": "error"
    },
    {
      "inputs": [
        {
          "internalType": "address",
          "name": "account",
          "type": "address"
        }
      ],
      "name": "OwnableUnauthorizedAccount",
      "type": "error"
    },
    {
      "anonymous": false,
      "inputs": [
        {
          "indexed": true,
          "internalType": "address",
          "name": "user",
          "type": "address"
        },
        {
          "indexed": false,
          "internalType": "uint256",
          "name": "amount",
          "type": "uint256"
        },
        {
          "indexed": false,
          "internalType": "enum YieldOptimizerDirect.Protocol",
          "name": "protocol",
          "type": "uint8"
        }
      ],
      "name": "Deposited",
      "type": "event"
    },
    {
      "anonymous": false,
      "inputs": [
        {
          "indexed": false,
          "internalType": "string",
          "name": "message",
          "type": "string"
        },
        {
          "indexed": false,
          "internalType": "uint256",
          "name": "value",
          "type": "uint256"
        }
      ],
      "name": "Log",
      "type": "event"
    },
    {
      "anonymous": false,
      "inputs": [
        {
          "indexed": true,
          "internalType": "address",
          "name": "previousOwner",
          "type": "address"
        },
        {
          "indexed": true,
          "internalType": "address",
          "name": "newOwner",
          "type": "address"
        }
      ],
      "name": "OwnershipTransferred",
      "type": "event"
    },
    {
      "anonymous": false,
      "inputs": [
        {
          "indexed": false,
          "internalType": "enum YieldOptimizerDirect.Protocol",
          "name": "from",
          "type": "uint8"
        },
        {
          "indexed": false,
          "internalType": "enum YieldOptimizerDirect.Protocol",
          "name": "to",
          "type": "uint8"
        },
        {
          "indexed": false,
          "internalType": "uint256",
          "name": "amount",
          "type": "uint256"
        }
      ],
      "name": "Rebalanced",
      "type": "event"
    },
    {
      "anonymous": false,
      "inputs": [
        {
          "indexed": true,
          "internalType": "address",
          "name": "user",
          "type": "address"
        },
        {
          "indexed": false,
          "internalType": "uint256",
          "name": "amount",
          "type": "uint256"
        }
      ],
      "name": "Withdrawn",
      "type": "event"
    },
    {
      "inputs": [],
      "name": "aUSDC",
      "outputs": [
        {
          "internalType": "contract IAToken",
          "name": "",
          "type": "address"
        }
      ],
      "stateMutability": "view",
      "type": "function"
    },
    {
      "inputs": [],
      "name": "aaveDataProvider",
      "outputs": [
        {
          "internalType": "contract IAaveProtocolDataProvider",
          "name": "",
          "type": "address"
        }
      ],
      "stateMutability": "view",
      "type": "function"
    },
    {
      "inputs": [],
      "name": "aavePool",
      "outputs": [
        {
          "internalType": "contract IAaveV3Pool",
          "name": "",
          "type": "address"
        }
      ],
      "stateMutability": "view",
      "type": "function"
    },
    {
      "inputs": [],
      "name": "compoundComet",
      "outputs": [
        {
          "internalType": "contract IComet",
          "name": "",
          "type": "address"
        }
      ],
      "stateMutability": "view",
      "type": "function"
    },
    {
      "inputs": [],
      "name": "currentProtocol",
      "outputs": [
        {
          "internalType": "enum YieldOptimizerDirect.Protocol",
          "name": "",
          "type": "uint8"
        }
      ],
      "stateMutability": "view",
      "type": "function"
    },
    {
      "inputs": [
        {
          "internalType": "uint256",
          "name": "amount",
          "type": "uint256"
        }
      ],
      "name": "deposit",
      "outputs": [],
      "stateMutability": "nonpayable",
      "type": "function"
    },
    {
      "inputs": [],
      "name": "getAaveAPY",
      "outputs": [
        {
          "internalType": "uint256",
          "name": "",
          "type": "uint256"
        }
      ],
      "stateMutability": "view",
      "type": "function"
    },
    {
      "inputs": [],
      "name": "getAaveBalance",
      "outputs": [
        {
          "internalType": "uint256",
          "name": "",
          "type": "uint256"
        }
      ],
      "stateMutability": "view",
      "type": "function"
    },
    {
      "inputs": [],
      "name": "getAaveSupplyRate",
      "outputs": [
        {
          "internalType": "uint256",
          "name": "",
          "type": "uint256"
        }
      ],
      "stateMutability": "view",
      "type": "function"
    },
    {
      "inputs": [],
      "name": "getBestProtocol",
      "outputs": [
        {
          "internalType": "enum YieldOptimizerDirect.Protocol",
          "name": "",
          "type": "uint8"
        }
      ],
      "stateMutability": "view",
      "type": "function"
    },
    {
      "inputs": [],
      "name": "getCompoundAPY",
      "outputs": [
        {
          "internalType": "uint256",
          "name": "",
          "type": "uint256"
        }
      ],
      "stateMutability": "view",
      "type": "function"
    },
    {
      "inputs": [],
      "name": "getCompoundBalance",
      "outputs": [
        {
          "internalType": "uint256",
          "name": "",
          "type": "uint256"
        }
      ],
      "stateMutability": "view",
      "type": "function"
    },
    {
      "inputs": [],
      "name": "getTotalBalance",
      "outputs": [
        {
          "internalType": "uint256",
          "name": "",
          "type": "uint256"
        }
      ],
      "stateMutability": "view",
      "type": "function"
    },
    {
      "inputs": [],
      "name": "owner",
      "outputs": [
        {
          "internalType": "address",
          "name": "",
          "type": "address"
        }
      ],
      "stateMutability": "view",
      "type": "function"
    },
    {
      "inputs": [],
      "name": "rebalance",
      "outputs": [],
      "stateMutability": "nonpayable",
      "type": "function"
    },
    {
      "inputs": [],
      "name": "renounceOwnership",
      "outputs": [],
      "stateMutability": "nonpayable",
      "type": "function"
    },
    {
      "inputs": [
        {
          "internalType": "address",
          "name": "newOwner",
          "type": "address"
        }
      ],
      "name": "transferOwnership",
      "outputs": [],
      "stateMutability": "nonpayable",
      "type": "function"
    },
    {
      "inputs": [],
      "name": "usdc",
      "outputs": [
        {
          "internalType": "contract IERC20",
          "name": "",
          "type": "address"
        }
      ],
      "stateMutability": "view",
      "type": "function"
    },
    {
      "inputs": [
        {
          "internalType": "uint256",
          "name": "amount",
          "type": "uint256"
        }
      ],
      "name": "withdraw",
      "outputs": [],
      "stateMutability": "nonpayable",
      "type": "function"
    }
  ],
  "bytecode": "0x608060409080825234620002a357608081620015f78038038091620000258285620002a8565b833981010312620002a3576200003b81620002e2565b6020916200004b838201620002e2565b906200006760606200005f878401620002e2565b9201620002e2565b9033156200028b5760009182549160018060a01b0319953387851617855588519360018060a01b0380978180948194823391167f8be0079c531659141344cd1fd0a4f28419497f9722a3daafe3b4186f6b6457e08c80a3168a600154161760015516928389600254161760025516928388600354161760035516809660045416176004556060836024816005549460ff60a01b1986166005556334924edb60e21b82528a60048301525afa801562000281579085889392869062000217575b6001600160a81b0319909216911617600555875163c55dae6360e01b81529250829060049082905afa9182156200020c578092620001c9575b50501603620001775750516112ff9081620002f88239f35b608491519062461bcd60e51b82526004820152602760248201527f436f6d706f756e64206d61726b6574206261736520746f6b656e206d757374206044820152666265205553444360c81b6064820152fd5b9091508482813d831162000204575b620001e48183620002a8565b81010312620002015750620001f990620002e2565b38806200015f565b80fd5b503d620001d8565b8651903d90823e3d90fd5b50509150916060813d821162000278575b816200023760609383620002a8565b81010312620002745791869185846200026d8b62000257600498620002e2565b9262000265888201620002e2565b5001620002e2565b5062000126565b8380fd5b3d915062000228565b88513d86823e3d90fd5b8551631e4fbdf760e01b815260006004820152602490fd5b600080fd5b601f909101601f19168101906001600160401b03821190821017620002cc57604052565b634e487b7160e01b600052604160045260246000fd5b51906001600160a01b0382168203620002a35756fe60406080815260048036101561001457600080fd5b600091823560e01c80630bccacbd14610fed57806312b5834914610fb65780632aefb3a414610f8d5780632e1a7d4d14610d3857806338d4dff814610c755780633e413bee14610c4d578063488a07b714610c2457806351e1936614610bf8578063559fda3314610bcf5780636237f68614610bb2578063715018a614610b585780637d7c2a1c146105cf5780638da5cb5b146105a75780638dad36a514610529578063a03e4bc314610500578063a4f4acc5146104d7578063b6b55f25146101b3578063d42d5b751461018b5763f2fde38b146100f157600080fd5b34610187576020366003190112610187576001600160a01b038235818116939192908490036101835761012261102d565b831561016d575050600054826bffffffffffffffffffffffff60a01b821617600055167f8be0079c531659141344cd1fd0a4f28419497f9722a3daafe3b4186f6b6457e0600080a380f35b51631e4fbdf760e01b8152908101849052602490fd5b8480fd5b8280fd5b8382346101af57816003193601126101af576020906101a861128b565b9051908152f35b5080fd5b5090346101875760209182600319360112610351578135926101d6841515611059565b825482516323b872dd60e01b81523381860152306024820152604481018690526001600160a01b03918390829060649082908b9087165af180156104cd576104b0575b50610222611109565b93600385101561049d578691906001860361038c578054600154865163095ea7b360e01b81529084166001600160a01b0316818401908152602081018a905290918691839186169082908890829060400103925af1801561038257610355575b5081600154169181541690823b1561035157855163617ba03760e01b81526001600160a01b0390921690820190815260208101889052306040820152600060608201529091839183919082908490829060800103925af1801561034757610333575b50506005805460ff60a01b1916600160a01b1790557f68ef9715adf17aacc9d4ab13dbff6ecd13ea4916b4a6c98416a0c2789e1b9d529261032d915b835195865285019061100a565b3392a280f35b61033c906110a5565b6101835784386102e4565b84513d84823e3d90fd5b8380fd5b61037490853d871161037b575b61036c81836110cf565b8101906110f1565b5038610282565b503d610362565b86513d86823e3d90fd5b8054600354865163095ea7b360e01b81529084166001600160a01b0316818401908152602081018a905290918691839186169082908890829060400103925af1801561038257610480575b5081600354169181541690823b15610351578551631e573fb760e31b81526001600160a01b03909216908201908152602081018890529091839183919082908490829060400103925af180156103475761046c575b50506005805460ff60a01b1916600160a11b1790557f68ef9715adf17aacc9d4ab13dbff6ecd13ea4916b4a6c98416a0c2789e1b9d529261032d91610320565b610475906110a5565b61018357843861042c565b61049690853d871161037b5761036c81836110cf565b50386103d7565b634e487b7160e01b875260219052602486fd5b6104c690833d851161037b5761036c81836110cf565b5038610219565b84513d89823e3d90fd5b8382346101af57816003193601126101af5760025490516001600160a01b039091168152602090f35b8382346101af57816003193601126101af5760015490516001600160a01b039091168152602090f35b508290346101af57816003193601126101af576a084595161401484a000000610550611196565b046301e133809081810291818304149015171561059457606490049160648301809311610581576020838351908152f35b634e487b7160e01b815260118452602490fd5b634e487b7160e01b835260118452602483fd5b8382346101af57816003193601126101af57905490516001600160a01b039091168152602090f35b5090346101875782600319360112610187576105e9611109565b6105f161121f565b80151580610b44575b6108d6575b5061060861128b565b9081151590816108ae575b50610672575b50505061062461121f565b1561063f576005805460ff60a01b1916600160a01b17905580f35b61064761128b565b15610662576005805460ff60a01b1916600160a11b17905580f35b6005805460ff60a01b1916905580f35b60035482546001600160a01b039186918316908316803b1561018757865163f3fef3a360e01b81526001600160a01b03909216868301908152602081018690528391839182908490829060400103925af1801561086657610897575b506080918551948686526017878701527f52656465656d65642066726f6d20436f6d706f756e643a000000000000000000606087015260209585878201527fdd970dd9b5bfe707922155b058a407655cb18288b807e2216442bca8ad83d6b5948591a18054600154885163095ea7b360e01b81529084166001600160a01b03168184019081526020810188905290918891839186169082908890829060400103925af1801561088d57610870575b5081600154169181541690823b1561035157875163617ba03760e01b81526001600160a01b0390921690820190815260208101869052306040820152600060608201529091839183919082908490829060800103925af180156108665761084c575b505090836060939260807f7ce8fc55bb7c62de108767205b2428d9d6332edf725a22950a6e3513631f2ce99651838152601284820152712232b837b9b4ba32b2103a379020a0ab229d60711b878201528486820152a1600181519360028552840152820152a1388080610619565b61085990949392946110a5565b61018357909184386107de565b86513d84823e3d90fd5b61088690873d891161037b5761036c81836110cf565b503861077c565b88513d86823e3d90fd5b6108a182916110a5565b6108ab57386106ce565b80fd5b905060038110156108c3576002141538610613565b634e487b7160e01b855260218352602485fd5b60015483548551631a4ca37b60e21b81526001600160a01b039182168187019081526020818101869052306040830152938491839185169082908c90829060600103925af1908115610b3a578391610b0c575b50506080908651878152601388820152722bb4ba34323932bb90333937b69020a0ab229d60691b606082015284848201527fdd970dd9b5bfe707922155b058a407655cb18288b807e2216442bca8ad83d6b5928391a16003851015610af95787906002861461099c575b505050506105ff565b8654600354895163095ea7b360e01b81529083166001600160a01b0316818a019081526020810188905290918691839185169082908790829060400103925af18015610aef57610ad2575b50600354875482169116803b15610187578851631e573fb760e31b81526001600160a01b03909216828901908152602081018790528391839182908490829060400103925af18015610ac857610aac575b5050907f7ce8fc55bb7c62de108767205b2428d9d6332edf725a22950a6e3513631f2ce9926060926080885189815260168a820152752232b837b9b4ba32b2103a379021b7b6b837bab7321d60511b868201528385820152a160028751926001845283015286820152a13880808681610993565b610ab8909392936110a5565b610ac457908638610a38565b8680fd5b88513d84823e3d90fd5b610ae890853d871161037b5761036c81836110cf565b50386109e7565b89513d85823e3d90fd5b634e487b7160e01b885260218652602488fd5b813d8311610b33575b610b1f81836110cf565b81010312610b2e578138610929565b600080fd5b503d610b15565b87513d8a823e3d90fd5b5060038210156108c35760018214156105fa565b83346108ab57806003193601126108ab57610b7161102d565b600080546001600160a01b0319811682556001600160a01b03167f8be0079c531659141344cd1fd0a4f28419497f9722a3daafe3b4186f6b6457e08280a380f35b8382346101af57816003193601126101af576020906101a861121f565b8382346101af57816003193601126101af5760055490516001600160a01b039091168152602090f35b8382346101af57816003193601126101af57602090610c2260ff60055460a01c169151809261100a565bf35b8382346101af57816003193601126101af5760035490516001600160a01b039091168152602090f35b5090346101875782600319360112610187575490516001600160a01b03909116815260209150f35b508290346101af57816003193601126101af57600354815163ad2961a360e01b8152906020908290869082906001600160a01b03165afa8015610d2c578390610cf4575b662386f26fc100009150046301e133809081810291818304149015171561059457606490049160648301809311610581576020838351908152f35b506020813d8211610d24575b81610d0d602093836110cf565b81010312610b2e57662386f26fc100009051610cb9565b3d9150610d00565b505051903d90823e3d90fd5b50346101875760208060031936011261035157823591610d5661102d565b610d61831515611059565b60ff60055460a01c166003811015610f7a5760018103610eaa575060015484548251631a4ca37b60e21b81526001600160a01b03918216818801908152602081018790523060408201529092859284928390036060019183918b91165af18015610ea057610e76575b508183610e11955b80548854855163a9059cbb60e01b81526001600160a01b039182169381019384526020840194909452929788939091169183918a918391604090910190565b03925af1938415610e6c577f7084f5476618d8e60b11ef0d7d3f06914655adb8793e28ff7f018d4c76d505d59394610e4f575b50519283523392a280f35b610e6590833d851161037b5761036c81836110cf565b5038610e44565b81513d87823e3d90fd5b8290813d8311610e99575b610e8b81836110cf565b81010312610b2e5738610dca565b503d610e81565b82513d88823e3d90fd5b939493600203610f425760035485546001600160a01b039182169116813b15610f3e57825163f3fef3a360e01b81526001600160a01b03909116818801908152602081018690529091869183919082908490829060400103925af18015610f3457610f1d575b508183610e119596610dd2565b83610e1195610f2c85936110a5565b955050610f10565b82513d87823e3d90fd5b8580fd5b5162461bcd60e51b8152808501919091526012602482015271139bc8199d5b991cc819195c1bdcda5d195960721b6044820152606490fd5b634e487b7160e01b865260218552602486fd5b8382346101af57816003193601126101af57602090610c22610fad611109565b9151809261100a565b508290346101af57816003193601126101af57610fd161121f565b91610fda61128b565b8301809311610581576020838351908152f35b8382346101af57816003193601126101af576020906101a8611196565b9060038210156110175752565b634e487b7160e01b600052602160045260246000fd5b6000546001600160a01b0316330361104157565b60405163118cdaa760e01b8152336004820152602490fd5b1561106057565b60405162461bcd60e51b815260206004820152601d60248201527f416d6f756e74206d7573742062652067726561746572207468616e20300000006044820152606490fd5b67ffffffffffffffff81116110b957604052565b634e487b7160e01b600052604160045260246000fd5b90601f8019910116810190811067ffffffffffffffff8211176110b957604052565b90816020910312610b2e57518015158103610b2e5790565b6004611113611196565b60035460405163ad2961a360e01b81529260209184919082906001600160a01b03165afa91821561118a57600092611157575b50111561115257600190565b600290565b90916020823d8211611182575b81611171602093836110cf565b810103126108ab5750519038611146565b3d9150611164565b6040513d6000823e3d90fd5b60018060a01b03806001541690600454166040519182916335ea6a7560e01b835260048301528160246101809384935afa90811561118a576000916111dc575b50905090565b82813d8311611218575b6111f081836110cf565b810103126108ab5761016060a083015192015164ffffffffff8116036108ab575080386111d6565b503d6111e6565b6005546040516370a0823160e01b815230600482015290602090829060249082906001600160a01b03165afa90811561118a5760009161125d575090565b906020823d8211611283575b81611276602093836110cf565b810103126108ab57505190565b3d9150611269565b6003546040516370a0823160e01b815230600482015290602090829060249082906001600160a01b03165afa90811561118a5760009161125d57509056fea264697066735822122004bf48e9e0b9a5737bcd82dfefda0d4179c670f93c4d0571401bb883bccfa76364736f6c63430008140033",
  "linkReferences": {},
  "deployedLinkReferences": {}
}