{
  "_format": "hh-sol-artifact-1",
  "contractName": "MockCompoundV3",
  "sourceName": "contracts/mocks/MockCompoundV3.sol",
  "abi": [
    {
      "inputs": [],
      "name": "accrueInterest",
      "outputs": [],
      "stateMutability": "nonpayable",
      "type": "function"
    },
    {
      "inputs": [],
      "name": "defaultAsset",
      "outputs": [
        {
          "internalType": "address",
          "name": "",
          "type": "address"
        }
      ],
      "stateMutability": "view",
      "type": "function"
    },
    {
      "inputs": [
        {
          "internalType": "address",
          "name": "user",
          "type": "address"
        }
      ],
      "name": "getBalance",
      "outputs": [
        {
          "internalType": "uint256",
          "name": "",
          "type": "uint256"
        }
      ],
      "stateMutability": "view",
      "type": "function"
    },
    {
      "inputs": [
        {
          "internalType": "address",
          "name": "asset",
          "type": "address"
        }
      ],
      "name": "getSupplyRate",
      "outputs": [
        {
          "internalType": "uint256",
          "name": "",
          "type": "uint256"
        }
      ],
      "stateMutability": "view",
      "type": "function"
    },
    {
      "inputs": [
        {
          "internalType": "uint256",
          "name": "amount",
          "type": "uint256"
        }
      ],
      "name": "redeem",
      "outputs": [],
      "stateMutability": "nonpayable",
      "type": "function"
    },
    {
      "inputs": [
        {
          "internalType": "address",
          "name": "asset",
          "type": "address"
        },
        {
          "internalType": "uint256",
          "name": "rate",
          "type": "uint256"
        }
      ],
      "name": "setSupplyRate",
      "outputs": [],
      "stateMutability": "nonpayable",
      "type": "function"
    },
    {
      "inputs": [
        {
          "internalType": "address",
          "name": "asset",
          "type": "address"
        },
        {
          "internalType": "uint256",
          "name": "amount",
          "type": "uint256"
        }
      ],
      "name": "supply",
      "outputs": [],
      "stateMutability": "nonpayable",
      "type": "function"
    }
  ],
  "bytecode": "0x608080604052346100165761040d908161001c8239f35b600080fdfe608060408181526004918236101561001657600080fd5b600092833560e01c9182636b5441a914610338575081637b20c8f41461030f578163a6afed95146102f8578163d3fe312e146102c4578163db006a7514610192578163f2b9fdb8146100ab575063f8b2cb4f1461007257600080fd5b346100a75760203660031901126100a75760209181906001600160a01b0361009861036c565b16815280845220549051908152f35b5080fd5b90503461018e578160031936011261018e576100c561036c565b906024359060018060a01b038093169380516323b872dd60e01b815233838201523060248201528360448201526020816064818a8a5af1801561018457610156575b503386528560205285209081549283018093116101435750556002549081161561012f578280f35b6001600160a01b0319161760025538808280f35b634e487b7160e01b865260119052602485fd5b6101769060203d811161017d575b61016e8183610387565b8101906103bf565b5038610107565b503d610164565b82513d89823e3d90fd5b8280fd5b90503461018e57602091826003193601126102c0578135338552848452808286205410610287576002546001600160a01b03169283156102515733865285855282862080549083820391821161023e579160449187949355878551968794859363a9059cbb60e01b8552339085015260248401525af19081156102355750610218578280f35b8161022e92903d1061017d5761016e8183610387565b5038808280f35b513d85823e3d90fd5b634e487b7160e01b885260118352602488fd5b825162461bcd60e51b8152908101859052601060248201526f139bc8185cdcd95d081919599a5b995960821b6044820152606490fd5b5091606492519162461bcd60e51b83528201526014602482015273496e73756666696369656e742062616c616e636560601b6044820152fd5b8380fd5b5050346100a757806003193601126100a7576001600160a01b036102e661036c565b16825260016020526024359082205580f35b833461030c578060031936011261030c5780f35b80fd5b5050346100a757816003193601126100a75760025490516001600160a01b039091168152602090f35b8490843461018e57602036600319011261018e576020926001600160a01b0361035f61036c565b1681526001845220548152f35b600435906001600160a01b038216820361038257565b600080fd5b90601f8019910116810190811067ffffffffffffffff8211176103a957604052565b634e487b7160e01b600052604160045260246000fd5b9081602091031261038257518015158103610382579056fea2646970667358221220b9a97a3a9f80a02067b67dc8b501a504b9e05613d3325be1d5b1e9c3a64a65f064736f6c63430008140033",
  "linkReferences": {},
  "deployedLinkReferences": {}
}