{
  "_format": "hh-sol-artifact-1",
  "contractName": "MockAaveV3",
  "sourceName": "contracts/mocks/MockAaveV3.sol",
  "abi": [
    {
      "inputs": [
        {
          "internalType": "address",
          "name": "asset",
          "type": "address"
        }
      ],
      "name": "accrueInterest",
      "outputs": [],
      "stateMutability": "nonpayable",
      "type": "function"
    },
    {
      "inputs": [
        {
          "internalType": "address",
          "name": "asset",
          "type": "address"
        },
        {
          "internalType": "uint256",
          "name": "amount",
          "type": "uint256"
        },
        {
          "internalType": "address",
          "name": "onBehalfOf",
          "type": "address"
        },
        {
          "internalType": "uint16",
          "name": "referralCode",
          "type": "uint16"
        }
      ],
      "name": "deposit",
      "outputs": [],
      "stateMutability": "nonpayable",
      "type": "function"
    },
    {
      "inputs": [
        {
          "internalType": "address",
          "name": "user",
          "type": "address"
        },
        {
          "internalType": "address",
          "name": "asset",
          "type": "address"
        }
      ],
      "name": "getBalance",
      "outputs": [
        {
          "internalType": "uint256",
          "name": "",
          "type": "uint256"
        }
      ],
      "stateMutability": "view",
      "type": "function"
    },
    {
      "inputs": [
        {
          "internalType": "address",
          "name": "asset",
          "type": "address"
        }
      ],
      "name": "getInterestRate",
      "outputs": [
        {
          "internalType": "uint256",
          "name": "",
          "type": "uint256"
        }
      ],
      "stateMutability": "view",
      "type": "function"
    },
    {
      "inputs": [
        {
          "internalType": "address",
          "name": "asset",
          "type": "address"
        },
        {
          "internalType": "uint256",
          "name": "rate",
          "type": "uint256"
        }
      ],
      "name": "setInterestRate",
      "outputs": [],
      "stateMutability": "nonpayable",
      "type": "function"
    },
    {
      "inputs": [
        {
          "internalType": "address",
          "name": "asset",
          "type": "address"
        },
        {
          "internalType": "uint256",
          "name": "amount",
          "type": "uint256"
        },
        {
          "internalType": "address",
          "name": "to",
          "type": "address"
        }
      ],
      "name": "withdraw",
      "outputs": [
        {
          "internalType": "uint256",
          "name": "",
          "type": "uint256"
        }
      ],
      "stateMutability": "nonpayable",
      "type": "function"
    }
  ],
  "bytecode": "0x608080604052346100165761040c908161001c8239f35b600080fdfe6080604081815260048036101561001557600080fd5b600092833560e01c90816369328dec146102345750806373e5515e146102005780639198e515146101df578063d3ea0f89146101a7578063d4fac45d146101515763e8eda9df1461006557600080fd5b3461014d57608036600319011261014d5761007e610355565b916024359261008b610370565b9060643561ffff8116036101495782516323b872dd60e01b81523385820152306024820152604481018690526001600160a01b0391821692906020816064818b885af1801561013f57610111575b501685528460205281852090855260205283209081549283018093116100fe57505580f35b634e487b7160e01b845260119052602483fd5b6101319060203d8111610138575b6101298183610386565b8101906103be565b50386100d9565b503d61011f565b85513d8a823e3d90fd5b8580fd5b8280fd5b5050346101a357806003193601126101a35761016b610355565b6001600160a01b03602435818116929083900361019f57168352602083815282842091845290815291819020549051908152f35b8480fd5b5080fd5b5050346101a35760203660031901126101a35760209181906001600160a01b036101cf610355565b1681526001845220549051908152f35b83346101fd5760203660031901126101fd576101f9610355565b5080f35b80fd5b5050346101a357806003193601126101a3576001600160a01b03610222610355565b16825260016020526024359082205580f35b8484843461014d57606036600319011261014d57610250610355565b926024359361025d610370565b33835260208381528584206001600160a01b039384168086529082528685205491989091881161031d5750338452838852858420818552885285842080549088820391821161030a576044928a9594928792558851978895869463a9059cbb60e01b865216908401528960248401525af19081156102ff57506102e2575b5051908152f35b6102f890843d8611610138576101298183610386565b50836102db565b8351903d90823e3d90fd5b634e487b7160e01b865260118752602486fd5b62461bcd60e51b81528581018990526014602482015273496e73756666696369656e742062616c616e636560601b6044820152606490fd5b600435906001600160a01b038216820361036b57565b600080fd5b604435906001600160a01b038216820361036b57565b90601f8019910116810190811067ffffffffffffffff8211176103a857604052565b634e487b7160e01b600052604160045260246000fd5b9081602091031261036b5751801515810361036b579056fea264697066735822122050d6cd665e1c6bb1247858f1585c15b54d3f00ca14b25a8e79dfeaa034de36d864736f6c63430008140033",
  "linkReferences": {},
  "deployedLinkReferences": {}
}