{
  "_format": "hh-sol-artifact-1",
  "contractName": "YieldOptimizer",
  "sourceName": "contracts/YieldOptimizer.sol",
  "abi": [
    {
      "inputs": [
        {
          "internalType": "address",
          "name": "_aave",
          "type": "address"
        },
        {
          "internalType": "address",
          "name": "_compound",
          "type": "address"
        },
        {
          "internalType": "address",
          "name": "_usdc",
          "type": "address"
        }
      ],
      "stateMutability": "nonpayable",
      "type": "constructor"
    },
    {
      "inputs": [
        {
          "internalType": "address",
          "name": "owner",
          "type": "address"
        }
      ],
      "name": "OwnableInvalidOwner",
      "type": "error"
    },
    {
      "inputs": [
        {
          "internalType": "address",
          "name": "account",
          "type": "address"
        }
      ],
      "name": "OwnableUnauthorizedAccount",
      "type": "error"
    },
    {
      "anonymous": false,
      "inputs": [
        {
          "indexed": true,
          "internalType": "address",
          "name": "user",
          "type": "address"
        },
        {
          "indexed": false,
          "internalType": "uint256",
          "name": "amount",
          "type": "uint256"
        },
        {
          "indexed": false,
          "internalType": "enum YieldOptimizer.Protocol",
          "name": "protocol",
          "type": "uint8"
        }
      ],
      "name": "Deposited",
      "type": "event"
    },
    {
      "anonymous": false,
      "inputs": [
        {
          "indexed": true,
          "internalType": "address",
          "name": "previousOwner",
          "type": "address"
        },
        {
          "indexed": true,
          "internalType": "address",
          "name": "newOwner",
          "type": "address"
        }
      ],
      "name": "OwnershipTransferred",
      "type": "event"
    },
    {
      "anonymous": false,
      "inputs": [
        {
          "indexed": false,
          "internalType": "enum YieldOptimizer.Protocol",
          "name": "from",
          "type": "uint8"
        },
        {
          "indexed": false,
          "internalType": "enum YieldOptimizer.Protocol",
          "name": "to",
          "type": "uint8"
        },
        {
          "indexed": false,
          "internalType": "uint256",
          "name": "amount",
          "type": "uint256"
        }
      ],
      "name": "Rebalanced",
      "type": "event"
    },
    {
      "anonymous": false,
      "inputs": [
        {
          "indexed": true,
          "internalType": "address",
          "name": "user",
          "type": "address"
        },
        {
          "indexed": false,
          "internalType": "uint256",
          "name": "amount",
          "type": "uint256"
        }
      ],
      "name": "Withdrawn",
      "type": "event"
    },
    {
      "inputs": [],
      "name": "aave",
      "outputs": [
        {
          "internalType": "contract IAaveV3",
          "name": "",
          "type": "address"
        }
      ],
      "stateMutability": "view",
      "type": "function"
    },
    {
      "inputs": [],
      "name": "compound",
      "outputs": [
        {
          "internalType": "contract ICompoundV3",
          "name": "",
          "type": "address"
        }
      ],
      "stateMutability": "view",
      "type": "function"
    },
    {
      "inputs": [],
      "name": "currentProtocol",
      "outputs": [
        {
          "internalType": "enum YieldOptimizer.Protocol",
          "name": "",
          "type": "uint8"
        }
      ],
      "stateMutability": "view",
      "type": "function"
    },
    {
      "inputs": [
        {
          "internalType": "uint256",
          "name": "amount",
          "type": "uint256"
        }
      ],
      "name": "deposit",
      "outputs": [],
      "stateMutability": "nonpayable",
      "type": "function"
    },
    {
      "inputs": [],
      "name": "getBestProtocol",
      "outputs": [
        {
          "internalType": "enum YieldOptimizer.Protocol",
          "name": "",
          "type": "uint8"
        }
      ],
      "stateMutability": "view",
      "type": "function"
    },
    {
      "inputs": [],
      "name": "getTotalBalance",
      "outputs": [
        {
          "internalType": "uint256",
          "name": "",
          "type": "uint256"
        }
      ],
      "stateMutability": "view",
      "type": "function"
    },
    {
      "inputs": [],
      "name": "owner",
      "outputs": [
        {
          "internalType": "address",
          "name": "",
          "type": "address"
        }
      ],
      "stateMutability": "view",
      "type": "function"
    },
    {
      "inputs": [],
      "name": "rebalance",
      "outputs": [],
      "stateMutability": "nonpayable",
      "type": "function"
    },
    {
      "inputs": [],
      "name": "renounceOwnership",
      "outputs": [],
      "stateMutability": "nonpayable",
      "type": "function"
    },
    {
      "inputs": [
        {
          "internalType": "address",
          "name": "newOwner",
          "type": "address"
        }
      ],
      "name": "transferOwnership",
      "outputs": [],
      "stateMutability": "nonpayable",
      "type": "function"
    },
    {
      "inputs": [],
      "name": "usdc",
      "outputs": [
        {
          "internalType": "contract IERC20",
          "name": "",
          "type": "address"
        }
      ],
      "stateMutability": "view",
      "type": "function"
    },
    {
      "inputs": [
        {
          "internalType": "uint256",
          "name": "amount",
          "type": "uint256"
        }
      ],
      "name": "withdraw",
      "outputs": [],
      "stateMutability": "nonpayable",
      "type": "function"
    }
  ],
  "bytecode": "0x60806040523480156200001157600080fd5b5060405162002186380380620021868339818101604052810190620000379190620002e7565b33600073ffffffffffffffffffffffffffffffffffffffff168173ffffffffffffffffffffffffffffffffffffffff1603620000ad5760006040517f1e4fbdf7000000000000000000000000000000000000000000000000000000008152600401620000a4919062000354565b60405180910390fd5b620000be81620001b960201b60201c565b5082600160006101000a81548173ffffffffffffffffffffffffffffffffffffffff021916908373ffffffffffffffffffffffffffffffffffffffff16021790555081600260006101000a81548173ffffffffffffffffffffffffffffffffffffffff021916908373ffffffffffffffffffffffffffffffffffffffff16021790555080600360006101000a81548173ffffffffffffffffffffffffffffffffffffffff021916908373ffffffffffffffffffffffffffffffffffffffff1602179055506000600360146101000a81548160ff02191690836002811115620001ab57620001aa62000371565b5b0217905550505050620003a0565b60008060009054906101000a900473ffffffffffffffffffffffffffffffffffffffff169050816000806101000a81548173ffffffffffffffffffffffffffffffffffffffff021916908373ffffffffffffffffffffffffffffffffffffffff1602179055508173ffffffffffffffffffffffffffffffffffffffff168173ffffffffffffffffffffffffffffffffffffffff167f8be0079c531659141344cd1fd0a4f28419497f9722a3daafe3b4186f6b6457e060405160405180910390a35050565b600080fd5b600073ffffffffffffffffffffffffffffffffffffffff82169050919050565b6000620002af8262000282565b9050919050565b620002c181620002a2565b8114620002cd57600080fd5b50565b600081519050620002e181620002b6565b92915050565b6000806000606084860312156200030357620003026200027d565b5b60006200031386828701620002d0565b93505060206200032686828701620002d0565b92505060406200033986828701620002d0565b9150509250925092565b6200034e81620002a2565b82525050565b60006020820190506200036b600083018462000343565b92915050565b7f4e487b7100000000000000000000000000000000000000000000000000000000600052602160045260246000fd5b611dd680620003b06000396000f3fe608060405234801561001057600080fd5b50600436106100b45760003560e01c80637d7c2a1c116100715780637d7c2a1c14610157578063819faf7b146101615780638da5cb5b1461017f578063b6b55f251461019d578063f2fde38b146101b9578063f69e2046146101d5576100b4565b806312b58349146100b95780632aefb3a4146100d75780632e1a7d4d146100f55780633e413bee1461011157806351e193661461012f578063715018a61461014d575b600080fd5b6100c16101f3565b6040516100ce91906117dc565b60405180910390f35b6100df6103dc565b6040516100ec919061186e565b60405180910390f35b61010f600480360381019061010a91906118ba565b610579565b005b6101196108b8565b6040516101269190611966565b60405180910390f35b6101376108de565b604051610144919061186e565b60405180910390f35b6101556108f1565b005b61015f610905565b005b6101696110ba565b60405161017691906119a2565b60405180910390f35b6101876110e0565b60405161019491906119de565b60405180910390f35b6101b760048036038101906101b291906118ba565b611109565b005b6101d360048036038101906101ce9190611a25565b6115c4565b005b6101dd61164a565b6040516101ea9190611a73565b60405180910390f35b600060016002811115610209576102086117f7565b5b600360149054906101000a900460ff16600281111561022b5761022a6117f7565b5b036102f757600160009054906101000a900473ffffffffffffffffffffffffffffffffffffffff1673ffffffffffffffffffffffffffffffffffffffff1663d4fac45d30600360009054906101000a900473ffffffffffffffffffffffffffffffffffffffff166040518363ffffffff1660e01b81526004016102af929190611a8e565b602060405180830381865afa1580156102cc573d6000803e3d6000fd5b505050506040513d601f19601f820116820180604052508101906102f09190611acc565b90506103d9565b60028081111561030a576103096117f7565b5b600360149054906101000a900460ff16600281111561032c5761032b6117f7565b5b036103d457600260009054906101000a900473ffffffffffffffffffffffffffffffffffffffff1673ffffffffffffffffffffffffffffffffffffffff1663f8b2cb4f306040518263ffffffff1660e01b815260040161038c91906119de565b602060405180830381865afa1580156103a9573d6000803e3d6000fd5b505050506040513d601f19601f820116820180604052508101906103cd9190611acc565b90506103d9565b600090505b90565b600080600160009054906101000a900473ffffffffffffffffffffffffffffffffffffffff1673ffffffffffffffffffffffffffffffffffffffff1663d3ea0f89600360009054906101000a900473ffffffffffffffffffffffffffffffffffffffff166040518263ffffffff1660e01b815260040161045c91906119de565b602060405180830381865afa158015610479573d6000803e3d6000fd5b505050506040513d601f19601f8201168201806040525081019061049d9190611acc565b90506000600260009054906101000a900473ffffffffffffffffffffffffffffffffffffffff1673ffffffffffffffffffffffffffffffffffffffff16636b5441a9600360009054906101000a900473ffffffffffffffffffffffffffffffffffffffff166040518263ffffffff1660e01b815260040161051e91906119de565b602060405180830381865afa15801561053b573d6000803e3d6000fd5b505050506040513d601f19601f8201168201806040525081019061055f9190611acc565b905080821161056f576002610572565b60015b9250505090565b610581611670565b600081116105c4576040517f08c379a00000000000000000000000000000000000000000000000000000000081526004016105bb90611b56565b60405180910390fd5b600160028111156105d8576105d76117f7565b5b600360149054906101000a900460ff1660028111156105fa576105f96117f7565b5b036106b757600160009054906101000a900473ffffffffffffffffffffffffffffffffffffffff1673ffffffffffffffffffffffffffffffffffffffff166369328dec600360009054906101000a900473ffffffffffffffffffffffffffffffffffffffff1683306040518463ffffffff1660e01b815260040161068093929190611b76565b600060405180830381600087803b15801561069a57600080fd5b505af11580156106ae573d6000803e3d6000fd5b505050506107bf565b6002808111156106ca576106c96117f7565b5b600360149054906101000a900460ff1660028111156106ec576106eb6117f7565b5b0361078357600260009054906101000a900473ffffffffffffffffffffffffffffffffffffffff1673ffffffffffffffffffffffffffffffffffffffff1663db006a75826040518263ffffffff1660e01b815260040161074c91906117dc565b600060405180830381600087803b15801561076657600080fd5b505af115801561077a573d6000803e3d6000fd5b505050506107be565b6040517f08c379a00000000000000000000000000000000000000000000000000000000081526004016107b590611bf9565b60405180910390fd5b5b600360009054906101000a900473ffffffffffffffffffffffffffffffffffffffff1673ffffffffffffffffffffffffffffffffffffffff1663a9059cbb6108056110e0565b836040518363ffffffff1660e01b8152600401610823929190611c19565b6020604051808303816000875af1158015610842573d6000803e3d6000fd5b505050506040513d601f19601f820116820180604052508101906108669190611c7a565b503373ffffffffffffffffffffffffffffffffffffffff167f7084f5476618d8e60b11ef0d7d3f06914655adb8793e28ff7f018d4c76d505d5826040516108ad91906117dc565b60405180910390a250565b600360009054906101000a900473ffffffffffffffffffffffffffffffffffffffff1681565b600360149054906101000a900460ff1681565b6108f9611670565b61090360006116f7565b565b600061090f6103dc565b9050600360149054906101000a900460ff166002811115610933576109326117f7565b5b816002811115610946576109456117f7565b5b1480610985575060006002811115610961576109606117f7565b5b600360149054906101000a900460ff166002811115610983576109826117f7565b5b145b1561099057506110b8565b6000600160028111156109a6576109a56117f7565b5b600360149054906101000a900460ff1660028111156109c8576109c76117f7565b5b03610b5157600160009054906101000a900473ffffffffffffffffffffffffffffffffffffffff1673ffffffffffffffffffffffffffffffffffffffff1663d4fac45d30600360009054906101000a900473ffffffffffffffffffffffffffffffffffffffff166040518363ffffffff1660e01b8152600401610a4c929190611a8e565b602060405180830381865afa158015610a69573d6000803e3d6000fd5b505050506040513d601f19601f82011682018060405250810190610a8d9190611acc565b90506000811115610b4c57600160009054906101000a900473ffffffffffffffffffffffffffffffffffffffff1673ffffffffffffffffffffffffffffffffffffffff166369328dec600360009054906101000a900473ffffffffffffffffffffffffffffffffffffffff1683306040518463ffffffff1660e01b8152600401610b1993929190611b76565b600060405180830381600087803b158015610b3357600080fd5b505af1158015610b47573d6000803e3d6000fd5b505050505b610cc2565b600280811115610b6457610b636117f7565b5b600360149054906101000a900460ff166002811115610b8657610b856117f7565b5b03610cc157600260009054906101000a900473ffffffffffffffffffffffffffffffffffffffff1673ffffffffffffffffffffffffffffffffffffffff1663f8b2cb4f306040518263ffffffff1660e01b8152600401610be691906119de565b602060405180830381865afa158015610c03573d6000803e3d6000fd5b505050506040513d601f19601f82011682018060405250810190610c279190611acc565b90506000811115610cc057600260009054906101000a900473ffffffffffffffffffffffffffffffffffffffff1673ffffffffffffffffffffffffffffffffffffffff1663db006a75826040518263ffffffff1660e01b8152600401610c8d91906117dc565b600060405180830381600087803b158015610ca757600080fd5b505af1158015610cbb573d6000803e3d6000fd5b505050505b5b5b60008111156110b55760016002811115610cdf57610cde6117f7565b5b826002811115610cf257610cf16117f7565b5b03610ea057600360009054906101000a900473ffffffffffffffffffffffffffffffffffffffff1673ffffffffffffffffffffffffffffffffffffffff1663095ea7b3600160009054906101000a900473ffffffffffffffffffffffffffffffffffffffff16836040518363ffffffff1660e01b8152600401610d76929190611c19565b6020604051808303816000875af1158015610d95573d6000803e3d6000fd5b505050506040513d601f19601f82011682018060405250810190610db99190611c7a565b50600160009054906101000a900473ffffffffffffffffffffffffffffffffffffffff1673ffffffffffffffffffffffffffffffffffffffff1663e8eda9df600360009054906101000a900473ffffffffffffffffffffffffffffffffffffffff16833060006040518563ffffffff1660e01b8152600401610e3e9493929190611cc4565b600060405180830381600087803b158015610e5857600080fd5b505af1158015610e6c573d6000803e3d6000fd5b505050506001600360146101000a81548160ff02191690836002811115610e9657610e956117f7565b5b0217905550611040565b600360009054906101000a900473ffffffffffffffffffffffffffffffffffffffff1673ffffffffffffffffffffffffffffffffffffffff1663095ea7b3600260009054906101000a900473ffffffffffffffffffffffffffffffffffffffff16836040518363ffffffff1660e01b8152600401610f1f929190611c19565b6020604051808303816000875af1158015610f3e573d6000803e3d6000fd5b505050506040513d601f19601f82011682018060405250810190610f629190611c7a565b50600260009054906101000a900473ffffffffffffffffffffffffffffffffffffffff1673ffffffffffffffffffffffffffffffffffffffff1663f2b9fdb8600360009054906101000a900473ffffffffffffffffffffffffffffffffffffffff16836040518363ffffffff1660e01b8152600401610fe2929190611c19565b600060405180830381600087803b158015610ffc57600080fd5b505af1158015611010573d6000803e3d6000fd5b505050506002600360146101000a81548160ff0219169083600281111561103a576110396117f7565b5b02179055505b7f7ce8fc55bb7c62de108767205b2428d9d6332edf725a22950a6e3513631f2ce9600360149054906101000a900460ff16838360405161108293929190611d09565b60405180910390a181600360146101000a81548160ff021916908360028111156110af576110ae6117f7565b5b02179055505b50505b565b600160009054906101000a900473ffffffffffffffffffffffffffffffffffffffff1681565b60008060009054906101000a900473ffffffffffffffffffffffffffffffffffffffff16905090565b6000811161114c576040517f08c379a000000000000000000000000000000000000000000000000000000000815260040161114390611b56565b60405180910390fd5b600360009054906101000a900473ffffffffffffffffffffffffffffffffffffffff1673ffffffffffffffffffffffffffffffffffffffff166323b872dd3330846040518463ffffffff1660e01b81526004016111ab93929190611d40565b6020604051808303816000875af11580156111ca573d6000803e3d6000fd5b505050506040513d601f19601f820116820180604052508101906111ee9190611c7a565b5060006111f96103dc565b90506001600281111561120f5761120e6117f7565b5b816002811115611222576112216117f7565b5b036113d057600360009054906101000a900473ffffffffffffffffffffffffffffffffffffffff1673ffffffffffffffffffffffffffffffffffffffff1663095ea7b3600160009054906101000a900473ffffffffffffffffffffffffffffffffffffffff16846040518363ffffffff1660e01b81526004016112a6929190611c19565b6020604051808303816000875af11580156112c5573d6000803e3d6000fd5b505050506040513d601f19601f820116820180604052508101906112e99190611c7a565b50600160009054906101000a900473ffffffffffffffffffffffffffffffffffffffff1673ffffffffffffffffffffffffffffffffffffffff1663e8eda9df600360009054906101000a900473ffffffffffffffffffffffffffffffffffffffff16843060006040518563ffffffff1660e01b815260040161136e9493929190611cc4565b600060405180830381600087803b15801561138857600080fd5b505af115801561139c573d6000803e3d6000fd5b505050506001600360146101000a81548160ff021916908360028111156113c6576113c56117f7565b5b0217905550611570565b600360009054906101000a900473ffffffffffffffffffffffffffffffffffffffff1673ffffffffffffffffffffffffffffffffffffffff1663095ea7b3600260009054906101000a900473ffffffffffffffffffffffffffffffffffffffff16846040518363ffffffff1660e01b815260040161144f929190611c19565b6020604051808303816000875af115801561146e573d6000803e3d6000fd5b505050506040513d601f19601f820116820180604052508101906114929190611c7a565b50600260009054906101000a900473ffffffffffffffffffffffffffffffffffffffff1673ffffffffffffffffffffffffffffffffffffffff1663f2b9fdb8600360009054906101000a900473ffffffffffffffffffffffffffffffffffffffff16846040518363ffffffff1660e01b8152600401611512929190611c19565b600060405180830381600087803b15801561152c57600080fd5b505af1158015611540573d6000803e3d6000fd5b505050506002600360146101000a81548160ff0219169083600281111561156a576115696117f7565b5b02179055505b3373ffffffffffffffffffffffffffffffffffffffff167f68ef9715adf17aacc9d4ab13dbff6ecd13ea4916b4a6c98416a0c2789e1b9d5283836040516115b8929190611d77565b60405180910390a25050565b6115cc611670565b600073ffffffffffffffffffffffffffffffffffffffff168173ffffffffffffffffffffffffffffffffffffffff160361163e5760006040517f1e4fbdf700000000000000000000000000000000000000000000000000000000815260040161163591906119de565b60405180910390fd5b611647816116f7565b50565b600260009054906101000a900473ffffffffffffffffffffffffffffffffffffffff1681565b6116786117bb565b73ffffffffffffffffffffffffffffffffffffffff166116966110e0565b73ffffffffffffffffffffffffffffffffffffffff16146116f5576116b96117bb565b6040517f118cdaa70000000000000000000000000000000000000000000000000000000081526004016116ec91906119de565b60405180910390fd5b565b60008060009054906101000a900473ffffffffffffffffffffffffffffffffffffffff169050816000806101000a81548173ffffffffffffffffffffffffffffffffffffffff021916908373ffffffffffffffffffffffffffffffffffffffff1602179055508173ffffffffffffffffffffffffffffffffffffffff168173ffffffffffffffffffffffffffffffffffffffff167f8be0079c531659141344cd1fd0a4f28419497f9722a3daafe3b4186f6b6457e060405160405180910390a35050565b600033905090565b6000819050919050565b6117d6816117c3565b82525050565b60006020820190506117f160008301846117cd565b92915050565b7f4e487b7100000000000000000000000000000000000000000000000000000000600052602160045260246000fd5b60038110611837576118366117f7565b5b50565b600081905061184882611826565b919050565b60006118588261183a565b9050919050565b6118688161184d565b82525050565b6000602082019050611883600083018461185f565b92915050565b600080fd5b611897816117c3565b81146118a257600080fd5b50565b6000813590506118b48161188e565b92915050565b6000602082840312156118d0576118cf611889565b5b60006118de848285016118a5565b91505092915050565b600073ffffffffffffffffffffffffffffffffffffffff82169050919050565b6000819050919050565b600061192c611927611922846118e7565b611907565b6118e7565b9050919050565b600061193e82611911565b9050919050565b600061195082611933565b9050919050565b61196081611945565b82525050565b600060208201905061197b6000830184611957565b92915050565b600061198c82611933565b9050919050565b61199c81611981565b82525050565b60006020820190506119b76000830184611993565b92915050565b60006119c8826118e7565b9050919050565b6119d8816119bd565b82525050565b60006020820190506119f360008301846119cf565b92915050565b611a02816119bd565b8114611a0d57600080fd5b50565b600081359050611a1f816119f9565b92915050565b600060208284031215611a3b57611a3a611889565b5b6000611a4984828501611a10565b91505092915050565b6000611a5d82611933565b9050919050565b611a6d81611a52565b82525050565b6000602082019050611a886000830184611a64565b92915050565b6000604082019050611aa360008301856119cf565b611ab060208301846119cf565b9392505050565b600081519050611ac68161188e565b92915050565b600060208284031215611ae257611ae1611889565b5b6000611af084828501611ab7565b91505092915050565b600082825260208201905092915050565b7f416d6f756e74206d7573742062652067726561746572207468616e2030000000600082015250565b6000611b40601d83611af9565b9150611b4b82611b0a565b602082019050919050565b60006020820190508181036000830152611b6f81611b33565b9050919050565b6000606082019050611b8b60008301866119cf565b611b9860208301856117cd565b611ba560408301846119cf565b949350505050565b7f4e6f2066756e6473206465706f73697465640000000000000000000000000000600082015250565b6000611be3601283611af9565b9150611bee82611bad565b602082019050919050565b60006020820190508181036000830152611c1281611bd6565b9050919050565b6000604082019050611c2e60008301856119cf565b611c3b60208301846117cd565b9392505050565b60008115159050919050565b611c5781611c42565b8114611c6257600080fd5b50565b600081519050611c7481611c4e565b92915050565b600060208284031215611c9057611c8f611889565b5b6000611c9e84828501611c65565b91505092915050565b600061ffff82169050919050565b611cbe81611ca7565b82525050565b6000608082019050611cd960008301876119cf565b611ce660208301866117cd565b611cf360408301856119cf565b611d006060830184611cb5565b95945050505050565b6000606082019050611d1e600083018661185f565b611d2b602083018561185f565b611d3860408301846117cd565b949350505050565b6000606082019050611d5560008301866119cf565b611d6260208301856119cf565b611d6f60408301846117cd565b949350505050565b6000604082019050611d8c60008301856117cd565b611d99602083018461185f565b939250505056fea2646970667358221220de6ed82543d8794aadc9b6ac6c98dcffa5c5be809b636bd006320f0592edcda264736f6c63430008140033",
  "linkReferences": {},
  "deployedLinkReferences": {}
}