{
  "_format": "hh-sol-artifact-1",
  "contractName": "YieldOptimizer",
  "sourceName": "contracts/YieldOptimizer.sol",
  "abi": [
    {
      "inputs": [
        {
          "internalType": "address",
          "name": "_aave",
          "type": "address"
        },
        {
          "internalType": "address",
          "name": "_compound",
          "type": "address"
        },
        {
          "internalType": "address",
          "name": "_usdc",
          "type": "address"
        }
      ],
      "stateMutability": "nonpayable",
      "type": "constructor"
    },
    {
      "inputs": [
        {
          "internalType": "address",
          "name": "owner",
          "type": "address"
        }
      ],
      "name": "OwnableInvalidOwner",
      "type": "error"
    },
    {
      "inputs": [
        {
          "internalType": "address",
          "name": "account",
          "type": "address"
        }
      ],
      "name": "OwnableUnauthorizedAccount",
      "type": "error"
    },
    {
      "anonymous": false,
      "inputs": [
        {
          "indexed": true,
          "internalType": "address",
          "name": "user",
          "type": "address"
        },
        {
          "indexed": false,
          "internalType": "uint256",
          "name": "amount",
          "type": "uint256"
        },
        {
          "indexed": false,
          "internalType": "enum YieldOptimizer.Protocol",
          "name": "protocol",
          "type": "uint8"
        }
      ],
      "name": "Deposited",
      "type": "event"
    },
    {
      "anonymous": false,
      "inputs": [
        {
          "indexed": false,
          "internalType": "string",
          "name": "message",
          "type": "string"
        },
        {
          "indexed": false,
          "internalType": "uint256",
          "name": "value",
          "type": "uint256"
        }
      ],
      "name": "Log",
      "type": "event"
    },
    {
      "anonymous": false,
      "inputs": [
        {
          "indexed": true,
          "internalType": "address",
          "name": "previousOwner",
          "type": "address"
        },
        {
          "indexed": true,
          "internalType": "address",
          "name": "newOwner",
          "type": "address"
        }
      ],
      "name": "OwnershipTransferred",
      "type": "event"
    },
    {
      "anonymous": false,
      "inputs": [
        {
          "indexed": false,
          "internalType": "enum YieldOptimizer.Protocol",
          "name": "from",
          "type": "uint8"
        },
        {
          "indexed": false,
          "internalType": "enum YieldOptimizer.Protocol",
          "name": "to",
          "type": "uint8"
        },
        {
          "indexed": false,
          "internalType": "uint256",
          "name": "amount",
          "type": "uint256"
        }
      ],
      "name": "Rebalanced",
      "type": "event"
    },
    {
      "anonymous": false,
      "inputs": [
        {
          "indexed": true,
          "internalType": "address",
          "name": "user",
          "type": "address"
        },
        {
          "indexed": false,
          "internalType": "uint256",
          "name": "amount",
          "type": "uint256"
        }
      ],
      "name": "Withdrawn",
      "type": "event"
    },
    {
      "inputs": [],
      "name": "aave",
      "outputs": [
        {
          "internalType": "contract IAaveV3",
          "name": "",
          "type": "address"
        }
      ],
      "stateMutability": "view",
      "type": "function"
    },
    {
      "inputs": [],
      "name": "compound",
      "outputs": [
        {
          "internalType": "contract ICompoundV3",
          "name": "",
          "type": "address"
        }
      ],
      "stateMutability": "view",
      "type": "function"
    },
    {
      "inputs": [],
      "name": "currentProtocol",
      "outputs": [
        {
          "internalType": "enum YieldOptimizer.Protocol",
          "name": "",
          "type": "uint8"
        }
      ],
      "stateMutability": "view",
      "type": "function"
    },
    {
      "inputs": [
        {
          "internalType": "uint256",
          "name": "amount",
          "type": "uint256"
        }
      ],
      "name": "deposit",
      "outputs": [],
      "stateMutability": "nonpayable",
      "type": "function"
    },
    {
      "inputs": [],
      "name": "getBestProtocol",
      "outputs": [
        {
          "internalType": "enum YieldOptimizer.Protocol",
          "name": "",
          "type": "uint8"
        }
      ],
      "stateMutability": "view",
      "type": "function"
    },
    {
      "inputs": [],
      "name": "getTotalBalance",
      "outputs": [
        {
          "internalType": "uint256",
          "name": "",
          "type": "uint256"
        }
      ],
      "stateMutability": "view",
      "type": "function"
    },
    {
      "inputs": [],
      "name": "owner",
      "outputs": [
        {
          "internalType": "address",
          "name": "",
          "type": "address"
        }
      ],
      "stateMutability": "view",
      "type": "function"
    },
    {
      "inputs": [],
      "name": "rebalance",
      "outputs": [],
      "stateMutability": "nonpayable",
      "type": "function"
    },
    {
      "inputs": [],
      "name": "renounceOwnership",
      "outputs": [],
      "stateMutability": "nonpayable",
      "type": "function"
    },
    {
      "inputs": [
        {
          "internalType": "address",
          "name": "newOwner",
          "type": "address"
        }
      ],
      "name": "transferOwnership",
      "outputs": [],
      "stateMutability": "nonpayable",
      "type": "function"
    },
    {
      "inputs": [],
      "name": "usdc",
      "outputs": [
        {
          "internalType": "contract IERC20",
          "name": "",
          "type": "address"
        }
      ],
      "stateMutability": "view",
      "type": "function"
    },
    {
      "inputs": [
        {
          "internalType": "uint256",
          "name": "amount",
          "type": "uint256"
        }
      ],
      "name": "withdraw",
      "outputs": [],
      "stateMutability": "nonpayable",
      "type": "function"
    }
  ],
  "bytecode": "0x60806040523480156200001157600080fd5b5060405162002425380380620024258339818101604052810190620000379190620002e7565b33600073ffffffffffffffffffffffffffffffffffffffff168173ffffffffffffffffffffffffffffffffffffffff1603620000ad5760006040517f1e4fbdf7000000000000000000000000000000000000000000000000000000008152600401620000a4919062000354565b60405180910390fd5b620000be81620001b960201b60201c565b5082600160006101000a81548173ffffffffffffffffffffffffffffffffffffffff021916908373ffffffffffffffffffffffffffffffffffffffff16021790555081600260006101000a81548173ffffffffffffffffffffffffffffffffffffffff021916908373ffffffffffffffffffffffffffffffffffffffff16021790555080600360006101000a81548173ffffffffffffffffffffffffffffffffffffffff021916908373ffffffffffffffffffffffffffffffffffffffff1602179055506000600360146101000a81548160ff02191690836002811115620001ab57620001aa62000371565b5b0217905550505050620003a0565b60008060009054906101000a900473ffffffffffffffffffffffffffffffffffffffff169050816000806101000a81548173ffffffffffffffffffffffffffffffffffffffff021916908373ffffffffffffffffffffffffffffffffffffffff1602179055508173ffffffffffffffffffffffffffffffffffffffff168173ffffffffffffffffffffffffffffffffffffffff167f8be0079c531659141344cd1fd0a4f28419497f9722a3daafe3b4186f6b6457e060405160405180910390a35050565b600080fd5b600073ffffffffffffffffffffffffffffffffffffffff82169050919050565b6000620002af8262000282565b9050919050565b620002c181620002a2565b8114620002cd57600080fd5b50565b600081519050620002e181620002b6565b92915050565b6000806000606084860312156200030357620003026200027d565b5b60006200031386828701620002d0565b93505060206200032686828701620002d0565b92505060406200033986828701620002d0565b9150509250925092565b6200034e81620002a2565b82525050565b60006020820190506200036b600083018462000343565b92915050565b7f4e487b7100000000000000000000000000000000000000000000000000000000600052602160045260246000fd5b61207580620003b06000396000f3fe608060405234801561001057600080fd5b50600436106100b45760003560e01c80637d7c2a1c116100715780637d7c2a1c14610157578063819faf7b146101615780638da5cb5b1461017f578063b6b55f251461019d578063f2fde38b146101b9578063f69e2046146101d5576100b4565b806312b58349146100b95780632aefb3a4146100d75780632e1a7d4d146100f55780633e413bee1461011157806351e193661461012f578063715018a61461014d575b600080fd5b6100c16101f3565b6040516100ce9190611893565b60405180910390f35b6100df6103dc565b6040516100ec9190611925565b60405180910390f35b61010f600480360381019061010a9190611971565b610579565b005b6101196108b8565b6040516101269190611a1d565b60405180910390f35b6101376108de565b6040516101449190611925565b60405180910390f35b6101556108f1565b005b61015f610905565b005b610169611171565b6040516101769190611a59565b60405180910390f35b610187611197565b6040516101949190611a95565b60405180910390f35b6101b760048036038101906101b29190611971565b6111c0565b005b6101d360048036038101906101ce9190611adc565b61167b565b005b6101dd611701565b6040516101ea9190611b2a565b60405180910390f35b600060016002811115610209576102086118ae565b5b600360149054906101000a900460ff16600281111561022b5761022a6118ae565b5b036102f757600160009054906101000a900473ffffffffffffffffffffffffffffffffffffffff1673ffffffffffffffffffffffffffffffffffffffff1663d4fac45d30600360009054906101000a900473ffffffffffffffffffffffffffffffffffffffff166040518363ffffffff1660e01b81526004016102af929190611b45565b602060405180830381865afa1580156102cc573d6000803e3d6000fd5b505050506040513d601f19601f820116820180604052508101906102f09190611b83565b90506103d9565b60028081111561030a576103096118ae565b5b600360149054906101000a900460ff16600281111561032c5761032b6118ae565b5b036103d457600260009054906101000a900473ffffffffffffffffffffffffffffffffffffffff1673ffffffffffffffffffffffffffffffffffffffff1663f8b2cb4f306040518263ffffffff1660e01b815260040161038c9190611a95565b602060405180830381865afa1580156103a9573d6000803e3d6000fd5b505050506040513d601f19601f820116820180604052508101906103cd9190611b83565b90506103d9565b600090505b90565b600080600160009054906101000a900473ffffffffffffffffffffffffffffffffffffffff1673ffffffffffffffffffffffffffffffffffffffff1663d3ea0f89600360009054906101000a900473ffffffffffffffffffffffffffffffffffffffff166040518263ffffffff1660e01b815260040161045c9190611a95565b602060405180830381865afa158015610479573d6000803e3d6000fd5b505050506040513d601f19601f8201168201806040525081019061049d9190611b83565b90506000600260009054906101000a900473ffffffffffffffffffffffffffffffffffffffff1673ffffffffffffffffffffffffffffffffffffffff16636b5441a9600360009054906101000a900473ffffffffffffffffffffffffffffffffffffffff166040518263ffffffff1660e01b815260040161051e9190611a95565b602060405180830381865afa15801561053b573d6000803e3d6000fd5b505050506040513d601f19601f8201168201806040525081019061055f9190611b83565b905080821161056f576002610572565b60015b9250505090565b610581611727565b600081116105c4576040517f08c379a00000000000000000000000000000000000000000000000000000000081526004016105bb90611c0d565b60405180910390fd5b600160028111156105d8576105d76118ae565b5b600360149054906101000a900460ff1660028111156105fa576105f96118ae565b5b036106b757600160009054906101000a900473ffffffffffffffffffffffffffffffffffffffff1673ffffffffffffffffffffffffffffffffffffffff166369328dec600360009054906101000a900473ffffffffffffffffffffffffffffffffffffffff1683306040518463ffffffff1660e01b815260040161068093929190611c2d565b600060405180830381600087803b15801561069a57600080fd5b505af11580156106ae573d6000803e3d6000fd5b505050506107bf565b6002808111156106ca576106c96118ae565b5b600360149054906101000a900460ff1660028111156106ec576106eb6118ae565b5b0361078357600260009054906101000a900473ffffffffffffffffffffffffffffffffffffffff1673ffffffffffffffffffffffffffffffffffffffff1663db006a75826040518263ffffffff1660e01b815260040161074c9190611893565b600060405180830381600087803b15801561076657600080fd5b505af115801561077a573d6000803e3d6000fd5b505050506107be565b6040517f08c379a00000000000000000000000000000000000000000000000000000000081526004016107b590611cb0565b60405180910390fd5b5b600360009054906101000a900473ffffffffffffffffffffffffffffffffffffffff1673ffffffffffffffffffffffffffffffffffffffff1663a9059cbb610805611197565b836040518363ffffffff1660e01b8152600401610823929190611cd0565b6020604051808303816000875af1158015610842573d6000803e3d6000fd5b505050506040513d601f19601f820116820180604052508101906108669190611d31565b503373ffffffffffffffffffffffffffffffffffffffff167f7084f5476618d8e60b11ef0d7d3f06914655adb8793e28ff7f018d4c76d505d5826040516108ad9190611893565b60405180910390a250565b600360009054906101000a900473ffffffffffffffffffffffffffffffffffffffff1681565b600360149054906101000a900460ff1681565b6108f9611727565b61090360006117ae565b565b600061090f6103dc565b9050600360149054906101000a900460ff166002811115610933576109326118ae565b5b816002811115610946576109456118ae565b5b1480610985575060006002811115610961576109606118ae565b5b600360149054906101000a900460ff166002811115610983576109826118ae565b5b145b15610990575061116f565b600080600360149054906101000a900460ff169050600160028111156109b9576109b86118ae565b5b600360149054906101000a900460ff1660028111156109db576109da6118ae565b5b03610b9b57600160009054906101000a900473ffffffffffffffffffffffffffffffffffffffff1673ffffffffffffffffffffffffffffffffffffffff1663d4fac45d30600360009054906101000a900473ffffffffffffffffffffffffffffffffffffffff166040518363ffffffff1660e01b8152600401610a5f929190611b45565b602060405180830381865afa158015610a7c573d6000803e3d6000fd5b505050506040513d601f19601f82011682018060405250810190610aa09190611b83565b91506000821115610b9657600160009054906101000a900473ffffffffffffffffffffffffffffffffffffffff1673ffffffffffffffffffffffffffffffffffffffff166369328dec600360009054906101000a900473ffffffffffffffffffffffffffffffffffffffff1684306040518463ffffffff1660e01b8152600401610b2c93929190611c2d565b600060405180830381600087803b158015610b4657600080fd5b505af1158015610b5a573d6000803e3d6000fd5b505050507fdd970dd9b5bfe707922155b058a407655cb18288b807e2216442bca8ad83d6b582604051610b8d9190611daa565b60405180910390a15b610d43565b600280811115610bae57610bad6118ae565b5b600360149054906101000a900460ff166002811115610bd057610bcf6118ae565b5b03610d4257600260009054906101000a900473ffffffffffffffffffffffffffffffffffffffff1673ffffffffffffffffffffffffffffffffffffffff1663f8b2cb4f306040518263ffffffff1660e01b8152600401610c309190611a95565b602060405180830381865afa158015610c4d573d6000803e3d6000fd5b505050506040513d601f19601f82011682018060405250810190610c719190611b83565b91506000821115610d4157600260009054906101000a900473ffffffffffffffffffffffffffffffffffffffff1673ffffffffffffffffffffffffffffffffffffffff1663db006a75836040518263ffffffff1660e01b8152600401610cd79190611893565b600060405180830381600087803b158015610cf157600080fd5b505af1158015610d05573d6000803e3d6000fd5b505050507fdd970dd9b5bfe707922155b058a407655cb18288b807e2216442bca8ad83d6b582604051610d389190611e24565b60405180910390a15b5b5b600082111561116b5760016002811115610d6057610d5f6118ae565b5b836002811115610d7357610d726118ae565b5b03610f5857600360009054906101000a900473ffffffffffffffffffffffffffffffffffffffff1673ffffffffffffffffffffffffffffffffffffffff1663095ea7b3600160009054906101000a900473ffffffffffffffffffffffffffffffffffffffff16846040518363ffffffff1660e01b8152600401610df7929190611cd0565b6020604051808303816000875af1158015610e16573d6000803e3d6000fd5b505050506040513d601f19601f82011682018060405250810190610e3a9190611d31565b50600160009054906101000a900473ffffffffffffffffffffffffffffffffffffffff1673ffffffffffffffffffffffffffffffffffffffff1663e8eda9df600360009054906101000a900473ffffffffffffffffffffffffffffffffffffffff16843060006040518563ffffffff1660e01b8152600401610ebf9493929190611e6f565b600060405180830381600087803b158015610ed957600080fd5b505af1158015610eed573d6000803e3d6000fd5b505050506001600360146101000a81548160ff02191690836002811115610f1757610f166118ae565b5b02179055507fdd970dd9b5bfe707922155b058a407655cb18288b807e2216442bca8ad83d6b582604051610f4b9190611f00565b60405180910390a161112f565b600360009054906101000a900473ffffffffffffffffffffffffffffffffffffffff1673ffffffffffffffffffffffffffffffffffffffff1663095ea7b3600260009054906101000a900473ffffffffffffffffffffffffffffffffffffffff16846040518363ffffffff1660e01b8152600401610fd7929190611cd0565b6020604051808303816000875af1158015610ff6573d6000803e3d6000fd5b505050506040513d601f19601f8201168201806040525081019061101a9190611d31565b50600260009054906101000a900473ffffffffffffffffffffffffffffffffffffffff1673ffffffffffffffffffffffffffffffffffffffff1663f2b9fdb8600360009054906101000a900473ffffffffffffffffffffffffffffffffffffffff16846040518363ffffffff1660e01b815260040161109a929190611cd0565b600060405180830381600087803b1580156110b457600080fd5b505af11580156110c8573d6000803e3d6000fd5b505050506002600360146101000a81548160ff021916908360028111156110f2576110f16118ae565b5b02179055507fdd970dd9b5bfe707922155b058a407655cb18288b807e2216442bca8ad83d6b5826040516111269190611f7a565b60405180910390a15b7f7ce8fc55bb7c62de108767205b2428d9d6332edf725a22950a6e3513631f2ce981848460405161116293929190611fa8565b60405180910390a15b5050505b565b600160009054906101000a900473ffffffffffffffffffffffffffffffffffffffff1681565b60008060009054906101000a900473ffffffffffffffffffffffffffffffffffffffff16905090565b60008111611203576040517f08c379a00000000000000000000000000000000000000000000000000000000081526004016111fa90611c0d565b60405180910390fd5b600360009054906101000a900473ffffffffffffffffffffffffffffffffffffffff1673ffffffffffffffffffffffffffffffffffffffff166323b872dd3330846040518463ffffffff1660e01b815260040161126293929190611fdf565b6020604051808303816000875af1158015611281573d6000803e3d6000fd5b505050506040513d601f19601f820116820180604052508101906112a59190611d31565b5060006112b06103dc565b9050600160028111156112c6576112c56118ae565b5b8160028111156112d9576112d86118ae565b5b0361148757600360009054906101000a900473ffffffffffffffffffffffffffffffffffffffff1673ffffffffffffffffffffffffffffffffffffffff1663095ea7b3600160009054906101000a900473ffffffffffffffffffffffffffffffffffffffff16846040518363ffffffff1660e01b815260040161135d929190611cd0565b6020604051808303816000875af115801561137c573d6000803e3d6000fd5b505050506040513d601f19601f820116820180604052508101906113a09190611d31565b50600160009054906101000a900473ffffffffffffffffffffffffffffffffffffffff1673ffffffffffffffffffffffffffffffffffffffff1663e8eda9df600360009054906101000a900473ffffffffffffffffffffffffffffffffffffffff16843060006040518563ffffffff1660e01b81526004016114259493929190611e6f565b600060405180830381600087803b15801561143f57600080fd5b505af1158015611453573d6000803e3d6000fd5b505050506001600360146101000a81548160ff0219169083600281111561147d5761147c6118ae565b5b0217905550611627565b600360009054906101000a900473ffffffffffffffffffffffffffffffffffffffff1673ffffffffffffffffffffffffffffffffffffffff1663095ea7b3600260009054906101000a900473ffffffffffffffffffffffffffffffffffffffff16846040518363ffffffff1660e01b8152600401611506929190611cd0565b6020604051808303816000875af1158015611525573d6000803e3d6000fd5b505050506040513d601f19601f820116820180604052508101906115499190611d31565b50600260009054906101000a900473ffffffffffffffffffffffffffffffffffffffff1673ffffffffffffffffffffffffffffffffffffffff1663f2b9fdb8600360009054906101000a900473ffffffffffffffffffffffffffffffffffffffff16846040518363ffffffff1660e01b81526004016115c9929190611cd0565b600060405180830381600087803b1580156115e357600080fd5b505af11580156115f7573d6000803e3d6000fd5b505050506002600360146101000a81548160ff02191690836002811115611621576116206118ae565b5b02179055505b3373ffffffffffffffffffffffffffffffffffffffff167f68ef9715adf17aacc9d4ab13dbff6ecd13ea4916b4a6c98416a0c2789e1b9d52838360405161166f929190612016565b60405180910390a25050565b611683611727565b600073ffffffffffffffffffffffffffffffffffffffff168173ffffffffffffffffffffffffffffffffffffffff16036116f55760006040517f1e4fbdf70000000000000000000000000000000000000000000000000000000081526004016116ec9190611a95565b60405180910390fd5b6116fe816117ae565b50565b600260009054906101000a900473ffffffffffffffffffffffffffffffffffffffff1681565b61172f611872565b73ffffffffffffffffffffffffffffffffffffffff1661174d611197565b73ffffffffffffffffffffffffffffffffffffffff16146117ac57611770611872565b6040517f118cdaa70000000000000000000000000000000000000000000000000000000081526004016117a39190611a95565b60405180910390fd5b565b60008060009054906101000a900473ffffffffffffffffffffffffffffffffffffffff169050816000806101000a81548173ffffffffffffffffffffffffffffffffffffffff021916908373ffffffffffffffffffffffffffffffffffffffff1602179055508173ffffffffffffffffffffffffffffffffffffffff168173ffffffffffffffffffffffffffffffffffffffff167f8be0079c531659141344cd1fd0a4f28419497f9722a3daafe3b4186f6b6457e060405160405180910390a35050565b600033905090565b6000819050919050565b61188d8161187a565b82525050565b60006020820190506118a86000830184611884565b92915050565b7f4e487b7100000000000000000000000000000000000000000000000000000000600052602160045260246000fd5b600381106118ee576118ed6118ae565b5b50565b60008190506118ff826118dd565b919050565b600061190f826118f1565b9050919050565b61191f81611904565b82525050565b600060208201905061193a6000830184611916565b92915050565b600080fd5b61194e8161187a565b811461195957600080fd5b50565b60008135905061196b81611945565b92915050565b60006020828403121561198757611986611940565b5b60006119958482850161195c565b91505092915050565b600073ffffffffffffffffffffffffffffffffffffffff82169050919050565b6000819050919050565b60006119e36119de6119d98461199e565b6119be565b61199e565b9050919050565b60006119f5826119c8565b9050919050565b6000611a07826119ea565b9050919050565b611a17816119fc565b82525050565b6000602082019050611a326000830184611a0e565b92915050565b6000611a43826119ea565b9050919050565b611a5381611a38565b82525050565b6000602082019050611a6e6000830184611a4a565b92915050565b6000611a7f8261199e565b9050919050565b611a8f81611a74565b82525050565b6000602082019050611aaa6000830184611a86565b92915050565b611ab981611a74565b8114611ac457600080fd5b50565b600081359050611ad681611ab0565b92915050565b600060208284031215611af257611af1611940565b5b6000611b0084828501611ac7565b91505092915050565b6000611b14826119ea565b9050919050565b611b2481611b09565b82525050565b6000602082019050611b3f6000830184611b1b565b92915050565b6000604082019050611b5a6000830185611a86565b611b676020830184611a86565b9392505050565b600081519050611b7d81611945565b92915050565b600060208284031215611b9957611b98611940565b5b6000611ba784828501611b6e565b91505092915050565b600082825260208201905092915050565b7f416d6f756e74206d7573742062652067726561746572207468616e2030000000600082015250565b6000611bf7601d83611bb0565b9150611c0282611bc1565b602082019050919050565b60006020820190508181036000830152611c2681611bea565b9050919050565b6000606082019050611c426000830186611a86565b611c4f6020830185611884565b611c5c6040830184611a86565b949350505050565b7f4e6f2066756e6473206465706f73697465640000000000000000000000000000600082015250565b6000611c9a601283611bb0565b9150611ca582611c64565b602082019050919050565b60006020820190508181036000830152611cc981611c8d565b9050919050565b6000604082019050611ce56000830185611a86565b611cf26020830184611884565b9392505050565b60008115159050919050565b611d0e81611cf9565b8114611d1957600080fd5b50565b600081519050611d2b81611d05565b92915050565b600060208284031215611d4757611d46611940565b5b6000611d5584828501611d1c565b91505092915050565b7f57697468647265772066726f6d20414156453a00000000000000000000000000600082015250565b6000611d94601383611bb0565b9150611d9f82611d5e565b602082019050919050565b60006040820190508181036000830152611dc381611d87565b9050611dd26020830184611884565b92915050565b7f52656465656d65642066726f6d20436f6d706f756e643a000000000000000000600082015250565b6000611e0e601783611bb0565b9150611e1982611dd8565b602082019050919050565b60006040820190508181036000830152611e3d81611e01565b9050611e4c6020830184611884565b92915050565b600061ffff82169050919050565b611e6981611e52565b82525050565b6000608082019050611e846000830187611a86565b611e916020830186611884565b611e9e6040830185611a86565b611eab6060830184611e60565b95945050505050565b7f4465706f736974656420746f20414156453a0000000000000000000000000000600082015250565b6000611eea601283611bb0565b9150611ef582611eb4565b602082019050919050565b60006040820190508181036000830152611f1981611edd565b9050611f286020830184611884565b92915050565b7f4465706f736974656420746f20436f6d706f756e643a00000000000000000000600082015250565b6000611f64601683611bb0565b9150611f6f82611f2e565b602082019050919050565b60006040820190508181036000830152611f9381611f57565b9050611fa26020830184611884565b92915050565b6000606082019050611fbd6000830186611916565b611fca6020830185611916565b611fd76040830184611884565b949350505050565b6000606082019050611ff46000830186611a86565b6120016020830185611a86565b61200e6040830184611884565b949350505050565b600060408201905061202b6000830185611884565b6120386020830184611916565b939250505056fea2646970667358221220a1178e55adca14c518e30997f26ec92ef41f1e2bec42c475eac575e7799b13cd64736f6c63430008140033",
  "linkReferences": {},
  "deployedLinkReferences": {}
}