{"contracts/mocks/MockCompoundV3.sol":{"MockCompoundV3":{"abi":[{"inputs":[],"name":"accrueInterest","outputs":[],"stateMutability":"nonpayable","type":"function"},{"inputs":[],"name":"defaultAsset","outputs":[{"internalType":"address","name":"","type":"address"}],"stateMutability":"view","type":"function"},{"inputs":[{"internalType":"address","name":"user","type":"address"}],"name":"getBalance","outputs":[{"internalType":"uint256","name":"","type":"uint256"}],"stateMutability":"view","type":"function"},{"inputs":[{"internalType":"address","name":"asset","type":"address"}],"name":"getSupplyRate","outputs":[{"internalType":"uint256","name":"","type":"uint256"}],"stateMutability":"view","type":"function"},{"inputs":[{"internalType":"uint256","name":"amount","type":"uint256"}],"name":"redeem","outputs":[],"stateMutability":"nonpayable","type":"function"},{"inputs":[{"internalType":"address","name":"asset","type":"address"},{"internalType":"uint256","name":"rate","type":"uint256"}],"name":"setSupplyRate","outputs":[],"stateMutability":"nonpayable","type":"function"},{"inputs":[{"internalType":"address","name":"asset","type":"address"},{"internalType":"uint256","name":"amount","type":"uint256"}],"name":"supply","outputs":[],"stateMutability":"nonpayable","type":"function"}],"evm":{"bytecode":{"linkReferences":{},"object":"608080604052346100165761040d908161001c8239f35b600080fdfe608060408181526004918236101561001657600080fd5b600092833560e01c9182636b5441a914610338575081637b20c8f41461030f578163a6afed95146102f8578163d3fe312e146102c4578163db006a7514610192578163f2b9fdb8146100ab575063f8b2cb4f1461007257600080fd5b346100a75760203660031901126100a75760209181906001600160a01b0361009861036c565b16815280845220549051908152f35b5080fd5b90503461018e578160031936011261018e576100c561036c565b906024359060018060a01b038093169380516323b872dd60e01b815233838201523060248201528360448201526020816064818a8a5af1801561018457610156575b503386528560205285209081549283018093116101435750556002549081161561012f578280f35b6001600160a01b0319161760025538808280f35b634e487b7160e01b865260119052602485fd5b6101769060203d811161017d575b61016e8183610387565b8101906103bf565b5038610107565b503d610164565b82513d89823e3d90fd5b8280fd5b90503461018e57602091826003193601126102c0578135338552848452808286205410610287576002546001600160a01b03169283156102515733865285855282862080549083820391821161023e579160449187949355878551968794859363a9059cbb60e01b8552339085015260248401525af19081156102355750610218578280f35b8161022e92903d1061017d5761016e8183610387565b5038808280f35b513d85823e3d90fd5b634e487b7160e01b885260118352602488fd5b825162461bcd60e51b8152908101859052601060248201526f139bc8185cdcd95d081919599a5b995960821b6044820152606490fd5b5091606492519162461bcd60e51b83528201526014602482015273496e73756666696369656e742062616c616e636560601b6044820152fd5b8380fd5b5050346100a757806003193601126100a7576001600160a01b036102e661036c565b16825260016020526024359082205580f35b833461030c578060031936011261030c5780f35b80fd5b5050346100a757816003193601126100a75760025490516001600160a01b039091168152602090f35b8490843461018e57602036600319011261018e576020926001600160a01b0361035f61036c565b1681526001845220548152f35b600435906001600160a01b038216820361038257565b600080fd5b90601f8019910116810190811067ffffffffffffffff8211176103a957604052565b634e487b7160e01b600052604160045260246000fd5b9081602091031261038257518015158103610382579056fea2646970667358221220b9a97a3a9f80a02067b67dc8b501a504b9e05613d3325be1d5b1e9c3a64a65f064736f6c63430008140033","opcodes":"PUSH1 0x80 DUP1 PUSH1 0x40 MSTORE CALLVALUE PUSH2 0x16 JUMPI PUSH2 0x40D SWAP1 DUP2 PUSH2 0x1C DUP3 CODECOPY RETURN JUMPDEST PUSH1 0x0 DUP1 REVERT INVALID PUSH1 0x80 PUSH1 0x40 DUP2 DUP2 MSTORE PUSH1 0x4 SWAP2 DUP3 CALLDATASIZE LT ISZERO PUSH2 0x16 JUMPI PUSH1 0x0 DUP1 REVERT JUMPDEST PUSH1 0x0 SWAP3 DUP4 CALLDATALOAD PUSH1 0xE0 SHR SWAP2 DUP3 PUSH4 0x6B5441A9 EQ PUSH2 0x338 JUMPI POP DUP2 PUSH4 0x7B20C8F4 EQ PUSH2 0x30F JUMPI DUP2 PUSH4 0xA6AFED95 EQ PUSH2 0x2F8 JUMPI DUP2 PUSH4 0xD3FE312E EQ PUSH2 0x2C4 JUMPI DUP2 PUSH4 0xDB006A75 EQ PUSH2 0x192 JUMPI DUP2 PUSH4 0xF2B9FDB8 EQ PUSH2 0xAB JUMPI POP PUSH4 0xF8B2CB4F EQ PUSH2 0x72 JUMPI PUSH1 0x0 DUP1 REVERT JUMPDEST CALLVALUE PUSH2 0xA7 JUMPI PUSH1 0x20 CALLDATASIZE PUSH1 0x3 NOT ADD SLT PUSH2 0xA7 JUMPI PUSH1 0x20 SWAP2 DUP2 SWAP1 PUSH1 0x1 PUSH1 0x1 PUSH1 0xA0 SHL SUB PUSH2 0x98 PUSH2 0x36C JUMP JUMPDEST AND DUP2 MSTORE DUP1 DUP5 MSTORE KECCAK256 SLOAD SWAP1 MLOAD SWAP1 DUP2 MSTORE RETURN JUMPDEST POP DUP1 REVERT JUMPDEST SWAP1 POP CALLVALUE PUSH2 0x18E JUMPI DUP2 PUSH1 0x3 NOT CALLDATASIZE ADD SLT PUSH2 0x18E JUMPI PUSH2 0xC5 PUSH2 0x36C JUMP JUMPDEST SWAP1 PUSH1 0x24 CALLDATALOAD SWAP1 PUSH1 0x1 DUP1 PUSH1 0xA0 SHL SUB DUP1 SWAP4 AND SWAP4 DUP1 MLOAD PUSH4 0x23B872DD PUSH1 0xE0 SHL DUP2 MSTORE CALLER DUP4 DUP3 ADD MSTORE ADDRESS PUSH1 0x24 DUP3 ADD MSTORE DUP4 PUSH1 0x44 DUP3 ADD MSTORE PUSH1 0x20 DUP2 PUSH1 0x64 DUP2 DUP11 DUP11 GAS CALL DUP1 ISZERO PUSH2 0x184 JUMPI PUSH2 0x156 JUMPI JUMPDEST POP CALLER DUP7 MSTORE DUP6 PUSH1 0x20 MSTORE DUP6 KECCAK256 SWAP1 DUP2 SLOAD SWAP3 DUP4 ADD DUP1 SWAP4 GT PUSH2 0x143 JUMPI POP SSTORE PUSH1 0x2 SLOAD SWAP1 DUP2 AND ISZERO PUSH2 0x12F JUMPI DUP3 DUP1 RETURN JUMPDEST PUSH1 0x1 PUSH1 0x1 PUSH1 0xA0 SHL SUB NOT AND OR PUSH1 0x2 SSTORE CODESIZE DUP1 DUP3 DUP1 RETURN JUMPDEST PUSH4 0x4E487B71 PUSH1 0xE0 SHL DUP7 MSTORE PUSH1 0x11 SWAP1 MSTORE PUSH1 0x24 DUP6 REVERT JUMPDEST PUSH2 0x176 SWAP1 PUSH1 0x20 RETURNDATASIZE DUP2 GT PUSH2 0x17D JUMPI JUMPDEST PUSH2 0x16E DUP2 DUP4 PUSH2 0x387 JUMP JUMPDEST DUP2 ADD SWAP1 PUSH2 0x3BF JUMP JUMPDEST POP CODESIZE PUSH2 0x107 JUMP JUMPDEST POP RETURNDATASIZE PUSH2 0x164 JUMP JUMPDEST DUP3 MLOAD RETURNDATASIZE DUP10 DUP3 RETURNDATACOPY RETURNDATASIZE SWAP1 REVERT JUMPDEST DUP3 DUP1 REVERT JUMPDEST SWAP1 POP CALLVALUE PUSH2 0x18E JUMPI PUSH1 0x20 SWAP2 DUP3 PUSH1 0x3 NOT CALLDATASIZE ADD SLT PUSH2 0x2C0 JUMPI DUP2 CALLDATALOAD CALLER DUP6 MSTORE DUP5 DUP5 MSTORE DUP1 DUP3 DUP7 KECCAK256 SLOAD LT PUSH2 0x287 JUMPI PUSH1 0x2 SLOAD PUSH1 0x1 PUSH1 0x1 PUSH1 0xA0 SHL SUB AND SWAP3 DUP4 ISZERO PUSH2 0x251 JUMPI CALLER DUP7 MSTORE DUP6 DUP6 MSTORE DUP3 DUP7 KECCAK256 DUP1 SLOAD SWAP1 DUP4 DUP3 SUB SWAP2 DUP3 GT PUSH2 0x23E JUMPI SWAP2 PUSH1 0x44 SWAP2 DUP8 SWAP5 SWAP4 SSTORE DUP8 DUP6 MLOAD SWAP7 DUP8 SWAP5 DUP6 SWAP4 PUSH4 0xA9059CBB PUSH1 0xE0 SHL DUP6 MSTORE CALLER SWAP1 DUP6 ADD MSTORE PUSH1 0x24 DUP5 ADD MSTORE GAS CALL SWAP1 DUP2 ISZERO PUSH2 0x235 JUMPI POP PUSH2 0x218 JUMPI DUP3 DUP1 RETURN JUMPDEST DUP2 PUSH2 0x22E SWAP3 SWAP1 RETURNDATASIZE LT PUSH2 0x17D JUMPI PUSH2 0x16E DUP2 DUP4 PUSH2 0x387 JUMP JUMPDEST POP CODESIZE DUP1 DUP3 DUP1 RETURN JUMPDEST MLOAD RETURNDATASIZE DUP6 DUP3 RETURNDATACOPY RETURNDATASIZE SWAP1 REVERT JUMPDEST PUSH4 0x4E487B71 PUSH1 0xE0 SHL DUP9 MSTORE PUSH1 0x11 DUP4 MSTORE PUSH1 0x24 DUP9 REVERT JUMPDEST DUP3 MLOAD PUSH3 0x461BCD PUSH1 0xE5 SHL DUP2 MSTORE SWAP1 DUP2 ADD DUP6 SWAP1 MSTORE PUSH1 0x10 PUSH1 0x24 DUP3 ADD MSTORE PUSH16 0x139BC8185CDCD95D081919599A5B9959 PUSH1 0x82 SHL PUSH1 0x44 DUP3 ADD MSTORE PUSH1 0x64 SWAP1 REVERT JUMPDEST POP SWAP2 PUSH1 0x64 SWAP3 MLOAD SWAP2 PUSH3 0x461BCD PUSH1 0xE5 SHL DUP4 MSTORE DUP3 ADD MSTORE PUSH1 0x14 PUSH1 0x24 DUP3 ADD MSTORE PUSH20 0x496E73756666696369656E742062616C616E6365 PUSH1 0x60 SHL PUSH1 0x44 DUP3 ADD MSTORE REVERT JUMPDEST DUP4 DUP1 REVERT JUMPDEST POP POP CALLVALUE PUSH2 0xA7 JUMPI DUP1 PUSH1 0x3 NOT CALLDATASIZE ADD SLT PUSH2 0xA7 JUMPI PUSH1 0x1 PUSH1 0x1 PUSH1 0xA0 SHL SUB PUSH2 0x2E6 PUSH2 0x36C JUMP JUMPDEST AND DUP3 MSTORE PUSH1 0x1 PUSH1 0x20 MSTORE PUSH1 0x24 CALLDATALOAD SWAP1 DUP3 KECCAK256 SSTORE DUP1 RETURN JUMPDEST DUP4 CALLVALUE PUSH2 0x30C JUMPI DUP1 PUSH1 0x3 NOT CALLDATASIZE ADD SLT PUSH2 0x30C JUMPI DUP1 RETURN JUMPDEST DUP1 REVERT JUMPDEST POP POP CALLVALUE PUSH2 0xA7 JUMPI DUP2 PUSH1 0x3 NOT CALLDATASIZE ADD SLT PUSH2 0xA7 JUMPI PUSH1 0x2 SLOAD SWAP1 MLOAD PUSH1 0x1 PUSH1 0x1 PUSH1 0xA0 SHL SUB SWAP1 SWAP2 AND DUP2 MSTORE PUSH1 0x20 SWAP1 RETURN JUMPDEST DUP5 SWAP1 DUP5 CALLVALUE PUSH2 0x18E JUMPI PUSH1 0x20 CALLDATASIZE PUSH1 0x3 NOT ADD SLT PUSH2 0x18E JUMPI PUSH1 0x20 SWAP3 PUSH1 0x1 PUSH1 0x1 PUSH1 0xA0 SHL SUB PUSH2 0x35F PUSH2 0x36C JUMP JUMPDEST AND DUP2 MSTORE PUSH1 0x1 DUP5 MSTORE KECCAK256 SLOAD DUP2 MSTORE RETURN JUMPDEST PUSH1 0x4 CALLDATALOAD SWAP1 PUSH1 0x1 PUSH1 0x1 PUSH1 0xA0 SHL SUB DUP3 AND DUP3 SUB PUSH2 0x382 JUMPI JUMP JUMPDEST PUSH1 0x0 DUP1 REVERT JUMPDEST SWAP1 PUSH1 0x1F DUP1 NOT SWAP2 ADD AND DUP2 ADD SWAP1 DUP2 LT PUSH8 0xFFFFFFFFFFFFFFFF DUP3 GT OR PUSH2 0x3A9 JUMPI PUSH1 0x40 MSTORE JUMP JUMPDEST PUSH4 0x4E487B71 PUSH1 0xE0 SHL PUSH1 0x0 MSTORE PUSH1 0x41 PUSH1 0x4 MSTORE PUSH1 0x24 PUSH1 0x0 REVERT JUMPDEST SWAP1 DUP2 PUSH1 0x20 SWAP2 SUB SLT PUSH2 0x382 JUMPI MLOAD DUP1 ISZERO ISZERO DUP2 SUB PUSH2 0x382 JUMPI SWAP1 JUMP INVALID LOG2 PUSH5 0x6970667358 0x22 SLT KECCAK256 0xB9 0xA9 PUSH27 0x3A9F80A02067B67DC8B501A504B9E05613D3325BE1D5B1E9C3A64A PUSH6 0xF064736F6C63 NUMBER STOP ADDMOD EQ STOP CALLER "},"methodIdentifiers":{"accrueInterest()":"a6afed95","defaultAsset()":"7b20c8f4","getBalance(address)":"f8b2cb4f","getSupplyRate(address)":"6b5441a9","redeem(uint256)":"db006a75","setSupplyRate(address,uint256)":"d3fe312e","supply(address,uint256)":"f2b9fdb8"}}}}}