{"contracts/YieldOptimizerDirect.sol":{"YieldOptimizerDirect":{"abi":[{"inputs":[{"internalType":"address","name":"_aavePool","type":"address"},{"internalType":"address","name":"_aaveDataProvider","type":"address"},{"internalType":"address","name":"_compoundComet","type":"address"},{"internalType":"address","name":"_usdc","type":"address"}],"stateMutability":"nonpayable","type":"constructor"},{"inputs":[{"internalType":"address","name":"owner","type":"address"}],"name":"OwnableInvalidOwner","type":"error"},{"inputs":[{"internalType":"address","name":"account","type":"address"}],"name":"OwnableUnauthorizedAccount","type":"error"},{"anonymous":false,"inputs":[{"indexed":true,"internalType":"address","name":"user","type":"address"},{"indexed":false,"internalType":"uint256","name":"amount","type":"uint256"},{"indexed":false,"internalType":"enum YieldOptimizerDirect.Protocol","name":"protocol","type":"uint8"}],"name":"Deposited","type":"event"},{"anonymous":false,"inputs":[{"indexed":false,"internalType":"string","name":"message","type":"string"},{"indexed":false,"internalType":"uint256","name":"value","type":"uint256"}],"name":"Log","type":"event"},{"anonymous":false,"inputs":[{"indexed":true,"internalType":"address","name":"previousOwner","type":"address"},{"indexed":true,"internalType":"address","name":"newOwner","type":"address"}],"name":"OwnershipTransferred","type":"event"},{"anonymous":false,"inputs":[{"indexed":false,"internalType":"enum YieldOptimizerDirect.Protocol","name":"from","type":"uint8"},{"indexed":false,"internalType":"enum YieldOptimizerDirect.Protocol","name":"to","type":"uint8"},{"indexed":false,"internalType":"uint256","name":"amount","type":"uint256"}],"name":"Rebalanced","type":"event"},{"anonymous":false,"inputs":[{"indexed":true,"internalType":"address","name":"user","type":"address"},{"indexed":false,"internalType":"uint256","name":"amount","type":"uint256"}],"name":"Withdrawn","type":"event"},{"inputs":[],"name":"aUSDC","outputs":[{"internalType":"contract IAToken","name":"","type":"address"}],"stateMutability":"view","type":"function"},{"inputs":[],"name":"aaveDataProvider","outputs":[{"internalType":"contract IAaveProtocolDataProvider","name":"","type":"address"}],"stateMutability":"view","type":"function"},{"inputs":[],"name":"aavePool","outputs":[{"internalType":"contract IAaveV3Pool","name":"","type":"address"}],"stateMutability":"view","type":"function"},{"inputs":[],"name":"compoundComet","outputs":[{"internalType":"contract IComet","name":"","type":"address"}],"stateMutability":"view","type":"function"},{"inputs":[],"name":"currentProtocol","outputs":[{"internalType":"enum YieldOptimizerDirect.Protocol","name":"","type":"uint8"}],"stateMutability":"view","type":"function"},{"inputs":[{"internalType":"uint256","name":"amount","type":"uint256"}],"name":"deposit","outputs":[],"stateMutability":"nonpayable","type":"function"},{"inputs":[],"name":"getAaveAPY","outputs":[{"internalType":"uint256","name":"","type":"uint256"}],"stateMutability":"view","type":"function"},{"inputs":[],"name":"getAaveBalance","outputs":[{"internalType":"uint256","name":"","type":"uint256"}],"stateMutability":"view","type":"function"},{"inputs":[],"name":"getAaveSupplyRate","outputs":[{"internalType":"uint256","name":"","type":"uint256"}],"stateMutability":"view","type":"function"},{"inputs":[],"name":"getBestProtocol","outputs":[{"internalType":"enum YieldOptimizerDirect.Protocol","name":"","type":"uint8"}],"stateMutability":"view","type":"function"},{"inputs":[],"name":"getCompoundAPY","outputs":[{"internalType":"uint256","name":"","type":"uint256"}],"stateMutability":"view","type":"function"},{"inputs":[],"name":"getCompoundBalance","outputs":[{"internalType":"uint256","name":"","type":"uint256"}],"stateMutability":"view","type":"function"},{"inputs":[],"name":"getTotalBalance","outputs":[{"internalType":"uint256","name":"","type":"uint256"}],"stateMutability":"view","type":"function"},{"inputs":[],"name":"owner","outputs":[{"internalType":"address","name":"","type":"address"}],"stateMutability":"view","type":"function"},{"inputs":[],"name":"rebalance","outputs":[],"stateMutability":"nonpayable","type":"function"},{"inputs":[],"name":"renounceOwnership","outputs":[],"stateMutability":"nonpayable","type":"function"},{"inputs":[{"internalType":"address","name":"newOwner","type":"address"}],"name":"transferOwnership","outputs":[],"stateMutability":"nonpayable","type":"function"},{"inputs":[],"name":"usdc","outputs":[{"internalType":"contract IERC20","name":"","type":"address"}],"stateMutability":"view","type":"function"},{"inputs":[{"internalType":"uint256","name":"amount","type":"uint256"}],"name":"withdraw","outputs":[],"stateMutability":"nonpayable","type":"function"}],"evm":{"bytecode":{"linkReferences":{},"object":"608060409080825234620002a357608081620015f78038038091620000258285620002a8565b833981010312620002a3576200003b81620002e2565b6020916200004b838201620002e2565b906200006760606200005f878401620002e2565b9201620002e2565b9033156200028b5760009182549160018060a01b0319953387851617855588519360018060a01b0380978180948194823391167f8be0079c531659141344cd1fd0a4f28419497f9722a3daafe3b4186f6b6457e08c80a3168a600154161760015516928389600254161760025516928388600354161760035516809660045416176004556060836024816005549460ff60a01b1986166005556334924edb60e21b82528a60048301525afa801562000281579085889392869062000217575b6001600160a81b0319909216911617600555875163c55dae6360e01b81529250829060049082905afa9182156200020c578092620001c9575b50501603620001775750516112ff9081620002f88239f35b608491519062461bcd60e51b82526004820152602760248201527f436f6d706f756e64206d61726b6574206261736520746f6b656e206d757374206044820152666265205553444360c81b6064820152fd5b9091508482813d831162000204575b620001e48183620002a8565b81010312620002015750620001f990620002e2565b38806200015f565b80fd5b503d620001d8565b8651903d90823e3d90fd5b50509150916060813d821162000278575b816200023760609383620002a8565b81010312620002745791869185846200026d8b62000257600498620002e2565b9262000265888201620002e2565b5001620002e2565b5062000126565b8380fd5b3d915062000228565b88513d86823e3d90fd5b8551631e4fbdf760e01b815260006004820152602490fd5b600080fd5b601f909101601f19168101906001600160401b03821190821017620002cc57604052565b634e487b7160e01b600052604160045260246000fd5b51906001600160a01b0382168203620002a35756fe60406080815260048036101561001457600080fd5b600091823560e01c80630bccacbd14610fed57806312b5834914610fb65780632aefb3a414610f8d5780632e1a7d4d14610d3857806338d4dff814610c755780633e413bee14610c4d578063488a07b714610c2457806351e1936614610bf8578063559fda3314610bcf5780636237f68614610bb2578063715018a614610b585780637d7c2a1c146105cf5780638da5cb5b146105a75780638dad36a514610529578063a03e4bc314610500578063a4f4acc5146104d7578063b6b55f25146101b3578063d42d5b751461018b5763f2fde38b146100f157600080fd5b34610187576020366003190112610187576001600160a01b038235818116939192908490036101835761012261102d565b831561016d575050600054826bffffffffffffffffffffffff60a01b821617600055167f8be0079c531659141344cd1fd0a4f28419497f9722a3daafe3b4186f6b6457e0600080a380f35b51631e4fbdf760e01b8152908101849052602490fd5b8480fd5b8280fd5b8382346101af57816003193601126101af576020906101a861128b565b9051908152f35b5080fd5b5090346101875760209182600319360112610351578135926101d6841515611059565b825482516323b872dd60e01b81523381860152306024820152604481018690526001600160a01b03918390829060649082908b9087165af180156104cd576104b0575b50610222611109565b93600385101561049d578691906001860361038c578054600154865163095ea7b360e01b81529084166001600160a01b0316818401908152602081018a905290918691839186169082908890829060400103925af1801561038257610355575b5081600154169181541690823b1561035157855163617ba03760e01b81526001600160a01b0390921690820190815260208101889052306040820152600060608201529091839183919082908490829060800103925af1801561034757610333575b50506005805460ff60a01b1916600160a01b1790557f68ef9715adf17aacc9d4ab13dbff6ecd13ea4916b4a6c98416a0c2789e1b9d529261032d915b835195865285019061100a565b3392a280f35b61033c906110a5565b6101835784386102e4565b84513d84823e3d90fd5b8380fd5b61037490853d871161037b575b61036c81836110cf565b8101906110f1565b5038610282565b503d610362565b86513d86823e3d90fd5b8054600354865163095ea7b360e01b81529084166001600160a01b0316818401908152602081018a905290918691839186169082908890829060400103925af1801561038257610480575b5081600354169181541690823b15610351578551631e573fb760e31b81526001600160a01b03909216908201908152602081018890529091839183919082908490829060400103925af180156103475761046c575b50506005805460ff60a01b1916600160a11b1790557f68ef9715adf17aacc9d4ab13dbff6ecd13ea4916b4a6c98416a0c2789e1b9d529261032d91610320565b610475906110a5565b61018357843861042c565b61049690853d871161037b5761036c81836110cf565b50386103d7565b634e487b7160e01b875260219052602486fd5b6104c690833d851161037b5761036c81836110cf565b5038610219565b84513d89823e3d90fd5b8382346101af57816003193601126101af5760025490516001600160a01b039091168152602090f35b8382346101af57816003193601126101af5760015490516001600160a01b039091168152602090f35b508290346101af57816003193601126101af576a084595161401484a000000610550611196565b046301e133809081810291818304149015171561059457606490049160648301809311610581576020838351908152f35b634e487b7160e01b815260118452602490fd5b634e487b7160e01b835260118452602483fd5b8382346101af57816003193601126101af57905490516001600160a01b039091168152602090f35b5090346101875782600319360112610187576105e9611109565b6105f161121f565b80151580610b44575b6108d6575b5061060861128b565b9081151590816108ae575b50610672575b50505061062461121f565b1561063f576005805460ff60a01b1916600160a01b17905580f35b61064761128b565b15610662576005805460ff60a01b1916600160a11b17905580f35b6005805460ff60a01b1916905580f35b60035482546001600160a01b039186918316908316803b1561018757865163f3fef3a360e01b81526001600160a01b03909216868301908152602081018690528391839182908490829060400103925af1801561086657610897575b506080918551948686526017878701527f52656465656d65642066726f6d20436f6d706f756e643a000000000000000000606087015260209585878201527fdd970dd9b5bfe707922155b058a407655cb18288b807e2216442bca8ad83d6b5948591a18054600154885163095ea7b360e01b81529084166001600160a01b03168184019081526020810188905290918891839186169082908890829060400103925af1801561088d57610870575b5081600154169181541690823b1561035157875163617ba03760e01b81526001600160a01b0390921690820190815260208101869052306040820152600060608201529091839183919082908490829060800103925af180156108665761084c575b505090836060939260807f7ce8fc55bb7c62de108767205b2428d9d6332edf725a22950a6e3513631f2ce99651838152601284820152712232b837b9b4ba32b2103a379020a0ab229d60711b878201528486820152a1600181519360028552840152820152a1388080610619565b61085990949392946110a5565b61018357909184386107de565b86513d84823e3d90fd5b61088690873d891161037b5761036c81836110cf565b503861077c565b88513d86823e3d90fd5b6108a182916110a5565b6108ab57386106ce565b80fd5b905060038110156108c3576002141538610613565b634e487b7160e01b855260218352602485fd5b60015483548551631a4ca37b60e21b81526001600160a01b039182168187019081526020818101869052306040830152938491839185169082908c90829060600103925af1908115610b3a578391610b0c575b50506080908651878152601388820152722bb4ba34323932bb90333937b69020a0ab229d60691b606082015284848201527fdd970dd9b5bfe707922155b058a407655cb18288b807e2216442bca8ad83d6b5928391a16003851015610af95787906002861461099c575b505050506105ff565b8654600354895163095ea7b360e01b81529083166001600160a01b0316818a019081526020810188905290918691839185169082908790829060400103925af18015610aef57610ad2575b50600354875482169116803b15610187578851631e573fb760e31b81526001600160a01b03909216828901908152602081018790528391839182908490829060400103925af18015610ac857610aac575b5050907f7ce8fc55bb7c62de108767205b2428d9d6332edf725a22950a6e3513631f2ce9926060926080885189815260168a820152752232b837b9b4ba32b2103a379021b7b6b837bab7321d60511b868201528385820152a160028751926001845283015286820152a13880808681610993565b610ab8909392936110a5565b610ac457908638610a38565b8680fd5b88513d84823e3d90fd5b610ae890853d871161037b5761036c81836110cf565b50386109e7565b89513d85823e3d90fd5b634e487b7160e01b885260218652602488fd5b813d8311610b33575b610b1f81836110cf565b81010312610b2e578138610929565b600080fd5b503d610b15565b87513d8a823e3d90fd5b5060038210156108c35760018214156105fa565b83346108ab57806003193601126108ab57610b7161102d565b600080546001600160a01b0319811682556001600160a01b03167f8be0079c531659141344cd1fd0a4f28419497f9722a3daafe3b4186f6b6457e08280a380f35b8382346101af57816003193601126101af576020906101a861121f565b8382346101af57816003193601126101af5760055490516001600160a01b039091168152602090f35b8382346101af57816003193601126101af57602090610c2260ff60055460a01c169151809261100a565bf35b8382346101af57816003193601126101af5760035490516001600160a01b039091168152602090f35b5090346101875782600319360112610187575490516001600160a01b03909116815260209150f35b508290346101af57816003193601126101af57600354815163ad2961a360e01b8152906020908290869082906001600160a01b03165afa8015610d2c578390610cf4575b662386f26fc100009150046301e133809081810291818304149015171561059457606490049160648301809311610581576020838351908152f35b506020813d8211610d24575b81610d0d602093836110cf565b81010312610b2e57662386f26fc100009051610cb9565b3d9150610d00565b505051903d90823e3d90fd5b50346101875760208060031936011261035157823591610d5661102d565b610d61831515611059565b60ff60055460a01c166003811015610f7a5760018103610eaa575060015484548251631a4ca37b60e21b81526001600160a01b03918216818801908152602081018790523060408201529092859284928390036060019183918b91165af18015610ea057610e76575b508183610e11955b80548854855163a9059cbb60e01b81526001600160a01b039182169381019384526020840194909452929788939091169183918a918391604090910190565b03925af1938415610e6c577f7084f5476618d8e60b11ef0d7d3f06914655adb8793e28ff7f018d4c76d505d59394610e4f575b50519283523392a280f35b610e6590833d851161037b5761036c81836110cf565b5038610e44565b81513d87823e3d90fd5b8290813d8311610e99575b610e8b81836110cf565b81010312610b2e5738610dca565b503d610e81565b82513d88823e3d90fd5b939493600203610f425760035485546001600160a01b039182169116813b15610f3e57825163f3fef3a360e01b81526001600160a01b03909116818801908152602081018690529091869183919082908490829060400103925af18015610f3457610f1d575b508183610e119596610dd2565b83610e1195610f2c85936110a5565b955050610f10565b82513d87823e3d90fd5b8580fd5b5162461bcd60e51b8152808501919091526012602482015271139bc8199d5b991cc819195c1bdcda5d195960721b6044820152606490fd5b634e487b7160e01b865260218552602486fd5b8382346101af57816003193601126101af57602090610c22610fad611109565b9151809261100a565b508290346101af57816003193601126101af57610fd161121f565b91610fda61128b565b8301809311610581576020838351908152f35b8382346101af57816003193601126101af576020906101a8611196565b9060038210156110175752565b634e487b7160e01b600052602160045260246000fd5b6000546001600160a01b0316330361104157565b60405163118cdaa760e01b8152336004820152602490fd5b1561106057565b60405162461bcd60e51b815260206004820152601d60248201527f416d6f756e74206d7573742062652067726561746572207468616e20300000006044820152606490fd5b67ffffffffffffffff81116110b957604052565b634e487b7160e01b600052604160045260246000fd5b90601f8019910116810190811067ffffffffffffffff8211176110b957604052565b90816020910312610b2e57518015158103610b2e5790565b6004611113611196565b60035460405163ad2961a360e01b81529260209184919082906001600160a01b03165afa91821561118a57600092611157575b50111561115257600190565b600290565b90916020823d8211611182575b81611171602093836110cf565b810103126108ab5750519038611146565b3d9150611164565b6040513d6000823e3d90fd5b60018060a01b03806001541690600454166040519182916335ea6a7560e01b835260048301528160246101809384935afa90811561118a576000916111dc575b50905090565b82813d8311611218575b6111f081836110cf565b810103126108ab5761016060a083015192015164ffffffffff8116036108ab575080386111d6565b503d6111e6565b6005546040516370a0823160e01b815230600482015290602090829060249082906001600160a01b03165afa90811561118a5760009161125d575090565b906020823d8211611283575b81611276602093836110cf565b810103126108ab57505190565b3d9150611269565b6003546040516370a0823160e01b815230600482015290602090829060249082906001600160a01b03165afa90811561118a5760009161125d57509056fea264697066735822122004bf48e9e0b9a5737bcd82dfefda0d4179c670f93c4d0571401bb883bccfa76364736f6c63430008140033","opcodes":"PUSH1 0x80 PUSH1 0x40 SWAP1 DUP1 DUP3 MSTORE CALLVALUE PUSH3 0x2A3 JUMPI PUSH1 0x80 DUP2 PUSH3 0x15F7 DUP1 CODESIZE SUB DUP1 SWAP2 PUSH3 0x25 DUP3 DUP6 PUSH3 0x2A8 JUMP JUMPDEST DUP4 CODECOPY DUP2 ADD SUB SLT PUSH3 0x2A3 JUMPI PUSH3 0x3B DUP2 PUSH3 0x2E2 JUMP JUMPDEST PUSH1 0x20 SWAP2 PUSH3 0x4B DUP4 DUP3 ADD PUSH3 0x2E2 JUMP JUMPDEST SWAP1 PUSH3 0x67 PUSH1 0x60 PUSH3 0x5F DUP8 DUP5 ADD PUSH3 0x2E2 JUMP JUMPDEST SWAP3 ADD PUSH3 0x2E2 JUMP JUMPDEST SWAP1 CALLER ISZERO PUSH3 0x28B JUMPI PUSH1 0x0 SWAP2 DUP3 SLOAD SWAP2 PUSH1 0x1 DUP1 PUSH1 0xA0 SHL SUB NOT SWAP6 CALLER DUP8 DUP6 AND OR DUP6 SSTORE DUP9 MLOAD SWAP4 PUSH1 0x1 DUP1 PUSH1 0xA0 SHL SUB DUP1 SWAP8 DUP2 DUP1 SWAP5 DUP2 SWAP5 DUP3 CALLER SWAP2 AND PUSH32 0x8BE0079C531659141344CD1FD0A4F28419497F9722A3DAAFE3B4186F6B6457E0 DUP13 DUP1 LOG3 AND DUP11 PUSH1 0x1 SLOAD AND OR PUSH1 0x1 SSTORE AND SWAP3 DUP4 DUP10 PUSH1 0x2 SLOAD AND OR PUSH1 0x2 SSTORE AND SWAP3 DUP4 DUP9 PUSH1 0x3 SLOAD AND OR PUSH1 0x3 SSTORE AND DUP1 SWAP7 PUSH1 0x4 SLOAD AND OR PUSH1 0x4 SSTORE PUSH1 0x60 DUP4 PUSH1 0x24 DUP2 PUSH1 0x5 SLOAD SWAP5 PUSH1 0xFF PUSH1 0xA0 SHL NOT DUP7 AND PUSH1 0x5 SSTORE PUSH4 0x34924EDB PUSH1 0xE2 SHL DUP3 MSTORE DUP11 PUSH1 0x4 DUP4 ADD MSTORE GAS STATICCALL DUP1 ISZERO PUSH3 0x281 JUMPI SWAP1 DUP6 DUP9 SWAP4 SWAP3 DUP7 SWAP1 PUSH3 0x217 JUMPI JUMPDEST PUSH1 0x1 PUSH1 0x1 PUSH1 0xA8 SHL SUB NOT SWAP1 SWAP3 AND SWAP2 AND OR PUSH1 0x5 SSTORE DUP8 MLOAD PUSH4 0xC55DAE63 PUSH1 0xE0 SHL DUP2 MSTORE SWAP3 POP DUP3 SWAP1 PUSH1 0x4 SWAP1 DUP3 SWAP1 GAS STATICCALL SWAP2 DUP3 ISZERO PUSH3 0x20C JUMPI DUP1 SWAP3 PUSH3 0x1C9 JUMPI JUMPDEST POP POP AND SUB PUSH3 0x177 JUMPI POP MLOAD PUSH2 0x12FF SWAP1 DUP2 PUSH3 0x2F8 DUP3 CODECOPY RETURN JUMPDEST PUSH1 0x84 SWAP2 MLOAD SWAP1 PUSH3 0x461BCD PUSH1 0xE5 SHL DUP3 MSTORE PUSH1 0x4 DUP3 ADD MSTORE PUSH1 0x27 PUSH1 0x24 DUP3 ADD MSTORE PUSH32 0x436F6D706F756E64206D61726B6574206261736520746F6B656E206D75737420 PUSH1 0x44 DUP3 ADD MSTORE PUSH7 0x62652055534443 PUSH1 0xC8 SHL PUSH1 0x64 DUP3 ADD MSTORE REVERT JUMPDEST SWAP1 SWAP2 POP DUP5 DUP3 DUP2 RETURNDATASIZE DUP4 GT PUSH3 0x204 JUMPI JUMPDEST PUSH3 0x1E4 DUP2 DUP4 PUSH3 0x2A8 JUMP JUMPDEST DUP2 ADD SUB SLT PUSH3 0x201 JUMPI POP PUSH3 0x1F9 SWAP1 PUSH3 0x2E2 JUMP JUMPDEST CODESIZE DUP1 PUSH3 0x15F JUMP JUMPDEST DUP1 REVERT JUMPDEST POP RETURNDATASIZE PUSH3 0x1D8 JUMP JUMPDEST DUP7 MLOAD SWAP1 RETURNDATASIZE SWAP1 DUP3 RETURNDATACOPY RETURNDATASIZE SWAP1 REVERT JUMPDEST POP POP SWAP2 POP SWAP2 PUSH1 0x60 DUP2 RETURNDATASIZE DUP3 GT PUSH3 0x278 JUMPI JUMPDEST DUP2 PUSH3 0x237 PUSH1 0x60 SWAP4 DUP4 PUSH3 0x2A8 JUMP JUMPDEST DUP2 ADD SUB SLT PUSH3 0x274 JUMPI SWAP2 DUP7 SWAP2 DUP6 DUP5 PUSH3 0x26D DUP12 PUSH3 0x257 PUSH1 0x4 SWAP9 PUSH3 0x2E2 JUMP JUMPDEST SWAP3 PUSH3 0x265 DUP9 DUP3 ADD PUSH3 0x2E2 JUMP JUMPDEST POP ADD PUSH3 0x2E2 JUMP JUMPDEST POP PUSH3 0x126 JUMP JUMPDEST DUP4 DUP1 REVERT JUMPDEST RETURNDATASIZE SWAP2 POP PUSH3 0x228 JUMP JUMPDEST DUP9 MLOAD RETURNDATASIZE DUP7 DUP3 RETURNDATACOPY RETURNDATASIZE SWAP1 REVERT JUMPDEST DUP6 MLOAD PUSH4 0x1E4FBDF7 PUSH1 0xE0 SHL DUP2 MSTORE PUSH1 0x0 PUSH1 0x4 DUP3 ADD MSTORE PUSH1 0x24 SWAP1 REVERT JUMPDEST PUSH1 0x0 DUP1 REVERT JUMPDEST PUSH1 0x1F SWAP1 SWAP2 ADD PUSH1 0x1F NOT AND DUP2 ADD SWAP1 PUSH1 0x1 PUSH1 0x1 PUSH1 0x40 SHL SUB DUP3 GT SWAP1 DUP3 LT OR PUSH3 0x2CC JUMPI PUSH1 0x40 MSTORE JUMP JUMPDEST PUSH4 0x4E487B71 PUSH1 0xE0 SHL PUSH1 0x0 MSTORE PUSH1 0x41 PUSH1 0x4 MSTORE PUSH1 0x24 PUSH1 0x0 REVERT JUMPDEST MLOAD SWAP1 PUSH1 0x1 PUSH1 0x1 PUSH1 0xA0 SHL SUB DUP3 AND DUP3 SUB PUSH3 0x2A3 JUMPI JUMP INVALID PUSH1 0x40 PUSH1 0x80 DUP2 MSTORE PUSH1 0x4 DUP1 CALLDATASIZE LT ISZERO PUSH2 0x14 JUMPI PUSH1 0x0 DUP1 REVERT JUMPDEST PUSH1 0x0 SWAP2 DUP3 CALLDATALOAD PUSH1 0xE0 SHR DUP1 PUSH4 0xBCCACBD EQ PUSH2 0xFED JUMPI DUP1 PUSH4 0x12B58349 EQ PUSH2 0xFB6 JUMPI DUP1 PUSH4 0x2AEFB3A4 EQ PUSH2 0xF8D JUMPI DUP1 PUSH4 0x2E1A7D4D EQ PUSH2 0xD38 JUMPI DUP1 PUSH4 0x38D4DFF8 EQ PUSH2 0xC75 JUMPI DUP1 PUSH4 0x3E413BEE EQ PUSH2 0xC4D JUMPI DUP1 PUSH4 0x488A07B7 EQ PUSH2 0xC24 JUMPI DUP1 PUSH4 0x51E19366 EQ PUSH2 0xBF8 JUMPI DUP1 PUSH4 0x559FDA33 EQ PUSH2 0xBCF JUMPI DUP1 PUSH4 0x6237F686 EQ PUSH2 0xBB2 JUMPI DUP1 PUSH4 0x715018A6 EQ PUSH2 0xB58 JUMPI DUP1 PUSH4 0x7D7C2A1C EQ PUSH2 0x5CF JUMPI DUP1 PUSH4 0x8DA5CB5B EQ PUSH2 0x5A7 JUMPI DUP1 PUSH4 0x8DAD36A5 EQ PUSH2 0x529 JUMPI DUP1 PUSH4 0xA03E4BC3 EQ PUSH2 0x500 JUMPI DUP1 PUSH4 0xA4F4ACC5 EQ PUSH2 0x4D7 JUMPI DUP1 PUSH4 0xB6B55F25 EQ PUSH2 0x1B3 JUMPI DUP1 PUSH4 0xD42D5B75 EQ PUSH2 0x18B JUMPI PUSH4 0xF2FDE38B EQ PUSH2 0xF1 JUMPI PUSH1 0x0 DUP1 REVERT JUMPDEST CALLVALUE PUSH2 0x187 JUMPI PUSH1 0x20 CALLDATASIZE PUSH1 0x3 NOT ADD SLT PUSH2 0x187 JUMPI PUSH1 0x1 PUSH1 0x1 PUSH1 0xA0 SHL SUB DUP3 CALLDATALOAD DUP2 DUP2 AND SWAP4 SWAP2 SWAP3 SWAP1 DUP5 SWAP1 SUB PUSH2 0x183 JUMPI PUSH2 0x122 PUSH2 0x102D JUMP JUMPDEST DUP4 ISZERO PUSH2 0x16D JUMPI POP POP PUSH1 0x0 SLOAD DUP3 PUSH12 0xFFFFFFFFFFFFFFFFFFFFFFFF PUSH1 0xA0 SHL DUP3 AND OR PUSH1 0x0 SSTORE AND PUSH32 0x8BE0079C531659141344CD1FD0A4F28419497F9722A3DAAFE3B4186F6B6457E0 PUSH1 0x0 DUP1 LOG3 DUP1 RETURN JUMPDEST MLOAD PUSH4 0x1E4FBDF7 PUSH1 0xE0 SHL DUP2 MSTORE SWAP1 DUP2 ADD DUP5 SWAP1 MSTORE PUSH1 0x24 SWAP1 REVERT JUMPDEST DUP5 DUP1 REVERT JUMPDEST DUP3 DUP1 REVERT JUMPDEST DUP4 DUP3 CALLVALUE PUSH2 0x1AF JUMPI DUP2 PUSH1 0x3 NOT CALLDATASIZE ADD SLT PUSH2 0x1AF JUMPI PUSH1 0x20 SWAP1 PUSH2 0x1A8 PUSH2 0x128B JUMP JUMPDEST SWAP1 MLOAD SWAP1 DUP2 MSTORE RETURN JUMPDEST POP DUP1 REVERT JUMPDEST POP SWAP1 CALLVALUE PUSH2 0x187 JUMPI PUSH1 0x20 SWAP2 DUP3 PUSH1 0x3 NOT CALLDATASIZE ADD SLT PUSH2 0x351 JUMPI DUP2 CALLDATALOAD SWAP3 PUSH2 0x1D6 DUP5 ISZERO ISZERO PUSH2 0x1059 JUMP JUMPDEST DUP3 SLOAD DUP3 MLOAD PUSH4 0x23B872DD PUSH1 0xE0 SHL DUP2 MSTORE CALLER DUP2 DUP7 ADD MSTORE ADDRESS PUSH1 0x24 DUP3 ADD MSTORE PUSH1 0x44 DUP2 ADD DUP7 SWAP1 MSTORE PUSH1 0x1 PUSH1 0x1 PUSH1 0xA0 SHL SUB SWAP2 DUP4 SWAP1 DUP3 SWAP1 PUSH1 0x64 SWAP1 DUP3 SWAP1 DUP12 SWAP1 DUP8 AND GAS CALL DUP1 ISZERO PUSH2 0x4CD JUMPI PUSH2 0x4B0 JUMPI JUMPDEST POP PUSH2 0x222 PUSH2 0x1109 JUMP JUMPDEST SWAP4 PUSH1 0x3 DUP6 LT ISZERO PUSH2 0x49D JUMPI DUP7 SWAP2 SWAP1 PUSH1 0x1 DUP7 SUB PUSH2 0x38C JUMPI DUP1 SLOAD PUSH1 0x1 SLOAD DUP7 MLOAD PUSH4 0x95EA7B3 PUSH1 0xE0 SHL DUP2 MSTORE SWAP1 DUP5 AND PUSH1 0x1 PUSH1 0x1 PUSH1 0xA0 SHL SUB AND DUP2 DUP5 ADD SWAP1 DUP2 MSTORE PUSH1 0x20 DUP2 ADD DUP11 SWAP1 MSTORE SWAP1 SWAP2 DUP7 SWAP2 DUP4 SWAP2 DUP7 AND SWAP1 DUP3 SWAP1 DUP9 SWAP1 DUP3 SWAP1 PUSH1 0x40 ADD SUB SWAP3 GAS CALL DUP1 ISZERO PUSH2 0x382 JUMPI PUSH2 0x355 JUMPI JUMPDEST POP DUP2 PUSH1 0x1 SLOAD AND SWAP2 DUP2 SLOAD AND SWAP1 DUP3 EXTCODESIZE ISZERO PUSH2 0x351 JUMPI DUP6 MLOAD PUSH4 0x617BA037 PUSH1 0xE0 SHL DUP2 MSTORE PUSH1 0x1 PUSH1 0x1 PUSH1 0xA0 SHL SUB SWAP1 SWAP3 AND SWAP1 DUP3 ADD SWAP1 DUP2 MSTORE PUSH1 0x20 DUP2 ADD DUP9 SWAP1 MSTORE ADDRESS PUSH1 0x40 DUP3 ADD MSTORE PUSH1 0x0 PUSH1 0x60 DUP3 ADD MSTORE SWAP1 SWAP2 DUP4 SWAP2 DUP4 SWAP2 SWAP1 DUP3 SWAP1 DUP5 SWAP1 DUP3 SWAP1 PUSH1 0x80 ADD SUB SWAP3 GAS CALL DUP1 ISZERO PUSH2 0x347 JUMPI PUSH2 0x333 JUMPI JUMPDEST POP POP PUSH1 0x5 DUP1 SLOAD PUSH1 0xFF PUSH1 0xA0 SHL NOT AND PUSH1 0x1 PUSH1 0xA0 SHL OR SWAP1 SSTORE PUSH32 0x68EF9715ADF17AACC9D4AB13DBFF6ECD13EA4916B4A6C98416A0C2789E1B9D52 SWAP3 PUSH2 0x32D SWAP2 JUMPDEST DUP4 MLOAD SWAP6 DUP7 MSTORE DUP6 ADD SWAP1 PUSH2 0x100A JUMP JUMPDEST CALLER SWAP3 LOG2 DUP1 RETURN JUMPDEST PUSH2 0x33C SWAP1 PUSH2 0x10A5 JUMP JUMPDEST PUSH2 0x183 JUMPI DUP5 CODESIZE PUSH2 0x2E4 JUMP JUMPDEST DUP5 MLOAD RETURNDATASIZE DUP5 DUP3 RETURNDATACOPY RETURNDATASIZE SWAP1 REVERT JUMPDEST DUP4 DUP1 REVERT JUMPDEST PUSH2 0x374 SWAP1 DUP6 RETURNDATASIZE DUP8 GT PUSH2 0x37B JUMPI JUMPDEST PUSH2 0x36C DUP2 DUP4 PUSH2 0x10CF JUMP JUMPDEST DUP2 ADD SWAP1 PUSH2 0x10F1 JUMP JUMPDEST POP CODESIZE PUSH2 0x282 JUMP JUMPDEST POP RETURNDATASIZE PUSH2 0x362 JUMP JUMPDEST DUP7 MLOAD RETURNDATASIZE DUP7 DUP3 RETURNDATACOPY RETURNDATASIZE SWAP1 REVERT JUMPDEST DUP1 SLOAD PUSH1 0x3 SLOAD DUP7 MLOAD PUSH4 0x95EA7B3 PUSH1 0xE0 SHL DUP2 MSTORE SWAP1 DUP5 AND PUSH1 0x1 PUSH1 0x1 PUSH1 0xA0 SHL SUB AND DUP2 DUP5 ADD SWAP1 DUP2 MSTORE PUSH1 0x20 DUP2 ADD DUP11 SWAP1 MSTORE SWAP1 SWAP2 DUP7 SWAP2 DUP4 SWAP2 DUP7 AND SWAP1 DUP3 SWAP1 DUP9 SWAP1 DUP3 SWAP1 PUSH1 0x40 ADD SUB SWAP3 GAS CALL DUP1 ISZERO PUSH2 0x382 JUMPI PUSH2 0x480 JUMPI JUMPDEST POP DUP2 PUSH1 0x3 SLOAD AND SWAP2 DUP2 SLOAD AND SWAP1 DUP3 EXTCODESIZE ISZERO PUSH2 0x351 JUMPI DUP6 MLOAD PUSH4 0x1E573FB7 PUSH1 0xE3 SHL DUP2 MSTORE PUSH1 0x1 PUSH1 0x1 PUSH1 0xA0 SHL SUB SWAP1 SWAP3 AND SWAP1 DUP3 ADD SWAP1 DUP2 MSTORE PUSH1 0x20 DUP2 ADD DUP9 SWAP1 MSTORE SWAP1 SWAP2 DUP4 SWAP2 DUP4 SWAP2 SWAP1 DUP3 SWAP1 DUP5 SWAP1 DUP3 SWAP1 PUSH1 0x40 ADD SUB SWAP3 GAS CALL DUP1 ISZERO PUSH2 0x347 JUMPI PUSH2 0x46C JUMPI JUMPDEST POP POP PUSH1 0x5 DUP1 SLOAD PUSH1 0xFF PUSH1 0xA0 SHL NOT AND PUSH1 0x1 PUSH1 0xA1 SHL OR SWAP1 SSTORE PUSH32 0x68EF9715ADF17AACC9D4AB13DBFF6ECD13EA4916B4A6C98416A0C2789E1B9D52 SWAP3 PUSH2 0x32D SWAP2 PUSH2 0x320 JUMP JUMPDEST PUSH2 0x475 SWAP1 PUSH2 0x10A5 JUMP JUMPDEST PUSH2 0x183 JUMPI DUP5 CODESIZE PUSH2 0x42C JUMP JUMPDEST PUSH2 0x496 SWAP1 DUP6 RETURNDATASIZE DUP8 GT PUSH2 0x37B JUMPI PUSH2 0x36C DUP2 DUP4 PUSH2 0x10CF JUMP JUMPDEST POP CODESIZE PUSH2 0x3D7 JUMP JUMPDEST PUSH4 0x4E487B71 PUSH1 0xE0 SHL DUP8 MSTORE PUSH1 0x21 SWAP1 MSTORE PUSH1 0x24 DUP7 REVERT JUMPDEST PUSH2 0x4C6 SWAP1 DUP4 RETURNDATASIZE DUP6 GT PUSH2 0x37B JUMPI PUSH2 0x36C DUP2 DUP4 PUSH2 0x10CF JUMP JUMPDEST POP CODESIZE PUSH2 0x219 JUMP JUMPDEST DUP5 MLOAD RETURNDATASIZE DUP10 DUP3 RETURNDATACOPY RETURNDATASIZE SWAP1 REVERT JUMPDEST DUP4 DUP3 CALLVALUE PUSH2 0x1AF JUMPI DUP2 PUSH1 0x3 NOT CALLDATASIZE ADD SLT PUSH2 0x1AF JUMPI PUSH1 0x2 SLOAD SWAP1 MLOAD PUSH1 0x1 PUSH1 0x1 PUSH1 0xA0 SHL SUB SWAP1 SWAP2 AND DUP2 MSTORE PUSH1 0x20 SWAP1 RETURN JUMPDEST DUP4 DUP3 CALLVALUE PUSH2 0x1AF JUMPI DUP2 PUSH1 0x3 NOT CALLDATASIZE ADD SLT PUSH2 0x1AF JUMPI PUSH1 0x1 SLOAD SWAP1 MLOAD PUSH1 0x1 PUSH1 0x1 PUSH1 0xA0 SHL SUB SWAP1 SWAP2 AND DUP2 MSTORE PUSH1 0x20 SWAP1 RETURN JUMPDEST POP DUP3 SWAP1 CALLVALUE PUSH2 0x1AF JUMPI DUP2 PUSH1 0x3 NOT CALLDATASIZE ADD SLT PUSH2 0x1AF JUMPI PUSH11 0x84595161401484A000000 PUSH2 0x550 PUSH2 0x1196 JUMP JUMPDEST DIV PUSH4 0x1E13380 SWAP1 DUP2 DUP2 MUL SWAP2 DUP2 DUP4 DIV EQ SWAP1 ISZERO OR ISZERO PUSH2 0x594 JUMPI PUSH1 0x64 SWAP1 DIV SWAP2 PUSH1 0x64 DUP4 ADD DUP1 SWAP4 GT PUSH2 0x581 JUMPI PUSH1 0x20 DUP4 DUP4 MLOAD SWAP1 DUP2 MSTORE RETURN JUMPDEST PUSH4 0x4E487B71 PUSH1 0xE0 SHL DUP2 MSTORE PUSH1 0x11 DUP5 MSTORE PUSH1 0x24 SWAP1 REVERT JUMPDEST PUSH4 0x4E487B71 PUSH1 0xE0 SHL DUP4 MSTORE PUSH1 0x11 DUP5 MSTORE PUSH1 0x24 DUP4 REVERT JUMPDEST DUP4 DUP3 CALLVALUE PUSH2 0x1AF JUMPI DUP2 PUSH1 0x3 NOT CALLDATASIZE ADD SLT PUSH2 0x1AF JUMPI SWAP1 SLOAD SWAP1 MLOAD PUSH1 0x1 PUSH1 0x1 PUSH1 0xA0 SHL SUB SWAP1 SWAP2 AND DUP2 MSTORE PUSH1 0x20 SWAP1 RETURN JUMPDEST POP SWAP1 CALLVALUE PUSH2 0x187 JUMPI DUP3 PUSH1 0x3 NOT CALLDATASIZE ADD SLT PUSH2 0x187 JUMPI PUSH2 0x5E9 PUSH2 0x1109 JUMP JUMPDEST PUSH2 0x5F1 PUSH2 0x121F JUMP JUMPDEST DUP1 ISZERO ISZERO DUP1 PUSH2 0xB44 JUMPI JUMPDEST PUSH2 0x8D6 JUMPI JUMPDEST POP PUSH2 0x608 PUSH2 0x128B JUMP JUMPDEST SWAP1 DUP2 ISZERO ISZERO SWAP1 DUP2 PUSH2 0x8AE JUMPI JUMPDEST POP PUSH2 0x672 JUMPI JUMPDEST POP POP POP PUSH2 0x624 PUSH2 0x121F JUMP JUMPDEST ISZERO PUSH2 0x63F JUMPI PUSH1 0x5 DUP1 SLOAD PUSH1 0xFF PUSH1 0xA0 SHL NOT AND PUSH1 0x1 PUSH1 0xA0 SHL OR SWAP1 SSTORE DUP1 RETURN JUMPDEST PUSH2 0x647 PUSH2 0x128B JUMP JUMPDEST ISZERO PUSH2 0x662 JUMPI PUSH1 0x5 DUP1 SLOAD PUSH1 0xFF PUSH1 0xA0 SHL NOT AND PUSH1 0x1 PUSH1 0xA1 SHL OR SWAP1 SSTORE DUP1 RETURN JUMPDEST PUSH1 0x5 DUP1 SLOAD PUSH1 0xFF PUSH1 0xA0 SHL NOT AND SWAP1 SSTORE DUP1 RETURN JUMPDEST PUSH1 0x3 SLOAD DUP3 SLOAD PUSH1 0x1 PUSH1 0x1 PUSH1 0xA0 SHL SUB SWAP2 DUP7 SWAP2 DUP4 AND SWAP1 DUP4 AND DUP1 EXTCODESIZE ISZERO PUSH2 0x187 JUMPI DUP7 MLOAD PUSH4 0xF3FEF3A3 PUSH1 0xE0 SHL DUP2 MSTORE PUSH1 0x1 PUSH1 0x1 PUSH1 0xA0 SHL SUB SWAP1 SWAP3 AND DUP7 DUP4 ADD SWAP1 DUP2 MSTORE PUSH1 0x20 DUP2 ADD DUP7 SWAP1 MSTORE DUP4 SWAP2 DUP4 SWAP2 DUP3 SWAP1 DUP5 SWAP1 DUP3 SWAP1 PUSH1 0x40 ADD SUB SWAP3 GAS CALL DUP1 ISZERO PUSH2 0x866 JUMPI PUSH2 0x897 JUMPI JUMPDEST POP PUSH1 0x80 SWAP2 DUP6 MLOAD SWAP5 DUP7 DUP7 MSTORE PUSH1 0x17 DUP8 DUP8 ADD MSTORE PUSH32 0x52656465656D65642066726F6D20436F6D706F756E643A000000000000000000 PUSH1 0x60 DUP8 ADD MSTORE PUSH1 0x20 SWAP6 DUP6 DUP8 DUP3 ADD MSTORE PUSH32 0xDD970DD9B5BFE707922155B058A407655CB18288B807E2216442BCA8AD83D6B5 SWAP5 DUP6 SWAP2 LOG1 DUP1 SLOAD PUSH1 0x1 SLOAD DUP9 MLOAD PUSH4 0x95EA7B3 PUSH1 0xE0 SHL DUP2 MSTORE SWAP1 DUP5 AND PUSH1 0x1 PUSH1 0x1 PUSH1 0xA0 SHL SUB AND DUP2 DUP5 ADD SWAP1 DUP2 MSTORE PUSH1 0x20 DUP2 ADD DUP9 SWAP1 MSTORE SWAP1 SWAP2 DUP9 SWAP2 DUP4 SWAP2 DUP7 AND SWAP1 DUP3 SWAP1 DUP9 SWAP1 DUP3 SWAP1 PUSH1 0x40 ADD SUB SWAP3 GAS CALL DUP1 ISZERO PUSH2 0x88D JUMPI PUSH2 0x870 JUMPI JUMPDEST POP DUP2 PUSH1 0x1 SLOAD AND SWAP2 DUP2 SLOAD AND SWAP1 DUP3 EXTCODESIZE ISZERO PUSH2 0x351 JUMPI DUP8 MLOAD PUSH4 0x617BA037 PUSH1 0xE0 SHL DUP2 MSTORE PUSH1 0x1 PUSH1 0x1 PUSH1 0xA0 SHL SUB SWAP1 SWAP3 AND SWAP1 DUP3 ADD SWAP1 DUP2 MSTORE PUSH1 0x20 DUP2 ADD DUP7 SWAP1 MSTORE ADDRESS PUSH1 0x40 DUP3 ADD MSTORE PUSH1 0x0 PUSH1 0x60 DUP3 ADD MSTORE SWAP1 SWAP2 DUP4 SWAP2 DUP4 SWAP2 SWAP1 DUP3 SWAP1 DUP5 SWAP1 DUP3 SWAP1 PUSH1 0x80 ADD SUB SWAP3 GAS CALL DUP1 ISZERO PUSH2 0x866 JUMPI PUSH2 0x84C JUMPI JUMPDEST POP POP SWAP1 DUP4 PUSH1 0x60 SWAP4 SWAP3 PUSH1 0x80 PUSH32 0x7CE8FC55BB7C62DE108767205B2428D9D6332EDF725A22950A6E3513631F2CE9 SWAP7 MLOAD DUP4 DUP2 MSTORE PUSH1 0x12 DUP5 DUP3 ADD MSTORE PUSH18 0x2232B837B9B4BA32B2103A379020A0AB229D PUSH1 0x71 SHL DUP8 DUP3 ADD MSTORE DUP5 DUP7 DUP3 ADD MSTORE LOG1 PUSH1 0x1 DUP2 MLOAD SWAP4 PUSH1 0x2 DUP6 MSTORE DUP5 ADD MSTORE DUP3 ADD MSTORE LOG1 CODESIZE DUP1 DUP1 PUSH2 0x619 JUMP JUMPDEST PUSH2 0x859 SWAP1 SWAP5 SWAP4 SWAP3 SWAP5 PUSH2 0x10A5 JUMP JUMPDEST PUSH2 0x183 JUMPI SWAP1 SWAP2 DUP5 CODESIZE PUSH2 0x7DE JUMP JUMPDEST DUP7 MLOAD RETURNDATASIZE DUP5 DUP3 RETURNDATACOPY RETURNDATASIZE SWAP1 REVERT JUMPDEST PUSH2 0x886 SWAP1 DUP8 RETURNDATASIZE DUP10 GT PUSH2 0x37B JUMPI PUSH2 0x36C DUP2 DUP4 PUSH2 0x10CF JUMP JUMPDEST POP CODESIZE PUSH2 0x77C JUMP JUMPDEST DUP9 MLOAD RETURNDATASIZE DUP7 DUP3 RETURNDATACOPY RETURNDATASIZE SWAP1 REVERT JUMPDEST PUSH2 0x8A1 DUP3 SWAP2 PUSH2 0x10A5 JUMP JUMPDEST PUSH2 0x8AB JUMPI CODESIZE PUSH2 0x6CE JUMP JUMPDEST DUP1 REVERT JUMPDEST SWAP1 POP PUSH1 0x3 DUP2 LT ISZERO PUSH2 0x8C3 JUMPI PUSH1 0x2 EQ ISZERO CODESIZE PUSH2 0x613 JUMP JUMPDEST PUSH4 0x4E487B71 PUSH1 0xE0 SHL DUP6 MSTORE PUSH1 0x21 DUP4 MSTORE PUSH1 0x24 DUP6 REVERT JUMPDEST PUSH1 0x1 SLOAD DUP4 SLOAD DUP6 MLOAD PUSH4 0x1A4CA37B PUSH1 0xE2 SHL DUP2 MSTORE PUSH1 0x1 PUSH1 0x1 PUSH1 0xA0 SHL SUB SWAP2 DUP3 AND DUP2 DUP8 ADD SWAP1 DUP2 MSTORE PUSH1 0x20 DUP2 DUP2 ADD DUP7 SWAP1 MSTORE ADDRESS PUSH1 0x40 DUP4 ADD MSTORE SWAP4 DUP5 SWAP2 DUP4 SWAP2 DUP6 AND SWAP1 DUP3 SWAP1 DUP13 SWAP1 DUP3 SWAP1 PUSH1 0x60 ADD SUB SWAP3 GAS CALL SWAP1 DUP2 ISZERO PUSH2 0xB3A JUMPI DUP4 SWAP2 PUSH2 0xB0C JUMPI JUMPDEST POP POP PUSH1 0x80 SWAP1 DUP7 MLOAD DUP8 DUP2 MSTORE PUSH1 0x13 DUP9 DUP3 ADD MSTORE PUSH19 0x2BB4BA34323932BB90333937B69020A0AB229D PUSH1 0x69 SHL PUSH1 0x60 DUP3 ADD MSTORE DUP5 DUP5 DUP3 ADD MSTORE PUSH32 0xDD970DD9B5BFE707922155B058A407655CB18288B807E2216442BCA8AD83D6B5 SWAP3 DUP4 SWAP2 LOG1 PUSH1 0x3 DUP6 LT ISZERO PUSH2 0xAF9 JUMPI DUP8 SWAP1 PUSH1 0x2 DUP7 EQ PUSH2 0x99C JUMPI JUMPDEST POP POP POP POP PUSH2 0x5FF JUMP JUMPDEST DUP7 SLOAD PUSH1 0x3 SLOAD DUP10 MLOAD PUSH4 0x95EA7B3 PUSH1 0xE0 SHL DUP2 MSTORE SWAP1 DUP4 AND PUSH1 0x1 PUSH1 0x1 PUSH1 0xA0 SHL SUB AND DUP2 DUP11 ADD SWAP1 DUP2 MSTORE PUSH1 0x20 DUP2 ADD DUP9 SWAP1 MSTORE SWAP1 SWAP2 DUP7 SWAP2 DUP4 SWAP2 DUP6 AND SWAP1 DUP3 SWAP1 DUP8 SWAP1 DUP3 SWAP1 PUSH1 0x40 ADD SUB SWAP3 GAS CALL DUP1 ISZERO PUSH2 0xAEF JUMPI PUSH2 0xAD2 JUMPI JUMPDEST POP PUSH1 0x3 SLOAD DUP8 SLOAD DUP3 AND SWAP2 AND DUP1 EXTCODESIZE ISZERO PUSH2 0x187 JUMPI DUP9 MLOAD PUSH4 0x1E573FB7 PUSH1 0xE3 SHL DUP2 MSTORE PUSH1 0x1 PUSH1 0x1 PUSH1 0xA0 SHL SUB SWAP1 SWAP3 AND DUP3 DUP10 ADD SWAP1 DUP2 MSTORE PUSH1 0x20 DUP2 ADD DUP8 SWAP1 MSTORE DUP4 SWAP2 DUP4 SWAP2 DUP3 SWAP1 DUP5 SWAP1 DUP3 SWAP1 PUSH1 0x40 ADD SUB SWAP3 GAS CALL DUP1 ISZERO PUSH2 0xAC8 JUMPI PUSH2 0xAAC JUMPI JUMPDEST POP POP SWAP1 PUSH32 0x7CE8FC55BB7C62DE108767205B2428D9D6332EDF725A22950A6E3513631F2CE9 SWAP3 PUSH1 0x60 SWAP3 PUSH1 0x80 DUP9 MLOAD DUP10 DUP2 MSTORE PUSH1 0x16 DUP11 DUP3 ADD MSTORE PUSH22 0x2232B837B9B4BA32B2103A379021B7B6B837BAB7321D PUSH1 0x51 SHL DUP7 DUP3 ADD MSTORE DUP4 DUP6 DUP3 ADD MSTORE LOG1 PUSH1 0x2 DUP8 MLOAD SWAP3 PUSH1 0x1 DUP5 MSTORE DUP4 ADD MSTORE DUP7 DUP3 ADD MSTORE LOG1 CODESIZE DUP1 DUP1 DUP7 DUP2 PUSH2 0x993 JUMP JUMPDEST PUSH2 0xAB8 SWAP1 SWAP4 SWAP3 SWAP4 PUSH2 0x10A5 JUMP JUMPDEST PUSH2 0xAC4 JUMPI SWAP1 DUP7 CODESIZE PUSH2 0xA38 JUMP JUMPDEST DUP7 DUP1 REVERT JUMPDEST DUP9 MLOAD RETURNDATASIZE DUP5 DUP3 RETURNDATACOPY RETURNDATASIZE SWAP1 REVERT JUMPDEST PUSH2 0xAE8 SWAP1 DUP6 RETURNDATASIZE DUP8 GT PUSH2 0x37B JUMPI PUSH2 0x36C DUP2 DUP4 PUSH2 0x10CF JUMP JUMPDEST POP CODESIZE PUSH2 0x9E7 JUMP JUMPDEST DUP10 MLOAD RETURNDATASIZE DUP6 DUP3 RETURNDATACOPY RETURNDATASIZE SWAP1 REVERT JUMPDEST PUSH4 0x4E487B71 PUSH1 0xE0 SHL DUP9 MSTORE PUSH1 0x21 DUP7 MSTORE PUSH1 0x24 DUP9 REVERT JUMPDEST DUP2 RETURNDATASIZE DUP4 GT PUSH2 0xB33 JUMPI JUMPDEST PUSH2 0xB1F DUP2 DUP4 PUSH2 0x10CF JUMP JUMPDEST DUP2 ADD SUB SLT PUSH2 0xB2E JUMPI DUP2 CODESIZE PUSH2 0x929 JUMP JUMPDEST PUSH1 0x0 DUP1 REVERT JUMPDEST POP RETURNDATASIZE PUSH2 0xB15 JUMP JUMPDEST DUP8 MLOAD RETURNDATASIZE DUP11 DUP3 RETURNDATACOPY RETURNDATASIZE SWAP1 REVERT JUMPDEST POP PUSH1 0x3 DUP3 LT ISZERO PUSH2 0x8C3 JUMPI PUSH1 0x1 DUP3 EQ ISZERO PUSH2 0x5FA JUMP JUMPDEST DUP4 CALLVALUE PUSH2 0x8AB JUMPI DUP1 PUSH1 0x3 NOT CALLDATASIZE ADD SLT PUSH2 0x8AB JUMPI PUSH2 0xB71 PUSH2 0x102D JUMP JUMPDEST PUSH1 0x0 DUP1 SLOAD PUSH1 0x1 PUSH1 0x1 PUSH1 0xA0 SHL SUB NOT DUP2 AND DUP3 SSTORE PUSH1 0x1 PUSH1 0x1 PUSH1 0xA0 SHL SUB AND PUSH32 0x8BE0079C531659141344CD1FD0A4F28419497F9722A3DAAFE3B4186F6B6457E0 DUP3 DUP1 LOG3 DUP1 RETURN JUMPDEST DUP4 DUP3 CALLVALUE PUSH2 0x1AF JUMPI DUP2 PUSH1 0x3 NOT CALLDATASIZE ADD SLT PUSH2 0x1AF JUMPI PUSH1 0x20 SWAP1 PUSH2 0x1A8 PUSH2 0x121F JUMP JUMPDEST DUP4 DUP3 CALLVALUE PUSH2 0x1AF JUMPI DUP2 PUSH1 0x3 NOT CALLDATASIZE ADD SLT PUSH2 0x1AF JUMPI PUSH1 0x5 SLOAD SWAP1 MLOAD PUSH1 0x1 PUSH1 0x1 PUSH1 0xA0 SHL SUB SWAP1 SWAP2 AND DUP2 MSTORE PUSH1 0x20 SWAP1 RETURN JUMPDEST DUP4 DUP3 CALLVALUE PUSH2 0x1AF JUMPI DUP2 PUSH1 0x3 NOT CALLDATASIZE ADD SLT PUSH2 0x1AF JUMPI PUSH1 0x20 SWAP1 PUSH2 0xC22 PUSH1 0xFF PUSH1 0x5 SLOAD PUSH1 0xA0 SHR AND SWAP2 MLOAD DUP1 SWAP3 PUSH2 0x100A JUMP JUMPDEST RETURN JUMPDEST DUP4 DUP3 CALLVALUE PUSH2 0x1AF JUMPI DUP2 PUSH1 0x3 NOT CALLDATASIZE ADD SLT PUSH2 0x1AF JUMPI PUSH1 0x3 SLOAD SWAP1 MLOAD PUSH1 0x1 PUSH1 0x1 PUSH1 0xA0 SHL SUB SWAP1 SWAP2 AND DUP2 MSTORE PUSH1 0x20 SWAP1 RETURN JUMPDEST POP SWAP1 CALLVALUE PUSH2 0x187 JUMPI DUP3 PUSH1 0x3 NOT CALLDATASIZE ADD SLT PUSH2 0x187 JUMPI SLOAD SWAP1 MLOAD PUSH1 0x1 PUSH1 0x1 PUSH1 0xA0 SHL SUB SWAP1 SWAP2 AND DUP2 MSTORE PUSH1 0x20 SWAP2 POP RETURN JUMPDEST POP DUP3 SWAP1 CALLVALUE PUSH2 0x1AF JUMPI DUP2 PUSH1 0x3 NOT CALLDATASIZE ADD SLT PUSH2 0x1AF JUMPI PUSH1 0x3 SLOAD DUP2 MLOAD PUSH4 0xAD2961A3 PUSH1 0xE0 SHL DUP2 MSTORE SWAP1 PUSH1 0x20 SWAP1 DUP3 SWAP1 DUP7 SWAP1 DUP3 SWAP1 PUSH1 0x1 PUSH1 0x1 PUSH1 0xA0 SHL SUB AND GAS STATICCALL DUP1 ISZERO PUSH2 0xD2C JUMPI DUP4 SWAP1 PUSH2 0xCF4 JUMPI JUMPDEST PUSH7 0x2386F26FC10000 SWAP2 POP DIV PUSH4 0x1E13380 SWAP1 DUP2 DUP2 MUL SWAP2 DUP2 DUP4 DIV EQ SWAP1 ISZERO OR ISZERO PUSH2 0x594 JUMPI PUSH1 0x64 SWAP1 DIV SWAP2 PUSH1 0x64 DUP4 ADD DUP1 SWAP4 GT PUSH2 0x581 JUMPI PUSH1 0x20 DUP4 DUP4 MLOAD SWAP1 DUP2 MSTORE RETURN JUMPDEST POP PUSH1 0x20 DUP2 RETURNDATASIZE DUP3 GT PUSH2 0xD24 JUMPI JUMPDEST DUP2 PUSH2 0xD0D PUSH1 0x20 SWAP4 DUP4 PUSH2 0x10CF JUMP JUMPDEST DUP2 ADD SUB SLT PUSH2 0xB2E JUMPI PUSH7 0x2386F26FC10000 SWAP1 MLOAD PUSH2 0xCB9 JUMP JUMPDEST RETURNDATASIZE SWAP2 POP PUSH2 0xD00 JUMP JUMPDEST POP POP MLOAD SWAP1 RETURNDATASIZE SWAP1 DUP3 RETURNDATACOPY RETURNDATASIZE SWAP1 REVERT JUMPDEST POP CALLVALUE PUSH2 0x187 JUMPI PUSH1 0x20 DUP1 PUSH1 0x3 NOT CALLDATASIZE ADD SLT PUSH2 0x351 JUMPI DUP3 CALLDATALOAD SWAP2 PUSH2 0xD56 PUSH2 0x102D JUMP JUMPDEST PUSH2 0xD61 DUP4 ISZERO ISZERO PUSH2 0x1059 JUMP JUMPDEST PUSH1 0xFF PUSH1 0x5 SLOAD PUSH1 0xA0 SHR AND PUSH1 0x3 DUP2 LT ISZERO PUSH2 0xF7A JUMPI PUSH1 0x1 DUP2 SUB PUSH2 0xEAA JUMPI POP PUSH1 0x1 SLOAD DUP5 SLOAD DUP3 MLOAD PUSH4 0x1A4CA37B PUSH1 0xE2 SHL DUP2 MSTORE PUSH1 0x1 PUSH1 0x1 PUSH1 0xA0 SHL SUB SWAP2 DUP3 AND DUP2 DUP9 ADD SWAP1 DUP2 MSTORE PUSH1 0x20 DUP2 ADD DUP8 SWAP1 MSTORE ADDRESS PUSH1 0x40 DUP3 ADD MSTORE SWAP1 SWAP3 DUP6 SWAP3 DUP5 SWAP3 DUP4 SWAP1 SUB PUSH1 0x60 ADD SWAP2 DUP4 SWAP2 DUP12 SWAP2 AND GAS CALL DUP1 ISZERO PUSH2 0xEA0 JUMPI PUSH2 0xE76 JUMPI JUMPDEST POP DUP2 DUP4 PUSH2 0xE11 SWAP6 JUMPDEST DUP1 SLOAD DUP9 SLOAD DUP6 MLOAD PUSH4 0xA9059CBB PUSH1 0xE0 SHL DUP2 MSTORE PUSH1 0x1 PUSH1 0x1 PUSH1 0xA0 SHL SUB SWAP2 DUP3 AND SWAP4 DUP2 ADD SWAP4 DUP5 MSTORE PUSH1 0x20 DUP5 ADD SWAP5 SWAP1 SWAP5 MSTORE SWAP3 SWAP8 DUP9 SWAP4 SWAP1 SWAP2 AND SWAP2 DUP4 SWAP2 DUP11 SWAP2 DUP4 SWAP2 PUSH1 0x40 SWAP1 SWAP2 ADD SWAP1 JUMP JUMPDEST SUB SWAP3 GAS CALL SWAP4 DUP5 ISZERO PUSH2 0xE6C JUMPI PUSH32 0x7084F5476618D8E60B11EF0D7D3F06914655ADB8793E28FF7F018D4C76D505D5 SWAP4 SWAP5 PUSH2 0xE4F JUMPI JUMPDEST POP MLOAD SWAP3 DUP4 MSTORE CALLER SWAP3 LOG2 DUP1 RETURN JUMPDEST PUSH2 0xE65 SWAP1 DUP4 RETURNDATASIZE DUP6 GT PUSH2 0x37B JUMPI PUSH2 0x36C DUP2 DUP4 PUSH2 0x10CF JUMP JUMPDEST POP CODESIZE PUSH2 0xE44 JUMP JUMPDEST DUP2 MLOAD RETURNDATASIZE DUP8 DUP3 RETURNDATACOPY RETURNDATASIZE SWAP1 REVERT JUMPDEST DUP3 SWAP1 DUP2 RETURNDATASIZE DUP4 GT PUSH2 0xE99 JUMPI JUMPDEST PUSH2 0xE8B DUP2 DUP4 PUSH2 0x10CF JUMP JUMPDEST DUP2 ADD SUB SLT PUSH2 0xB2E JUMPI CODESIZE PUSH2 0xDCA JUMP JUMPDEST POP RETURNDATASIZE PUSH2 0xE81 JUMP JUMPDEST DUP3 MLOAD RETURNDATASIZE DUP9 DUP3 RETURNDATACOPY RETURNDATASIZE SWAP1 REVERT JUMPDEST SWAP4 SWAP5 SWAP4 PUSH1 0x2 SUB PUSH2 0xF42 JUMPI PUSH1 0x3 SLOAD DUP6 SLOAD PUSH1 0x1 PUSH1 0x1 PUSH1 0xA0 SHL SUB SWAP2 DUP3 AND SWAP2 AND DUP2 EXTCODESIZE ISZERO PUSH2 0xF3E JUMPI DUP3 MLOAD PUSH4 0xF3FEF3A3 PUSH1 0xE0 SHL DUP2 MSTORE PUSH1 0x1 PUSH1 0x1 PUSH1 0xA0 SHL SUB SWAP1 SWAP2 AND DUP2 DUP9 ADD SWAP1 DUP2 MSTORE PUSH1 0x20 DUP2 ADD DUP7 SWAP1 MSTORE SWAP1 SWAP2 DUP7 SWAP2 DUP4 SWAP2 SWAP1 DUP3 SWAP1 DUP5 SWAP1 DUP3 SWAP1 PUSH1 0x40 ADD SUB SWAP3 GAS CALL DUP1 ISZERO PUSH2 0xF34 JUMPI PUSH2 0xF1D JUMPI JUMPDEST POP DUP2 DUP4 PUSH2 0xE11 SWAP6 SWAP7 PUSH2 0xDD2 JUMP JUMPDEST DUP4 PUSH2 0xE11 SWAP6 PUSH2 0xF2C DUP6 SWAP4 PUSH2 0x10A5 JUMP JUMPDEST SWAP6 POP POP PUSH2 0xF10 JUMP JUMPDEST DUP3 MLOAD RETURNDATASIZE DUP8 DUP3 RETURNDATACOPY RETURNDATASIZE SWAP1 REVERT JUMPDEST DUP6 DUP1 REVERT JUMPDEST MLOAD PUSH3 0x461BCD PUSH1 0xE5 SHL DUP2 MSTORE DUP1 DUP6 ADD SWAP2 SWAP1 SWAP2 MSTORE PUSH1 0x12 PUSH1 0x24 DUP3 ADD MSTORE PUSH18 0x139BC8199D5B991CC819195C1BDCDA5D1959 PUSH1 0x72 SHL PUSH1 0x44 DUP3 ADD MSTORE PUSH1 0x64 SWAP1 REVERT JUMPDEST PUSH4 0x4E487B71 PUSH1 0xE0 SHL DUP7 MSTORE PUSH1 0x21 DUP6 MSTORE PUSH1 0x24 DUP7 REVERT JUMPDEST DUP4 DUP3 CALLVALUE PUSH2 0x1AF JUMPI DUP2 PUSH1 0x3 NOT CALLDATASIZE ADD SLT PUSH2 0x1AF JUMPI PUSH1 0x20 SWAP1 PUSH2 0xC22 PUSH2 0xFAD PUSH2 0x1109 JUMP JUMPDEST SWAP2 MLOAD DUP1 SWAP3 PUSH2 0x100A JUMP JUMPDEST POP DUP3 SWAP1 CALLVALUE PUSH2 0x1AF JUMPI DUP2 PUSH1 0x3 NOT CALLDATASIZE ADD SLT PUSH2 0x1AF JUMPI PUSH2 0xFD1 PUSH2 0x121F JUMP JUMPDEST SWAP2 PUSH2 0xFDA PUSH2 0x128B JUMP JUMPDEST DUP4 ADD DUP1 SWAP4 GT PUSH2 0x581 JUMPI PUSH1 0x20 DUP4 DUP4 MLOAD SWAP1 DUP2 MSTORE RETURN JUMPDEST DUP4 DUP3 CALLVALUE PUSH2 0x1AF JUMPI DUP2 PUSH1 0x3 NOT CALLDATASIZE ADD SLT PUSH2 0x1AF JUMPI PUSH1 0x20 SWAP1 PUSH2 0x1A8 PUSH2 0x1196 JUMP JUMPDEST SWAP1 PUSH1 0x3 DUP3 LT ISZERO PUSH2 0x1017 JUMPI MSTORE JUMP JUMPDEST PUSH4 0x4E487B71 PUSH1 0xE0 SHL PUSH1 0x0 MSTORE PUSH1 0x21 PUSH1 0x4 MSTORE PUSH1 0x24 PUSH1 0x0 REVERT JUMPDEST PUSH1 0x0 SLOAD PUSH1 0x1 PUSH1 0x1 PUSH1 0xA0 SHL SUB AND CALLER SUB PUSH2 0x1041 JUMPI JUMP JUMPDEST PUSH1 0x40 MLOAD PUSH4 0x118CDAA7 PUSH1 0xE0 SHL DUP2 MSTORE CALLER PUSH1 0x4 DUP3 ADD MSTORE PUSH1 0x24 SWAP1 REVERT JUMPDEST ISZERO PUSH2 0x1060 JUMPI JUMP JUMPDEST PUSH1 0x40 MLOAD PUSH3 0x461BCD PUSH1 0xE5 SHL DUP2 MSTORE PUSH1 0x20 PUSH1 0x4 DUP3 ADD MSTORE PUSH1 0x1D PUSH1 0x24 DUP3 ADD MSTORE PUSH32 0x416D6F756E74206D7573742062652067726561746572207468616E2030000000 PUSH1 0x44 DUP3 ADD MSTORE PUSH1 0x64 SWAP1 REVERT JUMPDEST PUSH8 0xFFFFFFFFFFFFFFFF DUP2 GT PUSH2 0x10B9 JUMPI PUSH1 0x40 MSTORE JUMP JUMPDEST PUSH4 0x4E487B71 PUSH1 0xE0 SHL PUSH1 0x0 MSTORE PUSH1 0x41 PUSH1 0x4 MSTORE PUSH1 0x24 PUSH1 0x0 REVERT JUMPDEST SWAP1 PUSH1 0x1F DUP1 NOT SWAP2 ADD AND DUP2 ADD SWAP1 DUP2 LT PUSH8 0xFFFFFFFFFFFFFFFF DUP3 GT OR PUSH2 0x10B9 JUMPI PUSH1 0x40 MSTORE JUMP JUMPDEST SWAP1 DUP2 PUSH1 0x20 SWAP2 SUB SLT PUSH2 0xB2E JUMPI MLOAD DUP1 ISZERO ISZERO DUP2 SUB PUSH2 0xB2E JUMPI SWAP1 JUMP JUMPDEST PUSH1 0x4 PUSH2 0x1113 PUSH2 0x1196 JUMP JUMPDEST PUSH1 0x3 SLOAD PUSH1 0x40 MLOAD PUSH4 0xAD2961A3 PUSH1 0xE0 SHL DUP2 MSTORE SWAP3 PUSH1 0x20 SWAP2 DUP5 SWAP2 SWAP1 DUP3 SWAP1 PUSH1 0x1 PUSH1 0x1 PUSH1 0xA0 SHL SUB AND GAS STATICCALL SWAP2 DUP3 ISZERO PUSH2 0x118A JUMPI PUSH1 0x0 SWAP3 PUSH2 0x1157 JUMPI JUMPDEST POP GT ISZERO PUSH2 0x1152 JUMPI PUSH1 0x1 SWAP1 JUMP JUMPDEST PUSH1 0x2 SWAP1 JUMP JUMPDEST SWAP1 SWAP2 PUSH1 0x20 DUP3 RETURNDATASIZE DUP3 GT PUSH2 0x1182 JUMPI JUMPDEST DUP2 PUSH2 0x1171 PUSH1 0x20 SWAP4 DUP4 PUSH2 0x10CF JUMP JUMPDEST DUP2 ADD SUB SLT PUSH2 0x8AB JUMPI POP MLOAD SWAP1 CODESIZE PUSH2 0x1146 JUMP JUMPDEST RETURNDATASIZE SWAP2 POP PUSH2 0x1164 JUMP JUMPDEST PUSH1 0x40 MLOAD RETURNDATASIZE PUSH1 0x0 DUP3 RETURNDATACOPY RETURNDATASIZE SWAP1 REVERT JUMPDEST PUSH1 0x1 DUP1 PUSH1 0xA0 SHL SUB DUP1 PUSH1 0x1 SLOAD AND SWAP1 PUSH1 0x4 SLOAD AND PUSH1 0x40 MLOAD SWAP2 DUP3 SWAP2 PUSH4 0x35EA6A75 PUSH1 0xE0 SHL DUP4 MSTORE PUSH1 0x4 DUP4 ADD MSTORE DUP2 PUSH1 0x24 PUSH2 0x180 SWAP4 DUP5 SWAP4 GAS STATICCALL SWAP1 DUP2 ISZERO PUSH2 0x118A JUMPI PUSH1 0x0 SWAP2 PUSH2 0x11DC JUMPI JUMPDEST POP SWAP1 POP SWAP1 JUMP JUMPDEST DUP3 DUP2 RETURNDATASIZE DUP4 GT PUSH2 0x1218 JUMPI JUMPDEST PUSH2 0x11F0 DUP2 DUP4 PUSH2 0x10CF JUMP JUMPDEST DUP2 ADD SUB SLT PUSH2 0x8AB JUMPI PUSH2 0x160 PUSH1 0xA0 DUP4 ADD MLOAD SWAP3 ADD MLOAD PUSH5 0xFFFFFFFFFF DUP2 AND SUB PUSH2 0x8AB JUMPI POP DUP1 CODESIZE PUSH2 0x11D6 JUMP JUMPDEST POP RETURNDATASIZE PUSH2 0x11E6 JUMP JUMPDEST PUSH1 0x5 SLOAD PUSH1 0x40 MLOAD PUSH4 0x70A08231 PUSH1 0xE0 SHL DUP2 MSTORE ADDRESS PUSH1 0x4 DUP3 ADD MSTORE SWAP1 PUSH1 0x20 SWAP1 DUP3 SWAP1 PUSH1 0x24 SWAP1 DUP3 SWAP1 PUSH1 0x1 PUSH1 0x1 PUSH1 0xA0 SHL SUB AND GAS STATICCALL SWAP1 DUP2 ISZERO PUSH2 0x118A JUMPI PUSH1 0x0 SWAP2 PUSH2 0x125D JUMPI POP SWAP1 JUMP JUMPDEST SWAP1 PUSH1 0x20 DUP3 RETURNDATASIZE DUP3 GT PUSH2 0x1283 JUMPI JUMPDEST DUP2 PUSH2 0x1276 PUSH1 0x20 SWAP4 DUP4 PUSH2 0x10CF JUMP JUMPDEST DUP2 ADD SUB SLT PUSH2 0x8AB JUMPI POP MLOAD SWAP1 JUMP JUMPDEST RETURNDATASIZE SWAP2 POP PUSH2 0x1269 JUMP JUMPDEST PUSH1 0x3 SLOAD PUSH1 0x40 MLOAD PUSH4 0x70A08231 PUSH1 0xE0 SHL DUP2 MSTORE ADDRESS PUSH1 0x4 DUP3 ADD MSTORE SWAP1 PUSH1 0x20 SWAP1 DUP3 SWAP1 PUSH1 0x24 SWAP1 DUP3 SWAP1 PUSH1 0x1 PUSH1 0x1 PUSH1 0xA0 SHL SUB AND GAS STATICCALL SWAP1 DUP2 ISZERO PUSH2 0x118A JUMPI PUSH1 0x0 SWAP2 PUSH2 0x125D JUMPI POP SWAP1 JUMP INVALID LOG2 PUSH5 0x6970667358 0x22 SLT KECCAK256 DIV 0xBF BASEFEE 0xE9 0xE0 0xB9 0xA5 PUSH20 0x7BCD82DFEFDA0D4179C670F93C4D0571401BB883 0xBC 0xCF 0xA7 PUSH4 0x64736F6C PUSH4 0x43000814 STOP CALLER "},"methodIdentifiers":{"aUSDC()":"559fda33","aaveDataProvider()":"a4f4acc5","aavePool()":"a03e4bc3","compoundComet()":"488a07b7","currentProtocol()":"51e19366","deposit(uint256)":"b6b55f25","getAaveAPY()":"8dad36a5","getAaveBalance()":"6237f686","getAaveSupplyRate()":"0bccacbd","getBestProtocol()":"2aefb3a4","getCompoundAPY()":"38d4dff8","getCompoundBalance()":"d42d5b75","getTotalBalance()":"12b58349","owner()":"8da5cb5b","rebalance()":"7d7c2a1c","renounceOwnership()":"715018a6","transferOwnership(address)":"f2fde38b","usdc()":"3e413bee","withdraw(uint256)":"2e1a7d4d"}}}}}