{"contracts/mocks/MockAaveV3.sol":{"MockAaveV3":{"abi":[{"inputs":[{"internalType":"address","name":"asset","type":"address"}],"name":"accrueInterest","outputs":[],"stateMutability":"nonpayable","type":"function"},{"inputs":[{"internalType":"address","name":"asset","type":"address"},{"internalType":"uint256","name":"amount","type":"uint256"},{"internalType":"address","name":"onBehalfOf","type":"address"},{"internalType":"uint16","name":"referralCode","type":"uint16"}],"name":"deposit","outputs":[],"stateMutability":"nonpayable","type":"function"},{"inputs":[{"internalType":"address","name":"user","type":"address"},{"internalType":"address","name":"asset","type":"address"}],"name":"getBalance","outputs":[{"internalType":"uint256","name":"","type":"uint256"}],"stateMutability":"view","type":"function"},{"inputs":[{"internalType":"address","name":"asset","type":"address"}],"name":"getInterestRate","outputs":[{"internalType":"uint256","name":"","type":"uint256"}],"stateMutability":"view","type":"function"},{"inputs":[{"internalType":"address","name":"asset","type":"address"},{"internalType":"uint256","name":"rate","type":"uint256"}],"name":"setInterestRate","outputs":[],"stateMutability":"nonpayable","type":"function"},{"inputs":[{"internalType":"address","name":"asset","type":"address"},{"internalType":"uint256","name":"amount","type":"uint256"},{"internalType":"address","name":"to","type":"address"}],"name":"withdraw","outputs":[{"internalType":"uint256","name":"","type":"uint256"}],"stateMutability":"nonpayable","type":"function"}],"evm":{"bytecode":{"linkReferences":{},"object":"608080604052346100165761040c908161001c8239f35b600080fdfe6080604081815260048036101561001557600080fd5b600092833560e01c90816369328dec146102345750806373e5515e146102005780639198e515146101df578063d3ea0f89146101a7578063d4fac45d146101515763e8eda9df1461006557600080fd5b3461014d57608036600319011261014d5761007e610355565b916024359261008b610370565b9060643561ffff8116036101495782516323b872dd60e01b81523385820152306024820152604481018690526001600160a01b0391821692906020816064818b885af1801561013f57610111575b501685528460205281852090855260205283209081549283018093116100fe57505580f35b634e487b7160e01b845260119052602483fd5b6101319060203d8111610138575b6101298183610386565b8101906103be565b50386100d9565b503d61011f565b85513d8a823e3d90fd5b8580fd5b8280fd5b5050346101a357806003193601126101a35761016b610355565b6001600160a01b03602435818116929083900361019f57168352602083815282842091845290815291819020549051908152f35b8480fd5b5080fd5b5050346101a35760203660031901126101a35760209181906001600160a01b036101cf610355565b1681526001845220549051908152f35b83346101fd5760203660031901126101fd576101f9610355565b5080f35b80fd5b5050346101a357806003193601126101a3576001600160a01b03610222610355565b16825260016020526024359082205580f35b8484843461014d57606036600319011261014d57610250610355565b926024359361025d610370565b33835260208381528584206001600160a01b039384168086529082528685205491989091881161031d5750338452838852858420818552885285842080549088820391821161030a576044928a9594928792558851978895869463a9059cbb60e01b865216908401528960248401525af19081156102ff57506102e2575b5051908152f35b6102f890843d8611610138576101298183610386565b50836102db565b8351903d90823e3d90fd5b634e487b7160e01b865260118752602486fd5b62461bcd60e51b81528581018990526014602482015273496e73756666696369656e742062616c616e636560601b6044820152606490fd5b600435906001600160a01b038216820361036b57565b600080fd5b604435906001600160a01b038216820361036b57565b90601f8019910116810190811067ffffffffffffffff8211176103a857604052565b634e487b7160e01b600052604160045260246000fd5b9081602091031261036b5751801515810361036b579056fea264697066735822122050d6cd665e1c6bb1247858f1585c15b54d3f00ca14b25a8e79dfeaa034de36d864736f6c63430008140033","opcodes":"PUSH1 0x80 DUP1 PUSH1 0x40 MSTORE CALLVALUE PUSH2 0x16 JUMPI PUSH2 0x40C SWAP1 DUP2 PUSH2 0x1C DUP3 CODECOPY RETURN JUMPDEST PUSH1 0x0 DUP1 REVERT INVALID PUSH1 0x80 PUSH1 0x40 DUP2 DUP2 MSTORE PUSH1 0x4 DUP1 CALLDATASIZE LT ISZERO PUSH2 0x15 JUMPI PUSH1 0x0 DUP1 REVERT JUMPDEST PUSH1 0x0 SWAP3 DUP4 CALLDATALOAD PUSH1 0xE0 SHR SWAP1 DUP2 PUSH4 0x69328DEC EQ PUSH2 0x234 JUMPI POP DUP1 PUSH4 0x73E5515E EQ PUSH2 0x200 JUMPI DUP1 PUSH4 0x9198E515 EQ PUSH2 0x1DF JUMPI DUP1 PUSH4 0xD3EA0F89 EQ PUSH2 0x1A7 JUMPI DUP1 PUSH4 0xD4FAC45D EQ PUSH2 0x151 JUMPI PUSH4 0xE8EDA9DF EQ PUSH2 0x65 JUMPI PUSH1 0x0 DUP1 REVERT JUMPDEST CALLVALUE PUSH2 0x14D JUMPI PUSH1 0x80 CALLDATASIZE PUSH1 0x3 NOT ADD SLT PUSH2 0x14D JUMPI PUSH2 0x7E PUSH2 0x355 JUMP JUMPDEST SWAP2 PUSH1 0x24 CALLDATALOAD SWAP3 PUSH2 0x8B PUSH2 0x370 JUMP JUMPDEST SWAP1 PUSH1 0x64 CALLDATALOAD PUSH2 0xFFFF DUP2 AND SUB PUSH2 0x149 JUMPI DUP3 MLOAD PUSH4 0x23B872DD PUSH1 0xE0 SHL DUP2 MSTORE CALLER DUP6 DUP3 ADD MSTORE ADDRESS PUSH1 0x24 DUP3 ADD MSTORE PUSH1 0x44 DUP2 ADD DUP7 SWAP1 MSTORE PUSH1 0x1 PUSH1 0x1 PUSH1 0xA0 SHL SUB SWAP2 DUP3 AND SWAP3 SWAP1 PUSH1 0x20 DUP2 PUSH1 0x64 DUP2 DUP12 DUP9 GAS CALL DUP1 ISZERO PUSH2 0x13F JUMPI PUSH2 0x111 JUMPI JUMPDEST POP AND DUP6 MSTORE DUP5 PUSH1 0x20 MSTORE DUP2 DUP6 KECCAK256 SWAP1 DUP6 MSTORE PUSH1 0x20 MSTORE DUP4 KECCAK256 SWAP1 DUP2 SLOAD SWAP3 DUP4 ADD DUP1 SWAP4 GT PUSH2 0xFE JUMPI POP SSTORE DUP1 RETURN JUMPDEST PUSH4 0x4E487B71 PUSH1 0xE0 SHL DUP5 MSTORE PUSH1 0x11 SWAP1 MSTORE PUSH1 0x24 DUP4 REVERT JUMPDEST PUSH2 0x131 SWAP1 PUSH1 0x20 RETURNDATASIZE DUP2 GT PUSH2 0x138 JUMPI JUMPDEST PUSH2 0x129 DUP2 DUP4 PUSH2 0x386 JUMP JUMPDEST DUP2 ADD SWAP1 PUSH2 0x3BE JUMP JUMPDEST POP CODESIZE PUSH2 0xD9 JUMP JUMPDEST POP RETURNDATASIZE PUSH2 0x11F JUMP JUMPDEST DUP6 MLOAD RETURNDATASIZE DUP11 DUP3 RETURNDATACOPY RETURNDATASIZE SWAP1 REVERT JUMPDEST DUP6 DUP1 REVERT JUMPDEST DUP3 DUP1 REVERT JUMPDEST POP POP CALLVALUE PUSH2 0x1A3 JUMPI DUP1 PUSH1 0x3 NOT CALLDATASIZE ADD SLT PUSH2 0x1A3 JUMPI PUSH2 0x16B PUSH2 0x355 JUMP JUMPDEST PUSH1 0x1 PUSH1 0x1 PUSH1 0xA0 SHL SUB PUSH1 0x24 CALLDATALOAD DUP2 DUP2 AND SWAP3 SWAP1 DUP4 SWAP1 SUB PUSH2 0x19F JUMPI AND DUP4 MSTORE PUSH1 0x20 DUP4 DUP2 MSTORE DUP3 DUP5 KECCAK256 SWAP2 DUP5 MSTORE SWAP1 DUP2 MSTORE SWAP2 DUP2 SWAP1 KECCAK256 SLOAD SWAP1 MLOAD SWAP1 DUP2 MSTORE RETURN JUMPDEST DUP5 DUP1 REVERT JUMPDEST POP DUP1 REVERT JUMPDEST POP POP CALLVALUE PUSH2 0x1A3 JUMPI PUSH1 0x20 CALLDATASIZE PUSH1 0x3 NOT ADD SLT PUSH2 0x1A3 JUMPI PUSH1 0x20 SWAP2 DUP2 SWAP1 PUSH1 0x1 PUSH1 0x1 PUSH1 0xA0 SHL SUB PUSH2 0x1CF PUSH2 0x355 JUMP JUMPDEST AND DUP2 MSTORE PUSH1 0x1 DUP5 MSTORE KECCAK256 SLOAD SWAP1 MLOAD SWAP1 DUP2 MSTORE RETURN JUMPDEST DUP4 CALLVALUE PUSH2 0x1FD JUMPI PUSH1 0x20 CALLDATASIZE PUSH1 0x3 NOT ADD SLT PUSH2 0x1FD JUMPI PUSH2 0x1F9 PUSH2 0x355 JUMP JUMPDEST POP DUP1 RETURN JUMPDEST DUP1 REVERT JUMPDEST POP POP CALLVALUE PUSH2 0x1A3 JUMPI DUP1 PUSH1 0x3 NOT CALLDATASIZE ADD SLT PUSH2 0x1A3 JUMPI PUSH1 0x1 PUSH1 0x1 PUSH1 0xA0 SHL SUB PUSH2 0x222 PUSH2 0x355 JUMP JUMPDEST AND DUP3 MSTORE PUSH1 0x1 PUSH1 0x20 MSTORE PUSH1 0x24 CALLDATALOAD SWAP1 DUP3 KECCAK256 SSTORE DUP1 RETURN JUMPDEST DUP5 DUP5 DUP5 CALLVALUE PUSH2 0x14D JUMPI PUSH1 0x60 CALLDATASIZE PUSH1 0x3 NOT ADD SLT PUSH2 0x14D JUMPI PUSH2 0x250 PUSH2 0x355 JUMP JUMPDEST SWAP3 PUSH1 0x24 CALLDATALOAD SWAP4 PUSH2 0x25D PUSH2 0x370 JUMP JUMPDEST CALLER DUP4 MSTORE PUSH1 0x20 DUP4 DUP2 MSTORE DUP6 DUP5 KECCAK256 PUSH1 0x1 PUSH1 0x1 PUSH1 0xA0 SHL SUB SWAP4 DUP5 AND DUP1 DUP7 MSTORE SWAP1 DUP3 MSTORE DUP7 DUP6 KECCAK256 SLOAD SWAP2 SWAP9 SWAP1 SWAP2 DUP9 GT PUSH2 0x31D JUMPI POP CALLER DUP5 MSTORE DUP4 DUP9 MSTORE DUP6 DUP5 KECCAK256 DUP2 DUP6 MSTORE DUP9 MSTORE DUP6 DUP5 KECCAK256 DUP1 SLOAD SWAP1 DUP9 DUP3 SUB SWAP2 DUP3 GT PUSH2 0x30A JUMPI PUSH1 0x44 SWAP3 DUP11 SWAP6 SWAP5 SWAP3 DUP8 SWAP3 SSTORE DUP9 MLOAD SWAP8 DUP9 SWAP6 DUP7 SWAP5 PUSH4 0xA9059CBB PUSH1 0xE0 SHL DUP7 MSTORE AND SWAP1 DUP5 ADD MSTORE DUP10 PUSH1 0x24 DUP5 ADD MSTORE GAS CALL SWAP1 DUP2 ISZERO PUSH2 0x2FF JUMPI POP PUSH2 0x2E2 JUMPI JUMPDEST POP MLOAD SWAP1 DUP2 MSTORE RETURN JUMPDEST PUSH2 0x2F8 SWAP1 DUP5 RETURNDATASIZE DUP7 GT PUSH2 0x138 JUMPI PUSH2 0x129 DUP2 DUP4 PUSH2 0x386 JUMP JUMPDEST POP DUP4 PUSH2 0x2DB JUMP JUMPDEST DUP4 MLOAD SWAP1 RETURNDATASIZE SWAP1 DUP3 RETURNDATACOPY RETURNDATASIZE SWAP1 REVERT JUMPDEST PUSH4 0x4E487B71 PUSH1 0xE0 SHL DUP7 MSTORE PUSH1 0x11 DUP8 MSTORE PUSH1 0x24 DUP7 REVERT JUMPDEST PUSH3 0x461BCD PUSH1 0xE5 SHL DUP2 MSTORE DUP6 DUP2 ADD DUP10 SWAP1 MSTORE PUSH1 0x14 PUSH1 0x24 DUP3 ADD MSTORE PUSH20 0x496E73756666696369656E742062616C616E6365 PUSH1 0x60 SHL PUSH1 0x44 DUP3 ADD MSTORE PUSH1 0x64 SWAP1 REVERT JUMPDEST PUSH1 0x4 CALLDATALOAD SWAP1 PUSH1 0x1 PUSH1 0x1 PUSH1 0xA0 SHL SUB DUP3 AND DUP3 SUB PUSH2 0x36B JUMPI JUMP JUMPDEST PUSH1 0x0 DUP1 REVERT JUMPDEST PUSH1 0x44 CALLDATALOAD SWAP1 PUSH1 0x1 PUSH1 0x1 PUSH1 0xA0 SHL SUB DUP3 AND DUP3 SUB PUSH2 0x36B JUMPI JUMP JUMPDEST SWAP1 PUSH1 0x1F DUP1 NOT SWAP2 ADD AND DUP2 ADD SWAP1 DUP2 LT PUSH8 0xFFFFFFFFFFFFFFFF DUP3 GT OR PUSH2 0x3A8 JUMPI PUSH1 0x40 MSTORE JUMP JUMPDEST PUSH4 0x4E487B71 PUSH1 0xE0 SHL PUSH1 0x0 MSTORE PUSH1 0x41 PUSH1 0x4 MSTORE PUSH1 0x24 PUSH1 0x0 REVERT JUMPDEST SWAP1 DUP2 PUSH1 0x20 SWAP2 SUB SLT PUSH2 0x36B JUMPI MLOAD DUP1 ISZERO ISZERO DUP2 SUB PUSH2 0x36B JUMPI SWAP1 JUMP INVALID LOG2 PUSH5 0x6970667358 0x22 SLT KECCAK256 POP 0xD6 0xCD PUSH7 0x5E1C6BB1247858 CALL PC 0x5C ISZERO 0xB5 0x4D EXTCODEHASH STOP 0xCA EQ 0xB2 GAS DUP15 PUSH26 0xDFEAA034DE36D864736F6C634300081400330000000000000000 "},"methodIdentifiers":{"accrueInterest(address)":"9198e515","deposit(address,uint256,address,uint16)":"e8eda9df","getBalance(address,address)":"d4fac45d","getInterestRate(address)":"d3ea0f89","setInterestRate(address,uint256)":"73e5515e","withdraw(address,uint256,address)":"69328dec"}}}}}