{
  "_format": "hh-sol-artifact-1",
  "contractName": "MockCompoundV3",
  "sourceName": "contracts/mocks/MockCompoundV3.sol",
  "abi": [
    {
      "inputs": [],
      "name": "accrueInterest",
      "outputs": [],
      "stateMutability": "nonpayable",
      "type": "function"
    },
    {
      "inputs": [],
      "name": "defaultAsset",
      "outputs": [
        {
          "internalType": "address",
          "name": "",
          "type": "address"
        }
      ],
      "stateMutability": "view",
      "type": "function"
    },
    {
      "inputs": [
        {
          "internalType": "address",
          "name": "user",
          "type": "address"
        }
      ],
      "name": "getBalance",
      "outputs": [
        {
          "internalType": "uint256",
          "name": "",
          "type": "uint256"
        }
      ],
      "stateMutability": "view",
      "type": "function"
    },
    {
      "inputs": [
        {
          "internalType": "address",
          "name": "asset",
          "type": "address"
        }
      ],
      "name": "getSupplyRate",
      "outputs": [
        {
          "internalType": "uint256",
          "name": "",
          "type": "uint256"
        }
      ],
      "stateMutability": "view",
      "type": "function"
    },
    {
      "inputs": [
        {
          "internalType": "uint256",
          "name": "amount",
          "type": "uint256"
        }
      ],
      "name": "redeem",
      "outputs": [],
      "stateMutability": "nonpayable",
      "type": "function"
    },
    {
      "inputs": [
        {
          "internalType": "address",
          "name": "asset",
          "type": "address"
        },
        {
          "internalType": "uint256",
          "name": "rate",
          "type": "uint256"
        }
      ],
      "name": "setSupplyRate",
      "outputs": [],
      "stateMutability": "nonpayable",
      "type": "function"
    },
    {
      "inputs": [
        {
          "internalType": "address",
          "name": "asset",
          "type": "address"
        },
        {
          "internalType": "uint256",
          "name": "amount",
          "type": "uint256"
        }
      ],
      "name": "supply",
      "outputs": [],
      "stateMutability": "nonpayable",
      "type": "function"
    }
  ],
  "bytecode": "0x608060405234801561001057600080fd5b506109c2806100206000396000f3fe608060405234801561001057600080fd5b506004361061007d5760003560e01c8063d3fe312e1161005b578063d3fe312e146100da578063db006a75146100f6578063f2b9fdb814610112578063f8b2cb4f1461012e5761007d565b80636b5441a9146100825780637b20c8f4146100b2578063a6afed95146100d0575b600080fd5b61009c60048036038101906100979190610623565b61015e565b6040516100a99190610669565b60405180910390f35b6100ba6101a7565b6040516100c79190610693565b60405180910390f35b6100d86101cd565b005b6100f460048036038101906100ef91906106da565b6101cf565b005b610110600480360381019061010b919061071a565b610217565b005b61012c600480360381019061012791906106da565b610406565b005b61014860048036038101906101439190610623565b610578565b6040516101559190610669565b60405180910390f35b6000600160008373ffffffffffffffffffffffffffffffffffffffff1673ffffffffffffffffffffffffffffffffffffffff168152602001908152602001600020549050919050565b600260009054906101000a900473ffffffffffffffffffffffffffffffffffffffff1681565b565b80600160008473ffffffffffffffffffffffffffffffffffffffff1673ffffffffffffffffffffffffffffffffffffffff168152602001908152602001600020819055505050565b806000803373ffffffffffffffffffffffffffffffffffffffff1673ffffffffffffffffffffffffffffffffffffffff168152602001908152602001600020541015610298576040517f08c379a000000000000000000000000000000000000000000000000000000000815260040161028f906107a4565b60405180910390fd5b6000600260009054906101000a900473ffffffffffffffffffffffffffffffffffffffff169050600073ffffffffffffffffffffffffffffffffffffffff168173ffffffffffffffffffffffffffffffffffffffff160361032e576040517f08c379a000000000000000000000000000000000000000000000000000000000815260040161032590610810565b60405180910390fd5b816000803373ffffffffffffffffffffffffffffffffffffffff1673ffffffffffffffffffffffffffffffffffffffff168152602001908152602001600020600082825461037c919061085f565b925050819055508073ffffffffffffffffffffffffffffffffffffffff1663a9059cbb33846040518363ffffffff1660e01b81526004016103be929190610893565b6020604051808303816000875af11580156103dd573d6000803e3d6000fd5b505050506040513d601f19601f8201168201806040525081019061040191906108f4565b505050565b8173ffffffffffffffffffffffffffffffffffffffff166323b872dd3330846040518463ffffffff1660e01b815260040161044393929190610921565b6020604051808303816000875af1158015610462573d6000803e3d6000fd5b505050506040513d601f19601f8201168201806040525081019061048691906108f4565b50806000803373ffffffffffffffffffffffffffffffffffffffff1673ffffffffffffffffffffffffffffffffffffffff16815260200190815260200160002060008282546104d59190610958565b92505081905550600073ffffffffffffffffffffffffffffffffffffffff16600260009054906101000a900473ffffffffffffffffffffffffffffffffffffffff1673ffffffffffffffffffffffffffffffffffffffff16036105745781600260006101000a81548173ffffffffffffffffffffffffffffffffffffffff021916908373ffffffffffffffffffffffffffffffffffffffff1602179055505b5050565b60008060008373ffffffffffffffffffffffffffffffffffffffff1673ffffffffffffffffffffffffffffffffffffffff168152602001908152602001600020549050919050565b600080fd5b600073ffffffffffffffffffffffffffffffffffffffff82169050919050565b60006105f0826105c5565b9050919050565b610600816105e5565b811461060b57600080fd5b50565b60008135905061061d816105f7565b92915050565b600060208284031215610639576106386105c0565b5b60006106478482850161060e565b91505092915050565b6000819050919050565b61066381610650565b82525050565b600060208201905061067e600083018461065a565b92915050565b61068d816105e5565b82525050565b60006020820190506106a86000830184610684565b92915050565b6106b781610650565b81146106c257600080fd5b50565b6000813590506106d4816106ae565b92915050565b600080604083850312156106f1576106f06105c0565b5b60006106ff8582860161060e565b9250506020610710858286016106c5565b9150509250929050565b6000602082840312156107305761072f6105c0565b5b600061073e848285016106c5565b91505092915050565b600082825260208201905092915050565b7f496e73756666696369656e742062616c616e6365000000000000000000000000600082015250565b600061078e601483610747565b915061079982610758565b602082019050919050565b600060208201905081810360008301526107bd81610781565b9050919050565b7f4e6f20617373657420646566696e656400000000000000000000000000000000600082015250565b60006107fa601083610747565b9150610805826107c4565b602082019050919050565b60006020820190508181036000830152610829816107ed565b9050919050565b7f4e487b7100000000000000000000000000000000000000000000000000000000600052601160045260246000fd5b600061086a82610650565b915061087583610650565b925082820390508181111561088d5761088c610830565b5b92915050565b60006040820190506108a86000830185610684565b6108b5602083018461065a565b9392505050565b60008115159050919050565b6108d1816108bc565b81146108dc57600080fd5b50565b6000815190506108ee816108c8565b92915050565b60006020828403121561090a576109096105c0565b5b6000610918848285016108df565b91505092915050565b60006060820190506109366000830186610684565b6109436020830185610684565b610950604083018461065a565b949350505050565b600061096382610650565b915061096e83610650565b925082820190508082111561098657610985610830565b5b9291505056fea2646970667358221220e0676b4d8d3cac015e98fbd56b647a1d68b662fdbac96071fc7634d6c5245c6864736f6c63430008140033",
  "linkReferences": {},
  "deployedLinkReferences": {}
}