{
  "_format": "hh-sol-artifact-1",
  "contractName": "MockCompoundV3",
  "sourceName": "contracts/mocks/MockCompoundV3.sol",
  "abi": [
    {
      "inputs": [],
      "name": "accrueInterest",
      "outputs": [],
      "stateMutability": "nonpayable",
      "type": "function"
    },
    {
      "inputs": [
        {
          "internalType": "address",
          "name": "user",
          "type": "address"
        }
      ],
      "name": "getBalance",
      "outputs": [
        {
          "internalType": "uint256",
          "name": "",
          "type": "uint256"
        }
      ],
      "stateMutability": "view",
      "type": "function"
    },
    {
      "inputs": [
        {
          "internalType": "address",
          "name": "asset",
          "type": "address"
        }
      ],
      "name": "getSupplyRate",
      "outputs": [
        {
          "internalType": "uint256",
          "name": "",
          "type": "uint256"
        }
      ],
      "stateMutability": "view",
      "type": "function"
    },
    {
      "inputs": [
        {
          "internalType": "uint256",
          "name": "amount",
          "type": "uint256"
        }
      ],
      "name": "redeem",
      "outputs": [],
      "stateMutability": "nonpayable",
      "type": "function"
    },
    {
      "inputs": [
        {
          "internalType": "address",
          "name": "asset",
          "type": "address"
        },
        {
          "internalType": "uint256",
          "name": "rate",
          "type": "uint256"
        }
      ],
      "name": "setSupplyRate",
      "outputs": [],
      "stateMutability": "nonpayable",
      "type": "function"
    },
    {
      "inputs": [
        {
          "internalType": "address",
          "name": "asset",
          "type": "address"
        },
        {
          "internalType": "uint256",
          "name": "amount",
          "type": "uint256"
        }
      ],
      "name": "supply",
      "outputs": [],
      "stateMutability": "nonpayable",
      "type": "function"
    }
  ],
  "bytecode": "0x608060405234801561001057600080fd5b506107c7806100206000396000f3fe608060405234801561001057600080fd5b50600436106100625760003560e01c80636b5441a914610067578063a6afed9514610097578063d3fe312e146100a1578063db006a75146100bd578063f2b9fdb8146100d9578063f8b2cb4f146100f5575b600080fd5b610081600480360381019061007c91906104af565b610125565b60405161008e91906104f5565b60405180910390f35b61009f61016e565b005b6100bb60048036038101906100b6919061053c565b610170565b005b6100d760048036038101906100d2919061057c565b6101b8565b005b6100f360048036038101906100ee919061053c565b61032a565b005b61010f600480360381019061010a91906104af565b610404565b60405161011c91906104f5565b60405180910390f35b6000600160008373ffffffffffffffffffffffffffffffffffffffff1673ffffffffffffffffffffffffffffffffffffffff168152602001908152602001600020549050919050565b565b80600160008473ffffffffffffffffffffffffffffffffffffffff1673ffffffffffffffffffffffffffffffffffffffff168152602001908152602001600020819055505050565b806000803373ffffffffffffffffffffffffffffffffffffffff1673ffffffffffffffffffffffffffffffffffffffff168152602001908152602001600020541015610239576040517f08c379a000000000000000000000000000000000000000000000000000000000815260040161023090610606565b60405180910390fd5b6000732f2a2543b76a4166549f7aab2e75bef0aefc5b0f9050816000803373ffffffffffffffffffffffffffffffffffffffff1673ffffffffffffffffffffffffffffffffffffffff16815260200190815260200160002060008282546102a09190610655565b925050819055508073ffffffffffffffffffffffffffffffffffffffff1663a9059cbb33846040518363ffffffff1660e01b81526004016102e2929190610698565b6020604051808303816000875af1158015610301573d6000803e3d6000fd5b505050506040513d601f19601f8201168201806040525081019061032591906106f9565b505050565b8173ffffffffffffffffffffffffffffffffffffffff166323b872dd3330846040518463ffffffff1660e01b815260040161036793929190610726565b6020604051808303816000875af1158015610386573d6000803e3d6000fd5b505050506040513d601f19601f820116820180604052508101906103aa91906106f9565b50806000803373ffffffffffffffffffffffffffffffffffffffff1673ffffffffffffffffffffffffffffffffffffffff16815260200190815260200160002060008282546103f9919061075d565b925050819055505050565b60008060008373ffffffffffffffffffffffffffffffffffffffff1673ffffffffffffffffffffffffffffffffffffffff168152602001908152602001600020549050919050565b600080fd5b600073ffffffffffffffffffffffffffffffffffffffff82169050919050565b600061047c82610451565b9050919050565b61048c81610471565b811461049757600080fd5b50565b6000813590506104a981610483565b92915050565b6000602082840312156104c5576104c461044c565b5b60006104d38482850161049a565b91505092915050565b6000819050919050565b6104ef816104dc565b82525050565b600060208201905061050a60008301846104e6565b92915050565b610519816104dc565b811461052457600080fd5b50565b60008135905061053681610510565b92915050565b600080604083850312156105535761055261044c565b5b60006105618582860161049a565b925050602061057285828601610527565b9150509250929050565b6000602082840312156105925761059161044c565b5b60006105a084828501610527565b91505092915050565b600082825260208201905092915050565b7f496e73756666696369656e742062616c616e6365000000000000000000000000600082015250565b60006105f06014836105a9565b91506105fb826105ba565b602082019050919050565b6000602082019050818103600083015261061f816105e3565b9050919050565b7f4e487b7100000000000000000000000000000000000000000000000000000000600052601160045260246000fd5b6000610660826104dc565b915061066b836104dc565b925082820390508181111561068357610682610626565b5b92915050565b61069281610471565b82525050565b60006040820190506106ad6000830185610689565b6106ba60208301846104e6565b9392505050565b60008115159050919050565b6106d6816106c1565b81146106e157600080fd5b50565b6000815190506106f3816106cd565b92915050565b60006020828403121561070f5761070e61044c565b5b600061071d848285016106e4565b91505092915050565b600060608201905061073b6000830186610689565b6107486020830185610689565b61075560408301846104e6565b949350505050565b6000610768826104dc565b9150610773836104dc565b925082820190508082111561078b5761078a610626565b5b9291505056fea2646970667358221220d6a99b0ed927c11b3934b761f66ad0e337ee4854fa4ff129094af3e48b887cdd64736f6c63430008140033",
  "linkReferences": {},
  "deployedLinkReferences": {}
}