{
  "_format": "hh-sol-artifact-1",
  "contractName": "MockAaveV3",
  "sourceName": "contracts/mocks/MockAaveV3.sol",
  "abi": [
    {
      "inputs": [
        {
          "internalType": "address",
          "name": "asset",
          "type": "address"
        }
      ],
      "name": "accrueInterest",
      "outputs": [],
      "stateMutability": "nonpayable",
      "type": "function"
    },
    {
      "inputs": [
        {
          "internalType": "address",
          "name": "asset",
          "type": "address"
        },
        {
          "internalType": "uint256",
          "name": "amount",
          "type": "uint256"
        },
        {
          "internalType": "address",
          "name": "onBehalfOf",
          "type": "address"
        },
        {
          "internalType": "uint16",
          "name": "referralCode",
          "type": "uint16"
        }
      ],
      "name": "deposit",
      "outputs": [],
      "stateMutability": "nonpayable",
      "type": "function"
    },
    {
      "inputs": [
        {
          "internalType": "address",
          "name": "user",
          "type": "address"
        },
        {
          "internalType": "address",
          "name": "asset",
          "type": "address"
        }
      ],
      "name": "getBalance",
      "outputs": [
        {
          "internalType": "uint256",
          "name": "",
          "type": "uint256"
        }
      ],
      "stateMutability": "view",
      "type": "function"
    },
    {
      "inputs": [
        {
          "internalType": "address",
          "name": "asset",
          "type": "address"
        }
      ],
      "name": "getInterestRate",
      "outputs": [
        {
          "internalType": "uint256",
          "name": "",
          "type": "uint256"
        }
      ],
      "stateMutability": "view",
      "type": "function"
    },
    {
      "inputs": [
        {
          "internalType": "address",
          "name": "asset",
          "type": "address"
        },
        {
          "internalType": "uint256",
          "name": "rate",
          "type": "uint256"
        }
      ],
      "name": "setInterestRate",
      "outputs": [],
      "stateMutability": "nonpayable",
      "type": "function"
    },
    {
      "inputs": [
        {
          "internalType": "address",
          "name": "asset",
          "type": "address"
        },
        {
          "internalType": "uint256",
          "name": "amount",
          "type": "uint256"
        },
        {
          "internalType": "address",
          "name": "to",
          "type": "address"
        }
      ],
      "name": "withdraw",
      "outputs": [],
      "stateMutability": "nonpayable",
      "type": "function"
    }
  ],
  "bytecode": "0x608060405234801561001057600080fd5b506109c0806100206000396000f3fe608060405234801561001057600080fd5b50600436106100625760003560e01c806369328dec1461006757806373e5515e146100835780639198e5151461009f578063d3ea0f89146100bb578063d4fac45d146100eb578063e8eda9df1461011b575b600080fd5b610081600480360381019061007c91906105d7565b610137565b005b61009d6004803603810190610098919061062a565b61030b565b005b6100b960048036038101906100b4919061066a565b610353565b005b6100d560048036038101906100d0919061066a565b610356565b6040516100e291906106a6565b60405180910390f35b610105600480360381019061010091906106c1565b61039f565b60405161011291906106a6565b60405180910390f35b6101356004803603810190610130919061073b565b610425565b005b816000803373ffffffffffffffffffffffffffffffffffffffff1673ffffffffffffffffffffffffffffffffffffffff16815260200190815260200160002060008573ffffffffffffffffffffffffffffffffffffffff1673ffffffffffffffffffffffffffffffffffffffff1681526020019081526020016000205410156101f5576040517f08c379a00000000000000000000000000000000000000000000000000000000081526004016101ec906107ff565b60405180910390fd5b816000803373ffffffffffffffffffffffffffffffffffffffff1673ffffffffffffffffffffffffffffffffffffffff16815260200190815260200160002060008573ffffffffffffffffffffffffffffffffffffffff1673ffffffffffffffffffffffffffffffffffffffff1681526020019081526020016000206000828254610280919061084e565b925050819055508273ffffffffffffffffffffffffffffffffffffffff1663a9059cbb82846040518363ffffffff1660e01b81526004016102c2929190610891565b6020604051808303816000875af11580156102e1573d6000803e3d6000fd5b505050506040513d601f19601f8201168201806040525081019061030591906108f2565b50505050565b80600160008473ffffffffffffffffffffffffffffffffffffffff1673ffffffffffffffffffffffffffffffffffffffff168152602001908152602001600020819055505050565b50565b6000600160008373ffffffffffffffffffffffffffffffffffffffff1673ffffffffffffffffffffffffffffffffffffffff168152602001908152602001600020549050919050565b60008060008473ffffffffffffffffffffffffffffffffffffffff1673ffffffffffffffffffffffffffffffffffffffff16815260200190815260200160002060008373ffffffffffffffffffffffffffffffffffffffff1673ffffffffffffffffffffffffffffffffffffffff16815260200190815260200160002054905092915050565b8373ffffffffffffffffffffffffffffffffffffffff166323b872dd3330866040518463ffffffff1660e01b81526004016104629392919061091f565b6020604051808303816000875af1158015610481573d6000803e3d6000fd5b505050506040513d601f19601f820116820180604052508101906104a591906108f2565b50826000808473ffffffffffffffffffffffffffffffffffffffff1673ffffffffffffffffffffffffffffffffffffffff16815260200190815260200160002060008673ffffffffffffffffffffffffffffffffffffffff1673ffffffffffffffffffffffffffffffffffffffff16815260200190815260200160002060008282546105319190610956565b9250508190555050505050565b600080fd5b600073ffffffffffffffffffffffffffffffffffffffff82169050919050565b600061056e82610543565b9050919050565b61057e81610563565b811461058957600080fd5b50565b60008135905061059b81610575565b92915050565b6000819050919050565b6105b4816105a1565b81146105bf57600080fd5b50565b6000813590506105d1816105ab565b92915050565b6000806000606084860312156105f0576105ef61053e565b5b60006105fe8682870161058c565b935050602061060f868287016105c2565b92505060406106208682870161058c565b9150509250925092565b600080604083850312156106415761064061053e565b5b600061064f8582860161058c565b9250506020610660858286016105c2565b9150509250929050565b6000602082840312156106805761067f61053e565b5b600061068e8482850161058c565b91505092915050565b6106a0816105a1565b82525050565b60006020820190506106bb6000830184610697565b92915050565b600080604083850312156106d8576106d761053e565b5b60006106e68582860161058c565b92505060206106f78582860161058c565b9150509250929050565b600061ffff82169050919050565b61071881610701565b811461072357600080fd5b50565b6000813590506107358161070f565b92915050565b600080600080608085870312156107555761075461053e565b5b60006107638782880161058c565b9450506020610774878288016105c2565b93505060406107858782880161058c565b925050606061079687828801610726565b91505092959194509250565b600082825260208201905092915050565b7f496e73756666696369656e742062616c616e6365000000000000000000000000600082015250565b60006107e96014836107a2565b91506107f4826107b3565b602082019050919050565b60006020820190508181036000830152610818816107dc565b9050919050565b7f4e487b7100000000000000000000000000000000000000000000000000000000600052601160045260246000fd5b6000610859826105a1565b9150610864836105a1565b925082820390508181111561087c5761087b61081f565b5b92915050565b61088b81610563565b82525050565b60006040820190506108a66000830185610882565b6108b36020830184610697565b9392505050565b60008115159050919050565b6108cf816108ba565b81146108da57600080fd5b50565b6000815190506108ec816108c6565b92915050565b6000602082840312156109085761090761053e565b5b6000610916848285016108dd565b91505092915050565b60006060820190506109346000830186610882565b6109416020830185610882565b61094e6040830184610697565b949350505050565b6000610961826105a1565b915061096c836105a1565b92508282019050808211156109845761098361081f565b5b9291505056fea2646970667358221220d54ab7c43310c85446f4e7574bc41815d70fa0a0bc5c1aa1d82a7df902a9d58564736f6c63430008140033",
  "linkReferences": {},
  "deployedLinkReferences": {}
}